{
	"ChainOfCustody.sol": {
		"ChainOfCustody": {
			"abi": [
				{
					"inputs": [],
					"stateMutability": "nonpayable",
					"type": "constructor"
				},
				{
					"anonymous": false,
					"inputs": [
						{
							"indexed": false,
							"internalType": "string",
							"name": "evidenceId",
							"type": "string"
						},
						{
							"indexed": false,
							"internalType": "address",
							"name": "addedBy",
							"type": "address"
						},
						{
							"indexed": false,
							"internalType": "uint256",
							"name": "timestamp",
							"type": "uint256"
						}
					],
					"name": "EvidenceAdded",
					"type": "event"
				},
				{
					"anonymous": false,
					"inputs": [
						{
							"indexed": false,
							"internalType": "string",
							"name": "evidenceId",
							"type": "string"
						},
						{
							"indexed": false,
							"internalType": "address",
							"name": "from",
							"type": "address"
						},
						{
							"indexed": false,
							"internalType": "address",
							"name": "to",
							"type": "address"
						},
						{
							"indexed": false,
							"internalType": "uint256",
							"name": "timestamp",
							"type": "uint256"
						}
					],
					"name": "EvidenceTransferred",
					"type": "event"
				},
				{
					"inputs": [
						{
							"internalType": "string",
							"name": "_id",
							"type": "string"
						},
						{
							"internalType": "string",
							"name": "_hash",
							"type": "string"
						},
						{
							"internalType": "string",
							"name": "_description",
							"type": "string"
						},
						{
							"internalType": "bool",
							"name": "_escrowEnabled",
							"type": "bool"
						}
					],
					"name": "addEvidence",
					"outputs": [],
					"stateMutability": "payable",
					"type": "function"
				},
				{
					"inputs": [],
					"name": "admin",
					"outputs": [
						{
							"internalType": "address",
							"name": "",
							"type": "address"
						}
					],
					"stateMutability": "view",
					"type": "function"
				},
				{
					"inputs": [
						{
							"internalType": "string",
							"name": "_id",
							"type": "string"
						}
					],
					"name": "getEvidence",
					"outputs": [
						{
							"internalType": "string",
							"name": "",
							"type": "string"
						},
						{
							"internalType": "string",
							"name": "",
							"type": "string"
						},
						{
							"internalType": "address",
							"name": "",
							"type": "address"
						},
						{
							"internalType": "uint256",
							"name": "",
							"type": "uint256"
						},
						{
							"internalType": "bool",
							"name": "",
							"type": "bool"
						},
						{
							"internalType": "uint256",
							"name": "",
							"type": "uint256"
						}
					],
					"stateMutability": "view",
					"type": "function"
				},
				{
					"inputs": [
						{
							"internalType": "string",
							"name": "_id",
							"type": "string"
						}
					],
					"name": "getEvidenceLog",
					"outputs": [
						{
							"internalType": "string[]",
							"name": "",
							"type": "string[]"
						}
					],
					"stateMutability": "view",
					"type": "function"
				},
				{
					"inputs": [
						{
							"internalType": "string",
							"name": "_id",
							"type": "string"
						}
					],
					"name": "releaseEscrow",
					"outputs": [],
					"stateMutability": "nonpayable",
					"type": "function"
				},
				{
					"inputs": [
						{
							"internalType": "string",
							"name": "_id",
							"type": "string"
						},
						{
							"internalType": "address",
							"name": "_newHolder",
							"type": "address"
						}
					],
					"name": "transferEvidence",
					"outputs": [],
					"stateMutability": "nonpayable",
					"type": "function"
				}
			],
			"devdoc": {
				"kind": "dev",
				"methods": {},
				"version": 1
			},
			"evm": {
				"assembly": "    /* \"ChainOfCustody.sol\":61:3605  contract ChainOfCustody {... */\n  mstore(0x40, 0x80)\n    /* \"ChainOfCustody.sol\":469:520  constructor() {... */\n  callvalue\n  dup1\n  iszero\n  tag_1\n  jumpi\n  revert(0x00, 0x00)\ntag_1:\n  pop\n    /* \"ChainOfCustody.sol\":502:512  msg.sender */\n  caller\n    /* \"ChainOfCustody.sol\":494:499  admin */\n  0x02\n  0x00\n    /* \"ChainOfCustody.sol\":494:512  admin = msg.sender */\n  0x0100\n  exp\n  dup2\n  sload\n  dup2\n  0xffffffffffffffffffffffffffffffffffffffff\n  mul\n  not\n  and\n  swap1\n  dup4\n  0xffffffffffffffffffffffffffffffffffffffff\n  and\n  mul\n  or\n  swap1\n  sstore\n  pop\n    /* \"ChainOfCustody.sol\":61:3605  contract ChainOfCustody {... */\n  dataSize(sub_0)\n  dup1\n  dataOffset(sub_0)\n  0x00\n  codecopy\n  0x00\n  return\nstop\n\nsub_0: assembly {\n        /* \"ChainOfCustody.sol\":61:3605  contract ChainOfCustody {... */\n      mstore(0x40, 0x80)\n      jumpi(tag_1, lt(calldatasize, 0x04))\n      shr(0xe0, calldataload(0x00))\n      dup1\n      0x1cb68389\n      eq\n      tag_2\n      jumpi\n      dup1\n      0x533b8f4d\n      eq\n      tag_3\n      jumpi\n      dup1\n      0x608c29a3\n      eq\n      tag_4\n      jumpi\n      dup1\n      0xb16c6ee7\n      eq\n      tag_5\n      jumpi\n      dup1\n      0xda537266\n      eq\n      tag_6\n      jumpi\n      dup1\n      0xf851a440\n      eq\n      tag_7\n      jumpi\n    tag_1:\n      revert(0x00, 0x00)\n        /* \"ChainOfCustody.sol\":1639:2137  function transferEvidence(... */\n    tag_2:\n      callvalue\n      dup1\n      iszero\n      tag_8\n      jumpi\n      revert(0x00, 0x00)\n    tag_8:\n      pop\n      tag_9\n      0x04\n      dup1\n      calldatasize\n      sub\n      dup2\n      add\n      swap1\n      tag_10\n      swap2\n      swap1\n      tag_11\n      jump\t// in\n    tag_10:\n      tag_12\n      jump\t// in\n    tag_9:\n      stop\n        /* \"ChainOfCustody.sol\":2719:2867  function getEvidenceLog(string memory _id)... */\n    tag_3:\n      callvalue\n      dup1\n      iszero\n      tag_13\n      jumpi\n      revert(0x00, 0x00)\n    tag_13:\n      pop\n      tag_14\n      0x04\n      dup1\n      calldatasize\n      sub\n      dup2\n      add\n      swap1\n      tag_15\n      swap2\n      swap1\n      tag_16\n      jump\t// in\n    tag_15:\n      tag_17\n      jump\t// in\n    tag_14:\n      mload(0x40)\n      tag_18\n      swap2\n      swap1\n      tag_19\n      jump\t// in\n    tag_18:\n      mload(0x40)\n      dup1\n      swap2\n      sub\n      swap1\n      return\n        /* \"ChainOfCustody.sol\":2930:3324  function releaseEscrow(string memory _id) public onlyAdmin {... */\n    tag_4:\n      callvalue\n      dup1\n      iszero\n      tag_20\n      jumpi\n      revert(0x00, 0x00)\n    tag_20:\n      pop\n      tag_21\n      0x04\n      dup1\n      calldatasize\n      sub\n      dup2\n      add\n      swap1\n      tag_22\n      swap2\n      swap1\n      tag_16\n      jump\t// in\n    tag_22:\n      tag_23\n      jump\t// in\n    tag_21:\n      stop\n        /* \"ChainOfCustody.sol\":2171:2689  function getEvidence(string memory _id)... */\n    tag_5:\n      callvalue\n      dup1\n      iszero\n      tag_24\n      jumpi\n      revert(0x00, 0x00)\n    tag_24:\n      pop\n      tag_25\n      0x04\n      dup1\n      calldatasize\n      sub\n      dup2\n      add\n      swap1\n      tag_26\n      swap2\n      swap1\n      tag_16\n      jump\t// in\n    tag_26:\n      tag_27\n      jump\t// in\n    tag_25:\n      mload(0x40)\n      tag_28\n      swap7\n      swap6\n      swap5\n      swap4\n      swap3\n      swap2\n      swap1\n      tag_29\n      jump\t// in\n    tag_28:\n      mload(0x40)\n      dup1\n      swap2\n      sub\n      swap1\n      return\n        /* \"ChainOfCustody.sol\":821:1600  function addEvidence(... */\n    tag_6:\n      tag_30\n      0x04\n      dup1\n      calldatasize\n      sub\n      dup2\n      add\n      swap1\n      tag_31\n      swap2\n      swap1\n      tag_32\n      jump\t// in\n    tag_31:\n      tag_33\n      jump\t// in\n    tag_30:\n      stop\n        /* \"ChainOfCustody.sol\":440:460  address public admin */\n    tag_7:\n      callvalue\n      dup1\n      iszero\n      tag_34\n      jumpi\n      revert(0x00, 0x00)\n    tag_34:\n      pop\n      tag_35\n      tag_36\n      jump\t// in\n    tag_35:\n      mload(0x40)\n      tag_37\n      swap2\n      swap1\n      tag_38\n      jump\t// in\n    tag_37:\n      mload(0x40)\n      dup1\n      swap2\n      sub\n      swap1\n      return\n        /* \"ChainOfCustody.sol\":1639:2137  function transferEvidence(... */\n    tag_12:\n        /* \"ChainOfCustody.sol\":1751:1754  _id */\n      dup2\n        /* \"ChainOfCustody.sol\":700:709  evidences */\n      0x00\n        /* \"ChainOfCustody.sol\":710:713  _id */\n      dup2\n        /* \"ChainOfCustody.sol\":700:714  evidences[_id] */\n      mload(0x40)\n      tag_40\n      swap2\n      swap1\n      tag_41\n      jump\t// in\n    tag_40:\n      swap1\n      dup2\n      mstore\n      0x20\n      add\n      mload(0x40)\n      dup1\n      swap2\n      sub\n      swap1\n      keccak256\n        /* \"ChainOfCustody.sol\":700:721  evidences[_id].exists */\n      0x07\n      add\n      0x00\n      swap1\n      sload\n      swap1\n      0x0100\n      exp\n      swap1\n      div\n      0xff\n      and\n        /* \"ChainOfCustody.sol\":692:744  require(evidences[_id].exists, \"Evidence not found\") */\n      tag_42\n      jumpi\n      mload(0x40)\n      0x08c379a000000000000000000000000000000000000000000000000000000000\n      dup2\n      mstore\n      0x04\n      add\n      tag_43\n      swap1\n      tag_44\n      jump\t// in\n    tag_43:\n      mload(0x40)\n      dup1\n      swap2\n      sub\n      swap1\n      revert\n    tag_42:\n        /* \"ChainOfCustody.sol\":1769:1787  Evidence storage e */\n      0x00\n        /* \"ChainOfCustody.sol\":1790:1799  evidences */\n      0x00\n        /* \"ChainOfCustody.sol\":1800:1803  _id */\n      dup5\n        /* \"ChainOfCustody.sol\":1790:1804  evidences[_id] */\n      mload(0x40)\n      tag_46\n      swap2\n      swap1\n      tag_41\n      jump\t// in\n    tag_46:\n      swap1\n      dup2\n      mstore\n      0x20\n      add\n      mload(0x40)\n      dup1\n      swap2\n      sub\n      swap1\n      keccak256\n        /* \"ChainOfCustody.sol\":1769:1804  Evidence storage e = evidences[_id] */\n      swap1\n      pop\n        /* \"ChainOfCustody.sol\":1839:1840  e */\n      dup1\n        /* \"ChainOfCustody.sol\":1839:1854  e.currentHolder */\n      0x03\n      add\n      0x00\n      swap1\n      sload\n      swap1\n      0x0100\n      exp\n      swap1\n      div\n      0xffffffffffffffffffffffffffffffffffffffff\n      and\n        /* \"ChainOfCustody.sol\":1825:1854  msg.sender == e.currentHolder */\n      0xffffffffffffffffffffffffffffffffffffffff\n      and\n        /* \"ChainOfCustody.sol\":1825:1835  msg.sender */\n      caller\n        /* \"ChainOfCustody.sol\":1825:1854  msg.sender == e.currentHolder */\n      0xffffffffffffffffffffffffffffffffffffffff\n      and\n      eq\n        /* \"ChainOfCustody.sol\":1817:1868  require(msg.sender == e.currentHolder, \"Not owner\") */\n      tag_47\n      jumpi\n      mload(0x40)\n      0x08c379a000000000000000000000000000000000000000000000000000000000\n      dup2\n      mstore\n      0x04\n      add\n      tag_48\n      swap1\n      tag_49\n      jump\t// in\n    tag_48:\n      mload(0x40)\n      dup1\n      swap2\n      sub\n      swap1\n      revert\n    tag_47:\n        /* \"ChainOfCustody.sol\":1881:1903  address previousHolder */\n      0x00\n        /* \"ChainOfCustody.sol\":1906:1907  e */\n      dup2\n        /* \"ChainOfCustody.sol\":1906:1921  e.currentHolder */\n      0x03\n      add\n      0x00\n      swap1\n      sload\n      swap1\n      0x0100\n      exp\n      swap1\n      div\n      0xffffffffffffffffffffffffffffffffffffffff\n      and\n        /* \"ChainOfCustody.sol\":1881:1921  address previousHolder = e.currentHolder */\n      swap1\n      pop\n        /* \"ChainOfCustody.sol\":1950:1960  _newHolder */\n      dup4\n        /* \"ChainOfCustody.sol\":1932:1933  e */\n      dup3\n        /* \"ChainOfCustody.sol\":1932:1947  e.currentHolder */\n      0x03\n      add\n      0x00\n        /* \"ChainOfCustody.sol\":1932:1960  e.currentHolder = _newHolder */\n      0x0100\n      exp\n      dup2\n      sload\n      dup2\n      0xffffffffffffffffffffffffffffffffffffffff\n      mul\n      not\n      and\n      swap1\n      dup4\n      0xffffffffffffffffffffffffffffffffffffffff\n      and\n      mul\n      or\n      swap1\n      sstore\n      pop\n        /* \"ChainOfCustody.sol\":1985:2000  block.timestamp */\n      timestamp\n        /* \"ChainOfCustody.sol\":1971:1972  e */\n      dup3\n        /* \"ChainOfCustody.sol\":1971:1982  e.timestamp */\n      0x04\n      add\n        /* \"ChainOfCustody.sol\":1971:2000  e.timestamp = block.timestamp */\n      dup2\n      swap1\n      sstore\n      pop\n        /* \"ChainOfCustody.sol\":2013:2017  logs */\n      0x01\n        /* \"ChainOfCustody.sol\":2018:2021  _id */\n      dup6\n        /* \"ChainOfCustody.sol\":2013:2022  logs[_id] */\n      mload(0x40)\n      tag_50\n      swap2\n      swap1\n      tag_41\n      jump\t// in\n    tag_50:\n      swap1\n      dup2\n      mstore\n      0x20\n      add\n      mload(0x40)\n      dup1\n      swap2\n      sub\n      swap1\n      keccak256\n        /* \"ChainOfCustody.sol\":2013:2042  logs[_id].push(\"Transferred\") */\n      dup1\n      0x01\n      dup2\n      sload\n      add\n      dup1\n      dup3\n      sstore\n      dup1\n      swap2\n      pop\n      pop\n      0x01\n      swap1\n      sub\n      swap1\n      0x00\n      mstore\n      keccak256(0x00, 0x20)\n      add\n      0x00\n      mload(0x40)\n      dup1\n      0x40\n      add\n      0x40\n      mstore\n      dup1\n      0x0b\n      dup2\n      mstore\n      0x20\n      add\n      0x5472616e73666572726564000000000000000000000000000000000000000000\n      dup2\n      mstore\n      pop\n      swap1\n      swap2\n      swap1\n      swap2\n      pop\n      swap1\n      dup2\n      tag_52\n      swap2\n      swap1\n      tag_53\n      jump\t// in\n    tag_52:\n      pop\n        /* \"ChainOfCustody.sol\":2060:2129  EvidenceTransferred(_id, previousHolder, _newHolder, block.timestamp) */\n      0x24740c4411179df970c0a5e668198a21a823c0e7c25b138c34acf7c1b7fed0cd\n        /* \"ChainOfCustody.sol\":2080:2083  _id */\n      dup6\n        /* \"ChainOfCustody.sol\":2085:2099  previousHolder */\n      dup3\n        /* \"ChainOfCustody.sol\":2101:2111  _newHolder */\n      dup7\n        /* \"ChainOfCustody.sol\":2113:2128  block.timestamp */\n      timestamp\n        /* \"ChainOfCustody.sol\":2060:2129  EvidenceTransferred(_id, previousHolder, _newHolder, block.timestamp) */\n      mload(0x40)\n      tag_54\n      swap5\n      swap4\n      swap3\n      swap2\n      swap1\n      tag_55\n      jump\t// in\n    tag_54:\n      mload(0x40)\n      dup1\n      swap2\n      sub\n      swap1\n      log1\n        /* \"ChainOfCustody.sol\":1756:2137  {... */\n      pop\n      pop\n        /* \"ChainOfCustody.sol\":1639:2137  function transferEvidence(... */\n      pop\n      pop\n      pop\n      jump\t// out\n        /* \"ChainOfCustody.sol\":2719:2867  function getEvidenceLog(string memory _id)... */\n    tag_17:\n        /* \"ChainOfCustody.sol\":2810:2825  string[] memory */\n      0x60\n        /* \"ChainOfCustody.sol\":2850:2854  logs */\n      0x01\n        /* \"ChainOfCustody.sol\":2855:2858  _id */\n      dup3\n        /* \"ChainOfCustody.sol\":2850:2859  logs[_id] */\n      mload(0x40)\n      tag_57\n      swap2\n      swap1\n      tag_41\n      jump\t// in\n    tag_57:\n      swap1\n      dup2\n      mstore\n      0x20\n      add\n      mload(0x40)\n      dup1\n      swap2\n      sub\n      swap1\n      keccak256\n        /* \"ChainOfCustody.sol\":2843:2859  return logs[_id] */\n      dup1\n      sload\n      dup1\n      0x20\n      mul\n      0x20\n      add\n      mload(0x40)\n      swap1\n      dup2\n      add\n      0x40\n      mstore\n      dup1\n      swap3\n      swap2\n      swap1\n      dup2\n      dup2\n      mstore\n      0x20\n      add\n      0x00\n      swap1\n    tag_58:\n      dup3\n      dup3\n      lt\n      iszero\n      tag_59\n      jumpi\n      dup4\n      dup3\n      swap1\n      0x00\n      mstore\n      keccak256(0x00, 0x20)\n      add\n      dup1\n      sload\n      tag_61\n      swap1\n      tag_62\n      jump\t// in\n    tag_61:\n      dup1\n      0x1f\n      add\n      0x20\n      dup1\n      swap2\n      div\n      mul\n      0x20\n      add\n      mload(0x40)\n      swap1\n      dup2\n      add\n      0x40\n      mstore\n      dup1\n      swap3\n      swap2\n      swap1\n      dup2\n      dup2\n      mstore\n      0x20\n      add\n      dup3\n      dup1\n      sload\n      tag_63\n      swap1\n      tag_62\n      jump\t// in\n    tag_63:\n      dup1\n      iszero\n      tag_64\n      jumpi\n      dup1\n      0x1f\n      lt\n      tag_65\n      jumpi\n      0x0100\n      dup1\n      dup4\n      sload\n      div\n      mul\n      dup4\n      mstore\n      swap2\n      0x20\n      add\n      swap2\n      jump(tag_64)\n    tag_65:\n      dup3\n      add\n      swap2\n      swap1\n      0x00\n      mstore\n      keccak256(0x00, 0x20)\n      swap1\n    tag_66:\n      dup2\n      sload\n      dup2\n      mstore\n      swap1\n      0x01\n      add\n      swap1\n      0x20\n      add\n      dup1\n      dup4\n      gt\n      tag_66\n      jumpi\n      dup3\n      swap1\n      sub\n      0x1f\n      and\n      dup3\n      add\n      swap2\n    tag_64:\n      pop\n      pop\n      pop\n      pop\n      pop\n      dup2\n      mstore\n      0x20\n      add\n      swap1\n      0x01\n      add\n      swap1\n      jump(tag_58)\n    tag_59:\n      pop\n      pop\n      pop\n      pop\n      swap1\n      pop\n        /* \"ChainOfCustody.sol\":2719:2867  function getEvidenceLog(string memory _id)... */\n      swap2\n      swap1\n      pop\n      jump\t// out\n        /* \"ChainOfCustody.sol\":2930:3324  function releaseEscrow(string memory _id) public onlyAdmin {... */\n    tag_23:\n        /* \"ChainOfCustody.sol\":582:587  admin */\n      0x02\n      0x00\n      swap1\n      sload\n      swap1\n      0x0100\n      exp\n      swap1\n      div\n      0xffffffffffffffffffffffffffffffffffffffff\n      and\n        /* \"ChainOfCustody.sol\":568:587  msg.sender == admin */\n      0xffffffffffffffffffffffffffffffffffffffff\n      and\n        /* \"ChainOfCustody.sol\":568:578  msg.sender */\n      caller\n        /* \"ChainOfCustody.sol\":568:587  msg.sender == admin */\n      0xffffffffffffffffffffffffffffffffffffffff\n      and\n      eq\n        /* \"ChainOfCustody.sol\":560:610  require(msg.sender == admin, \"Only admin allowed\") */\n      tag_68\n      jumpi\n      mload(0x40)\n      0x08c379a000000000000000000000000000000000000000000000000000000000\n      dup2\n      mstore\n      0x04\n      add\n      tag_69\n      swap1\n      tag_70\n      jump\t// in\n    tag_69:\n      mload(0x40)\n      dup1\n      swap2\n      sub\n      swap1\n      revert\n    tag_68:\n        /* \"ChainOfCustody.sol\":3000:3018  Evidence storage e */\n      0x00\n        /* \"ChainOfCustody.sol\":3021:3030  evidences */\n      0x00\n        /* \"ChainOfCustody.sol\":3031:3034  _id */\n      dup3\n        /* \"ChainOfCustody.sol\":3021:3035  evidences[_id] */\n      mload(0x40)\n      tag_72\n      swap2\n      swap1\n      tag_41\n      jump\t// in\n    tag_72:\n      swap1\n      dup2\n      mstore\n      0x20\n      add\n      mload(0x40)\n      dup1\n      swap2\n      sub\n      swap1\n      keccak256\n        /* \"ChainOfCustody.sol\":3000:3035  Evidence storage e = evidences[_id] */\n      swap1\n      pop\n        /* \"ChainOfCustody.sol\":3056:3057  e */\n      dup1\n        /* \"ChainOfCustody.sol\":3056:3071  e.escrowEnabled */\n      0x05\n      add\n      0x00\n      swap1\n      sload\n      swap1\n      0x0100\n      exp\n      swap1\n      div\n      0xff\n      and\n        /* \"ChainOfCustody.sol\":3048:3085  require(e.escrowEnabled, \"No escrow\") */\n      tag_73\n      jumpi\n      mload(0x40)\n      0x08c379a000000000000000000000000000000000000000000000000000000000\n      dup2\n      mstore\n      0x04\n      add\n      tag_74\n      swap1\n      tag_75\n      jump\t// in\n    tag_74:\n      mload(0x40)\n      dup1\n      swap2\n      sub\n      swap1\n      revert\n    tag_73:\n        /* \"ChainOfCustody.sol\":3121:3122  0 */\n      0x00\n        /* \"ChainOfCustody.sol\":3104:3105  e */\n      dup2\n        /* \"ChainOfCustody.sol\":3104:3118  e.escrowAmount */\n      0x06\n      add\n      sload\n        /* \"ChainOfCustody.sol\":3104:3122  e.escrowAmount > 0 */\n      gt\n        /* \"ChainOfCustody.sol\":3096:3143  require(e.escrowAmount > 0, \"Already released\") */\n      tag_76\n      jumpi\n      mload(0x40)\n      0x08c379a000000000000000000000000000000000000000000000000000000000\n      dup2\n      mstore\n      0x04\n      add\n      tag_77\n      swap1\n      tag_78\n      jump\t// in\n    tag_77:\n      mload(0x40)\n      dup1\n      swap2\n      sub\n      swap1\n      revert\n    tag_76:\n        /* \"ChainOfCustody.sol\":3156:3170  uint256 amount */\n      0x00\n        /* \"ChainOfCustody.sol\":3173:3174  e */\n      dup2\n        /* \"ChainOfCustody.sol\":3173:3187  e.escrowAmount */\n      0x06\n      add\n      sload\n        /* \"ChainOfCustody.sol\":3156:3187  uint256 amount = e.escrowAmount */\n      swap1\n      pop\n        /* \"ChainOfCustody.sol\":3215:3216  0 */\n      0x00\n        /* \"ChainOfCustody.sol\":3198:3199  e */\n      dup3\n        /* \"ChainOfCustody.sol\":3198:3212  e.escrowAmount */\n      0x06\n      add\n        /* \"ChainOfCustody.sol\":3198:3216  e.escrowAmount = 0 */\n      dup2\n      swap1\n      sstore\n      pop\n        /* \"ChainOfCustody.sol\":3237:3238  e */\n      dup2\n        /* \"ChainOfCustody.sol\":3237:3252  e.currentHolder */\n      0x03\n      add\n      0x00\n      swap1\n      sload\n      swap1\n      0x0100\n      exp\n      swap1\n      div\n      0xffffffffffffffffffffffffffffffffffffffff\n      and\n        /* \"ChainOfCustody.sol\":3229:3262  payable(e.currentHolder).transfer */\n      0xffffffffffffffffffffffffffffffffffffffff\n      and\n        /* \"ChainOfCustody.sol\":3229:3270  payable(e.currentHolder).transfer(amount) */\n      0x08fc\n        /* \"ChainOfCustody.sol\":3263:3269  amount */\n      dup3\n        /* \"ChainOfCustody.sol\":3229:3270  payable(e.currentHolder).transfer(amount) */\n      swap1\n      dup2\n      iszero\n      mul\n      swap1\n      mload(0x40)\n      0x00\n      mload(0x40)\n      dup1\n      dup4\n      sub\n      dup2\n      dup6\n      dup9\n      dup9\n      call\n      swap4\n      pop\n      pop\n      pop\n      pop\n      iszero\n      dup1\n      iszero\n      tag_80\n      jumpi\n      returndatacopy(0x00, 0x00, returndatasize)\n      revert(0x00, returndatasize)\n    tag_80:\n      pop\n        /* \"ChainOfCustody.sol\":3283:3287  logs */\n      0x01\n        /* \"ChainOfCustody.sol\":3288:3291  _id */\n      dup4\n        /* \"ChainOfCustody.sol\":3283:3292  logs[_id] */\n      mload(0x40)\n      tag_81\n      swap2\n      swap1\n      tag_41\n      jump\t// in\n    tag_81:\n      swap1\n      dup2\n      mstore\n      0x20\n      add\n      mload(0x40)\n      dup1\n      swap2\n      sub\n      swap1\n      keccak256\n        /* \"ChainOfCustody.sol\":3283:3316  logs[_id].push(\"Escrow Released\") */\n      dup1\n      0x01\n      dup2\n      sload\n      add\n      dup1\n      dup3\n      sstore\n      dup1\n      swap2\n      pop\n      pop\n      0x01\n      swap1\n      sub\n      swap1\n      0x00\n      mstore\n      keccak256(0x00, 0x20)\n      add\n      0x00\n      mload(0x40)\n      dup1\n      0x40\n      add\n      0x40\n      mstore\n      dup1\n      0x0f\n      dup2\n      mstore\n      0x20\n      add\n      0x457363726f772052656c65617365640000000000000000000000000000000000\n      dup2\n      mstore\n      pop\n      swap1\n      swap2\n      swap1\n      swap2\n      pop\n      swap1\n      dup2\n      tag_83\n      swap2\n      swap1\n      tag_53\n      jump\t// in\n    tag_83:\n      pop\n        /* \"ChainOfCustody.sol\":2989:3324  {... */\n      pop\n      pop\n        /* \"ChainOfCustody.sol\":2930:3324  function releaseEscrow(string memory _id) public onlyAdmin {... */\n      pop\n      jump\t// out\n        /* \"ChainOfCustody.sol\":2171:2689  function getEvidence(string memory _id)... */\n    tag_27:\n        /* \"ChainOfCustody.sol\":2302:2315  string memory */\n      0x60\n        /* \"ChainOfCustody.sol\":2330:2343  string memory */\n      dup1\n        /* \"ChainOfCustody.sol\":2358:2365  address */\n      0x00\n        /* \"ChainOfCustody.sol\":2380:2387  uint256 */\n      0x00\n        /* \"ChainOfCustody.sol\":2402:2406  bool */\n      0x00\n        /* \"ChainOfCustody.sol\":2421:2428  uint256 */\n      0x00\n        /* \"ChainOfCustody.sol\":2265:2268  _id */\n      dup7\n        /* \"ChainOfCustody.sol\":700:709  evidences */\n      0x00\n        /* \"ChainOfCustody.sol\":710:713  _id */\n      dup2\n        /* \"ChainOfCustody.sol\":700:714  evidences[_id] */\n      mload(0x40)\n      tag_85\n      swap2\n      swap1\n      tag_41\n      jump\t// in\n    tag_85:\n      swap1\n      dup2\n      mstore\n      0x20\n      add\n      mload(0x40)\n      dup1\n      swap2\n      sub\n      swap1\n      keccak256\n        /* \"ChainOfCustody.sol\":700:721  evidences[_id].exists */\n      0x07\n      add\n      0x00\n      swap1\n      sload\n      swap1\n      0x0100\n      exp\n      swap1\n      div\n      0xff\n      and\n        /* \"ChainOfCustody.sol\":692:744  require(evidences[_id].exists, \"Evidence not found\") */\n      tag_86\n      jumpi\n      mload(0x40)\n      0x08c379a000000000000000000000000000000000000000000000000000000000\n      dup2\n      mstore\n      0x04\n      add\n      tag_87\n      swap1\n      tag_44\n      jump\t// in\n    tag_87:\n      mload(0x40)\n      dup1\n      swap2\n      sub\n      swap1\n      revert\n    tag_86:\n        /* \"ChainOfCustody.sol\":2456:2473  Evidence memory e */\n      0x00\n        /* \"ChainOfCustody.sol\":2476:2485  evidences */\n      0x00\n        /* \"ChainOfCustody.sol\":2486:2489  _id */\n      dup10\n        /* \"ChainOfCustody.sol\":2476:2490  evidences[_id] */\n      mload(0x40)\n      tag_89\n      swap2\n      swap1\n      tag_41\n      jump\t// in\n    tag_89:\n      swap1\n      dup2\n      mstore\n      0x20\n      add\n      mload(0x40)\n      dup1\n      swap2\n      sub\n      swap1\n      keccak256\n        /* \"ChainOfCustody.sol\":2456:2490  Evidence memory e = evidences[_id] */\n      mload(0x40)\n      dup1\n      0x0100\n      add\n      0x40\n      mstore\n      swap1\n      dup2\n      0x00\n      dup3\n      add\n      dup1\n      sload\n      tag_90\n      swap1\n      tag_62\n      jump\t// in\n    tag_90:\n      dup1\n      0x1f\n      add\n      0x20\n      dup1\n      swap2\n      div\n      mul\n      0x20\n      add\n      mload(0x40)\n      swap1\n      dup2\n      add\n      0x40\n      mstore\n      dup1\n      swap3\n      swap2\n      swap1\n      dup2\n      dup2\n      mstore\n      0x20\n      add\n      dup3\n      dup1\n      sload\n      tag_91\n      swap1\n      tag_62\n      jump\t// in\n    tag_91:\n      dup1\n      iszero\n      tag_92\n      jumpi\n      dup1\n      0x1f\n      lt\n      tag_93\n      jumpi\n      0x0100\n      dup1\n      dup4\n      sload\n      div\n      mul\n      dup4\n      mstore\n      swap2\n      0x20\n      add\n      swap2\n      jump(tag_92)\n    tag_93:\n      dup3\n      add\n      swap2\n      swap1\n      0x00\n      mstore\n      keccak256(0x00, 0x20)\n      swap1\n    tag_94:\n      dup2\n      sload\n      dup2\n      mstore\n      swap1\n      0x01\n      add\n      swap1\n      0x20\n      add\n      dup1\n      dup4\n      gt\n      tag_94\n      jumpi\n      dup3\n      swap1\n      sub\n      0x1f\n      and\n      dup3\n      add\n      swap2\n    tag_92:\n      pop\n      pop\n      pop\n      pop\n      pop\n      dup2\n      mstore\n      0x20\n      add\n      0x01\n      dup3\n      add\n      dup1\n      sload\n      tag_95\n      swap1\n      tag_62\n      jump\t// in\n    tag_95:\n      dup1\n      0x1f\n      add\n      0x20\n      dup1\n      swap2\n      div\n      mul\n      0x20\n      add\n      mload(0x40)\n      swap1\n      dup2\n      add\n      0x40\n      mstore\n      dup1\n      swap3\n      swap2\n      swap1\n      dup2\n      dup2\n      mstore\n      0x20\n      add\n      dup3\n      dup1\n      sload\n      tag_96\n      swap1\n      tag_62\n      jump\t// in\n    tag_96:\n      dup1\n      iszero\n      tag_97\n      jumpi\n      dup1\n      0x1f\n      lt\n      tag_98\n      jumpi\n      0x0100\n      dup1\n      dup4\n      sload\n      div\n      mul\n      dup4\n      mstore\n      swap2\n      0x20\n      add\n      swap2\n      jump(tag_97)\n    tag_98:\n      dup3\n      add\n      swap2\n      swap1\n      0x00\n      mstore\n      keccak256(0x00, 0x20)\n      swap1\n    tag_99:\n      dup2\n      sload\n      dup2\n      mstore\n      swap1\n      0x01\n      add\n      swap1\n      0x20\n      add\n      dup1\n      dup4\n      gt\n      tag_99\n      jumpi\n      dup3\n      swap1\n      sub\n      0x1f\n      and\n      dup3\n      add\n      swap2\n    tag_97:\n      pop\n      pop\n      pop\n      pop\n      pop\n      dup2\n      mstore\n      0x20\n      add\n      0x02\n      dup3\n      add\n      dup1\n      sload\n      tag_100\n      swap1\n      tag_62\n      jump\t// in\n    tag_100:\n      dup1\n      0x1f\n      add\n      0x20\n      dup1\n      swap2\n      div\n      mul\n      0x20\n      add\n      mload(0x40)\n      swap1\n      dup2\n      add\n      0x40\n      mstore\n      dup1\n      swap3\n      swap2\n      swap1\n      dup2\n      dup2\n      mstore\n      0x20\n      add\n      dup3\n      dup1\n      sload\n      tag_101\n      swap1\n      tag_62\n      jump\t// in\n    tag_101:\n      dup1\n      iszero\n      tag_102\n      jumpi\n      dup1\n      0x1f\n      lt\n      tag_103\n      jumpi\n      0x0100\n      dup1\n      dup4\n      sload\n      div\n      mul\n      dup4\n      mstore\n      swap2\n      0x20\n      add\n      swap2\n      jump(tag_102)\n    tag_103:\n      dup3\n      add\n      swap2\n      swap1\n      0x00\n      mstore\n      keccak256(0x00, 0x20)\n      swap1\n    tag_104:\n      dup2\n      sload\n      dup2\n      mstore\n      swap1\n      0x01\n      add\n      swap1\n      0x20\n      add\n      dup1\n      dup4\n      gt\n      tag_104\n      jumpi\n      dup3\n      swap1\n      sub\n      0x1f\n      and\n      dup3\n      add\n      swap2\n    tag_102:\n      pop\n      pop\n      pop\n      pop\n      pop\n      dup2\n      mstore\n      0x20\n      add\n      0x03\n      dup3\n      add\n      0x00\n      swap1\n      sload\n      swap1\n      0x0100\n      exp\n      swap1\n      div\n      0xffffffffffffffffffffffffffffffffffffffff\n      and\n      0xffffffffffffffffffffffffffffffffffffffff\n      and\n      0xffffffffffffffffffffffffffffffffffffffff\n      and\n      dup2\n      mstore\n      0x20\n      add\n      0x04\n      dup3\n      add\n      sload\n      dup2\n      mstore\n      0x20\n      add\n      0x05\n      dup3\n      add\n      0x00\n      swap1\n      sload\n      swap1\n      0x0100\n      exp\n      swap1\n      div\n      0xff\n      and\n      iszero\n      iszero\n      iszero\n      iszero\n      dup2\n      mstore\n      0x20\n      add\n      0x06\n      dup3\n      add\n      sload\n      dup2\n      mstore\n      0x20\n      add\n      0x07\n      dup3\n      add\n      0x00\n      swap1\n      sload\n      swap1\n      0x0100\n      exp\n      swap1\n      div\n      0xff\n      and\n      iszero\n      iszero\n      iszero\n      iszero\n      dup2\n      mstore\n      pop\n      pop\n      swap1\n      pop\n        /* \"ChainOfCustody.sol\":2523:2524  e */\n      dup1\n        /* \"ChainOfCustody.sol\":2523:2527  e.id */\n      0x00\n      add\n      mload\n        /* \"ChainOfCustody.sol\":2542:2543  e */\n      dup2\n        /* \"ChainOfCustody.sol\":2542:2555  e.description */\n      0x40\n      add\n      mload\n        /* \"ChainOfCustody.sol\":2570:2571  e */\n      dup3\n        /* \"ChainOfCustody.sol\":2570:2585  e.currentHolder */\n      0x60\n      add\n      mload\n        /* \"ChainOfCustody.sol\":2600:2601  e */\n      dup4\n        /* \"ChainOfCustody.sol\":2600:2611  e.timestamp */\n      0x80\n      add\n      mload\n        /* \"ChainOfCustody.sol\":2626:2627  e */\n      dup5\n        /* \"ChainOfCustody.sol\":2626:2641  e.escrowEnabled */\n      0xa0\n      add\n      mload\n        /* \"ChainOfCustody.sol\":2656:2657  e */\n      dup6\n        /* \"ChainOfCustody.sol\":2656:2670  e.escrowAmount */\n      0xc0\n      add\n      mload\n        /* \"ChainOfCustody.sol\":2501:2681  return (... */\n      swap8\n      pop\n      swap8\n      pop\n      swap8\n      pop\n      swap8\n      pop\n      swap8\n      pop\n      swap8\n      pop\n      pop\n        /* \"ChainOfCustody.sol\":2171:2689  function getEvidence(string memory _id)... */\n      pop\n      swap2\n      swap4\n      swap6\n      pop\n      swap2\n      swap4\n      swap6\n      jump\t// out\n        /* \"ChainOfCustody.sol\":821:1600  function addEvidence(... */\n    tag_33:\n        /* \"ChainOfCustody.sol\":1011:1020  evidences */\n      0x00\n        /* \"ChainOfCustody.sol\":1021:1024  _id */\n      dup5\n        /* \"ChainOfCustody.sol\":1011:1025  evidences[_id] */\n      mload(0x40)\n      tag_106\n      swap2\n      swap1\n      tag_41\n      jump\t// in\n    tag_106:\n      swap1\n      dup2\n      mstore\n      0x20\n      add\n      mload(0x40)\n      dup1\n      swap2\n      sub\n      swap1\n      keccak256\n        /* \"ChainOfCustody.sol\":1011:1032  evidences[_id].exists */\n      0x07\n      add\n      0x00\n      swap1\n      sload\n      swap1\n      0x0100\n      exp\n      swap1\n      div\n      0xff\n      and\n        /* \"ChainOfCustody.sol\":1010:1032  !evidences[_id].exists */\n      iszero\n        /* \"ChainOfCustody.sol\":1002:1051  require(!evidences[_id].exists, \"Already exists\") */\n      tag_107\n      jumpi\n      mload(0x40)\n      0x08c379a000000000000000000000000000000000000000000000000000000000\n      dup2\n      mstore\n      0x04\n      add\n      tag_108\n      swap1\n      tag_109\n      jump\t// in\n    tag_108:\n      mload(0x40)\n      dup1\n      swap2\n      sub\n      swap1\n      revert\n    tag_107:\n        /* \"ChainOfCustody.sol\":1068:1082  _escrowEnabled */\n      dup1\n        /* \"ChainOfCustody.sol\":1064:1152  if (_escrowEnabled) {... */\n      iszero\n      tag_110\n      jumpi\n        /* \"ChainOfCustody.sol\":1119:1120  0 */\n      0x00\n        /* \"ChainOfCustody.sol\":1107:1116  msg.value */\n      callvalue\n        /* \"ChainOfCustody.sol\":1107:1120  msg.value > 0 */\n      gt\n        /* \"ChainOfCustody.sol\":1099:1140  require(msg.value > 0, \"Escrow required\") */\n      tag_111\n      jumpi\n      mload(0x40)\n      0x08c379a000000000000000000000000000000000000000000000000000000000\n      dup2\n      mstore\n      0x04\n      add\n      tag_112\n      swap1\n      tag_113\n      jump\t// in\n    tag_112:\n      mload(0x40)\n      dup1\n      swap2\n      sub\n      swap1\n      revert\n    tag_111:\n        /* \"ChainOfCustody.sol\":1064:1152  if (_escrowEnabled) {... */\n    tag_110:\n        /* \"ChainOfCustody.sol\":1181:1480  Evidence({... */\n      mload(0x40)\n      dup1\n      0x0100\n      add\n      0x40\n      mstore\n      dup1\n        /* \"ChainOfCustody.sol\":1209:1212  _id */\n      dup6\n        /* \"ChainOfCustody.sol\":1181:1480  Evidence({... */\n      dup2\n      mstore\n      0x20\n      add\n        /* \"ChainOfCustody.sol\":1233:1238  _hash */\n      dup5\n        /* \"ChainOfCustody.sol\":1181:1480  Evidence({... */\n      dup2\n      mstore\n      0x20\n      add\n        /* \"ChainOfCustody.sol\":1266:1278  _description */\n      dup4\n        /* \"ChainOfCustody.sol\":1181:1480  Evidence({... */\n      dup2\n      mstore\n      0x20\n      add\n        /* \"ChainOfCustody.sol\":1308:1318  msg.sender */\n      caller\n        /* \"ChainOfCustody.sol\":1181:1480  Evidence({... */\n      0xffffffffffffffffffffffffffffffffffffffff\n      and\n      dup2\n      mstore\n      0x20\n      add\n        /* \"ChainOfCustody.sol\":1344:1359  block.timestamp */\n      timestamp\n        /* \"ChainOfCustody.sol\":1181:1480  Evidence({... */\n      dup2\n      mstore\n      0x20\n      add\n        /* \"ChainOfCustody.sol\":1389:1403  _escrowEnabled */\n      dup3\n        /* \"ChainOfCustody.sol\":1181:1480  Evidence({... */\n      iszero\n      iszero\n      dup2\n      mstore\n      0x20\n      add\n        /* \"ChainOfCustody.sol\":1432:1441  msg.value */\n      callvalue\n        /* \"ChainOfCustody.sol\":1181:1480  Evidence({... */\n      dup2\n      mstore\n      0x20\n      add\n        /* \"ChainOfCustody.sol\":1464:1468  true */\n      0x01\n        /* \"ChainOfCustody.sol\":1181:1480  Evidence({... */\n      iszero\n      iszero\n      dup2\n      mstore\n      pop\n        /* \"ChainOfCustody.sol\":1164:1173  evidences */\n      0x00\n        /* \"ChainOfCustody.sol\":1174:1177  _id */\n      dup6\n        /* \"ChainOfCustody.sol\":1164:1178  evidences[_id] */\n      mload(0x40)\n      tag_114\n      swap2\n      swap1\n      tag_41\n      jump\t// in\n    tag_114:\n      swap1\n      dup2\n      mstore\n      0x20\n      add\n      mload(0x40)\n      dup1\n      swap2\n      sub\n      swap1\n      keccak256\n        /* \"ChainOfCustody.sol\":1164:1480  evidences[_id] = Evidence({... */\n      0x00\n      dup3\n      add\n      mload\n      dup2\n      0x00\n      add\n      swap1\n      dup2\n      tag_115\n      swap2\n      swap1\n      tag_53\n      jump\t// in\n    tag_115:\n      pop\n      0x20\n      dup3\n      add\n      mload\n      dup2\n      0x01\n      add\n      swap1\n      dup2\n      tag_116\n      swap2\n      swap1\n      tag_53\n      jump\t// in\n    tag_116:\n      pop\n      0x40\n      dup3\n      add\n      mload\n      dup2\n      0x02\n      add\n      swap1\n      dup2\n      tag_117\n      swap2\n      swap1\n      tag_53\n      jump\t// in\n    tag_117:\n      pop\n      0x60\n      dup3\n      add\n      mload\n      dup2\n      0x03\n      add\n      exp(0x0100, 0x00)\n      dup2\n      sload\n      dup2\n      0xffffffffffffffffffffffffffffffffffffffff\n      mul\n      not\n      and\n      swap1\n      dup4\n      0xffffffffffffffffffffffffffffffffffffffff\n      and\n      mul\n      or\n      swap1\n      sstore\n      pop\n      0x80\n      dup3\n      add\n      mload\n      dup2\n      0x04\n      add\n      sstore\n      0xa0\n      dup3\n      add\n      mload\n      dup2\n      0x05\n      add\n      exp(0x0100, 0x00)\n      dup2\n      sload\n      dup2\n      0xff\n      mul\n      not\n      and\n      swap1\n      dup4\n      iszero\n      iszero\n      mul\n      or\n      swap1\n      sstore\n      pop\n      0xc0\n      dup3\n      add\n      mload\n      dup2\n      0x06\n      add\n      sstore\n      0xe0\n      dup3\n      add\n      mload\n      dup2\n      0x07\n      add\n      exp(0x0100, 0x00)\n      dup2\n      sload\n      dup2\n      0xff\n      mul\n      not\n      and\n      swap1\n      dup4\n      iszero\n      iszero\n      mul\n      or\n      swap1\n      sstore\n      pop\n      swap1\n      pop\n      pop\n        /* \"ChainOfCustody.sol\":1493:1497  logs */\n      0x01\n        /* \"ChainOfCustody.sol\":1498:1501  _id */\n      dup5\n        /* \"ChainOfCustody.sol\":1493:1502  logs[_id] */\n      mload(0x40)\n      tag_118\n      swap2\n      swap1\n      tag_41\n      jump\t// in\n    tag_118:\n      swap1\n      dup2\n      mstore\n      0x20\n      add\n      mload(0x40)\n      dup1\n      swap2\n      sub\n      swap1\n      keccak256\n        /* \"ChainOfCustody.sol\":1493:1527  logs[_id].push(\"Evidence Created\") */\n      dup1\n      0x01\n      dup2\n      sload\n      add\n      dup1\n      dup3\n      sstore\n      dup1\n      swap2\n      pop\n      pop\n      0x01\n      swap1\n      sub\n      swap1\n      0x00\n      mstore\n      keccak256(0x00, 0x20)\n      add\n      0x00\n      mload(0x40)\n      dup1\n      0x40\n      add\n      0x40\n      mstore\n      dup1\n      0x10\n      dup2\n      mstore\n      0x20\n      add\n      0x45766964656e6365204372656174656400000000000000000000000000000000\n      dup2\n      mstore\n      pop\n      swap1\n      swap2\n      swap1\n      swap2\n      pop\n      swap1\n      dup2\n      tag_120\n      swap2\n      swap1\n      tag_53\n      jump\t// in\n    tag_120:\n      pop\n        /* \"ChainOfCustody.sol\":1545:1592  EvidenceAdded(_id, msg.sender, block.timestamp) */\n      0x5b3dbb58b6a794aae9133347ea6c3c61ec37c12c1a0ce358aae8518e24cd40c8\n        /* \"ChainOfCustody.sol\":1559:1562  _id */\n      dup5\n        /* \"ChainOfCustody.sol\":1564:1574  msg.sender */\n      caller\n        /* \"ChainOfCustody.sol\":1576:1591  block.timestamp */\n      timestamp\n        /* \"ChainOfCustody.sol\":1545:1592  EvidenceAdded(_id, msg.sender, block.timestamp) */\n      mload(0x40)\n      tag_121\n      swap4\n      swap3\n      swap2\n      swap1\n      tag_122\n      jump\t// in\n    tag_121:\n      mload(0x40)\n      dup1\n      swap2\n      sub\n      swap1\n      log1\n        /* \"ChainOfCustody.sol\":821:1600  function addEvidence(... */\n      pop\n      pop\n      pop\n      pop\n      jump\t// out\n        /* \"ChainOfCustody.sol\":440:460  address public admin */\n    tag_36:\n      0x02\n      0x00\n      swap1\n      sload\n      swap1\n      0x0100\n      exp\n      swap1\n      div\n      0xffffffffffffffffffffffffffffffffffffffff\n      and\n      dup2\n      jump\t// out\n        /* \"#utility.yul\":7:82   */\n    tag_123:\n        /* \"#utility.yul\":40:46   */\n      0x00\n        /* \"#utility.yul\":73:75   */\n      0x40\n        /* \"#utility.yul\":67:76   */\n      mload\n        /* \"#utility.yul\":57:76   */\n      swap1\n      pop\n        /* \"#utility.yul\":7:82   */\n      swap1\n      jump\t// out\n        /* \"#utility.yul\":88:205   */\n    tag_124:\n        /* \"#utility.yul\":197:198   */\n      0x00\n        /* \"#utility.yul\":194:195   */\n      0x00\n        /* \"#utility.yul\":187:199   */\n      revert\n        /* \"#utility.yul\":211:328   */\n    tag_125:\n        /* \"#utility.yul\":320:321   */\n      0x00\n        /* \"#utility.yul\":317:318   */\n      0x00\n        /* \"#utility.yul\":310:322   */\n      revert\n        /* \"#utility.yul\":334:451   */\n    tag_126:\n        /* \"#utility.yul\":443:444   */\n      0x00\n        /* \"#utility.yul\":440:441   */\n      0x00\n        /* \"#utility.yul\":433:445   */\n      revert\n        /* \"#utility.yul\":457:574   */\n    tag_127:\n        /* \"#utility.yul\":566:567   */\n      0x00\n        /* \"#utility.yul\":563:564   */\n      0x00\n        /* \"#utility.yul\":556:568   */\n      revert\n        /* \"#utility.yul\":580:682   */\n    tag_128:\n        /* \"#utility.yul\":621:627   */\n      0x00\n        /* \"#utility.yul\":672:674   */\n      0x1f\n        /* \"#utility.yul\":668:675   */\n      not\n        /* \"#utility.yul\":663:665   */\n      0x1f\n        /* \"#utility.yul\":656:661   */\n      dup4\n        /* \"#utility.yul\":652:666   */\n      add\n        /* \"#utility.yul\":648:676   */\n      and\n        /* \"#utility.yul\":638:676   */\n      swap1\n      pop\n        /* \"#utility.yul\":580:682   */\n      swap2\n      swap1\n      pop\n      jump\t// out\n        /* \"#utility.yul\":688:868   */\n    tag_129:\n        /* \"#utility.yul\":736:813   */\n      0x4e487b7100000000000000000000000000000000000000000000000000000000\n        /* \"#utility.yul\":733:734   */\n      0x00\n        /* \"#utility.yul\":726:814   */\n      mstore\n        /* \"#utility.yul\":833:837   */\n      0x41\n        /* \"#utility.yul\":830:831   */\n      0x04\n        /* \"#utility.yul\":823:838   */\n      mstore\n        /* \"#utility.yul\":857:861   */\n      0x24\n        /* \"#utility.yul\":854:855   */\n      0x00\n        /* \"#utility.yul\":847:862   */\n      revert\n        /* \"#utility.yul\":874:1155   */\n    tag_130:\n        /* \"#utility.yul\":957:984   */\n      tag_200\n        /* \"#utility.yul\":979:983   */\n      dup3\n        /* \"#utility.yul\":957:984   */\n      tag_128\n      jump\t// in\n    tag_200:\n        /* \"#utility.yul\":949:955   */\n      dup2\n        /* \"#utility.yul\":945:985   */\n      add\n        /* \"#utility.yul\":1087:1093   */\n      dup2\n        /* \"#utility.yul\":1075:1085   */\n      dup2\n        /* \"#utility.yul\":1072:1094   */\n      lt\n        /* \"#utility.yul\":1051:1069   */\n      0xffffffffffffffff\n        /* \"#utility.yul\":1039:1049   */\n      dup3\n        /* \"#utility.yul\":1036:1070   */\n      gt\n        /* \"#utility.yul\":1033:1095   */\n      or\n        /* \"#utility.yul\":1030:1118   */\n      iszero\n      tag_201\n      jumpi\n        /* \"#utility.yul\":1098:1116   */\n      tag_202\n      tag_129\n      jump\t// in\n    tag_202:\n        /* \"#utility.yul\":1030:1118   */\n    tag_201:\n        /* \"#utility.yul\":1138:1148   */\n      dup1\n        /* \"#utility.yul\":1134:1136   */\n      0x40\n        /* \"#utility.yul\":1127:1149   */\n      mstore\n        /* \"#utility.yul\":917:1155   */\n      pop\n        /* \"#utility.yul\":874:1155   */\n      pop\n      pop\n      jump\t// out\n        /* \"#utility.yul\":1161:1290   */\n    tag_131:\n        /* \"#utility.yul\":1195:1201   */\n      0x00\n        /* \"#utility.yul\":1222:1242   */\n      tag_204\n      tag_123\n      jump\t// in\n    tag_204:\n        /* \"#utility.yul\":1212:1242   */\n      swap1\n      pop\n        /* \"#utility.yul\":1251:1284   */\n      tag_205\n        /* \"#utility.yul\":1279:1283   */\n      dup3\n        /* \"#utility.yul\":1271:1277   */\n      dup3\n        /* \"#utility.yul\":1251:1284   */\n      tag_130\n      jump\t// in\n    tag_205:\n        /* \"#utility.yul\":1161:1290   */\n      swap2\n      swap1\n      pop\n      jump\t// out\n        /* \"#utility.yul\":1296:1604   */\n    tag_132:\n        /* \"#utility.yul\":1358:1362   */\n      0x00\n        /* \"#utility.yul\":1448:1466   */\n      0xffffffffffffffff\n        /* \"#utility.yul\":1440:1446   */\n      dup3\n        /* \"#utility.yul\":1437:1467   */\n      gt\n        /* \"#utility.yul\":1434:1490   */\n      iszero\n      tag_207\n      jumpi\n        /* \"#utility.yul\":1470:1488   */\n      tag_208\n      tag_129\n      jump\t// in\n    tag_208:\n        /* \"#utility.yul\":1434:1490   */\n    tag_207:\n        /* \"#utility.yul\":1508:1537   */\n      tag_209\n        /* \"#utility.yul\":1530:1536   */\n      dup3\n        /* \"#utility.yul\":1508:1537   */\n      tag_128\n      jump\t// in\n    tag_209:\n        /* \"#utility.yul\":1500:1537   */\n      swap1\n      pop\n        /* \"#utility.yul\":1592:1596   */\n      0x20\n        /* \"#utility.yul\":1586:1590   */\n      dup2\n        /* \"#utility.yul\":1582:1597   */\n      add\n        /* \"#utility.yul\":1574:1597   */\n      swap1\n      pop\n        /* \"#utility.yul\":1296:1604   */\n      swap2\n      swap1\n      pop\n      jump\t// out\n        /* \"#utility.yul\":1610:1758   */\n    tag_133:\n        /* \"#utility.yul\":1708:1714   */\n      dup3\n        /* \"#utility.yul\":1703:1706   */\n      dup2\n        /* \"#utility.yul\":1698:1701   */\n      dup4\n        /* \"#utility.yul\":1685:1715   */\n      calldatacopy\n        /* \"#utility.yul\":1749:1750   */\n      0x00\n        /* \"#utility.yul\":1740:1746   */\n      dup4\n        /* \"#utility.yul\":1735:1738   */\n      dup4\n        /* \"#utility.yul\":1731:1747   */\n      add\n        /* \"#utility.yul\":1724:1751   */\n      mstore\n        /* \"#utility.yul\":1610:1758   */\n      pop\n      pop\n      pop\n      jump\t// out\n        /* \"#utility.yul\":1764:2189   */\n    tag_134:\n        /* \"#utility.yul\":1842:1847   */\n      0x00\n        /* \"#utility.yul\":1867:1933   */\n      tag_212\n        /* \"#utility.yul\":1883:1932   */\n      tag_213\n        /* \"#utility.yul\":1925:1931   */\n      dup5\n        /* \"#utility.yul\":1883:1932   */\n      tag_132\n      jump\t// in\n    tag_213:\n        /* \"#utility.yul\":1867:1933   */\n      tag_131\n      jump\t// in\n    tag_212:\n        /* \"#utility.yul\":1858:1933   */\n      swap1\n      pop\n        /* \"#utility.yul\":1956:1962   */\n      dup3\n        /* \"#utility.yul\":1949:1954   */\n      dup2\n        /* \"#utility.yul\":1942:1963   */\n      mstore\n        /* \"#utility.yul\":1994:1998   */\n      0x20\n        /* \"#utility.yul\":1987:1992   */\n      dup2\n        /* \"#utility.yul\":1983:1999   */\n      add\n        /* \"#utility.yul\":2032:2035   */\n      dup5\n        /* \"#utility.yul\":2023:2029   */\n      dup5\n        /* \"#utility.yul\":2018:2021   */\n      dup5\n        /* \"#utility.yul\":2014:2030   */\n      add\n        /* \"#utility.yul\":2011:2036   */\n      gt\n        /* \"#utility.yul\":2008:2120   */\n      iszero\n      tag_214\n      jumpi\n        /* \"#utility.yul\":2039:2118   */\n      tag_215\n      tag_127\n      jump\t// in\n    tag_215:\n        /* \"#utility.yul\":2008:2120   */\n    tag_214:\n        /* \"#utility.yul\":2129:2183   */\n      tag_216\n        /* \"#utility.yul\":2176:2182   */\n      dup5\n        /* \"#utility.yul\":2171:2174   */\n      dup3\n        /* \"#utility.yul\":2166:2169   */\n      dup6\n        /* \"#utility.yul\":2129:2183   */\n      tag_133\n      jump\t// in\n    tag_216:\n        /* \"#utility.yul\":1848:2189   */\n      pop\n        /* \"#utility.yul\":1764:2189   */\n      swap4\n      swap3\n      pop\n      pop\n      pop\n      jump\t// out\n        /* \"#utility.yul\":2209:2549   */\n    tag_135:\n        /* \"#utility.yul\":2265:2270   */\n      0x00\n        /* \"#utility.yul\":2314:2317   */\n      dup3\n        /* \"#utility.yul\":2307:2311   */\n      0x1f\n        /* \"#utility.yul\":2299:2305   */\n      dup4\n        /* \"#utility.yul\":2295:2312   */\n      add\n        /* \"#utility.yul\":2291:2318   */\n      slt\n        /* \"#utility.yul\":2281:2403   */\n      tag_218\n      jumpi\n        /* \"#utility.yul\":2322:2401   */\n      tag_219\n      tag_126\n      jump\t// in\n    tag_219:\n        /* \"#utility.yul\":2281:2403   */\n    tag_218:\n        /* \"#utility.yul\":2439:2445   */\n      dup2\n        /* \"#utility.yul\":2426:2446   */\n      calldataload\n        /* \"#utility.yul\":2464:2543   */\n      tag_220\n        /* \"#utility.yul\":2539:2542   */\n      dup5\n        /* \"#utility.yul\":2531:2537   */\n      dup3\n        /* \"#utility.yul\":2524:2528   */\n      0x20\n        /* \"#utility.yul\":2516:2522   */\n      dup7\n        /* \"#utility.yul\":2512:2529   */\n      add\n        /* \"#utility.yul\":2464:2543   */\n      tag_134\n      jump\t// in\n    tag_220:\n        /* \"#utility.yul\":2455:2543   */\n      swap2\n      pop\n        /* \"#utility.yul\":2271:2549   */\n      pop\n        /* \"#utility.yul\":2209:2549   */\n      swap3\n      swap2\n      pop\n      pop\n      jump\t// out\n        /* \"#utility.yul\":2555:2681   */\n    tag_136:\n        /* \"#utility.yul\":2592:2599   */\n      0x00\n        /* \"#utility.yul\":2632:2674   */\n      0xffffffffffffffffffffffffffffffffffffffff\n        /* \"#utility.yul\":2625:2630   */\n      dup3\n        /* \"#utility.yul\":2621:2675   */\n      and\n        /* \"#utility.yul\":2610:2675   */\n      swap1\n      pop\n        /* \"#utility.yul\":2555:2681   */\n      swap2\n      swap1\n      pop\n      jump\t// out\n        /* \"#utility.yul\":2687:2783   */\n    tag_137:\n        /* \"#utility.yul\":2724:2731   */\n      0x00\n        /* \"#utility.yul\":2753:2777   */\n      tag_223\n        /* \"#utility.yul\":2771:2776   */\n      dup3\n        /* \"#utility.yul\":2753:2777   */\n      tag_136\n      jump\t// in\n    tag_223:\n        /* \"#utility.yul\":2742:2777   */\n      swap1\n      pop\n        /* \"#utility.yul\":2687:2783   */\n      swap2\n      swap1\n      pop\n      jump\t// out\n        /* \"#utility.yul\":2789:2911   */\n    tag_138:\n        /* \"#utility.yul\":2862:2886   */\n      tag_225\n        /* \"#utility.yul\":2880:2885   */\n      dup2\n        /* \"#utility.yul\":2862:2886   */\n      tag_137\n      jump\t// in\n    tag_225:\n        /* \"#utility.yul\":2855:2860   */\n      dup2\n        /* \"#utility.yul\":2852:2887   */\n      eq\n        /* \"#utility.yul\":2842:2905   */\n      tag_226\n      jumpi\n        /* \"#utility.yul\":2901:2902   */\n      0x00\n        /* \"#utility.yul\":2898:2899   */\n      0x00\n        /* \"#utility.yul\":2891:2903   */\n      revert\n        /* \"#utility.yul\":2842:2905   */\n    tag_226:\n        /* \"#utility.yul\":2789:2911   */\n      pop\n      jump\t// out\n        /* \"#utility.yul\":2917:3056   */\n    tag_139:\n        /* \"#utility.yul\":2963:2968   */\n      0x00\n        /* \"#utility.yul\":3001:3007   */\n      dup2\n        /* \"#utility.yul\":2988:3008   */\n      calldataload\n        /* \"#utility.yul\":2979:3008   */\n      swap1\n      pop\n        /* \"#utility.yul\":3017:3050   */\n      tag_228\n        /* \"#utility.yul\":3044:3049   */\n      dup2\n        /* \"#utility.yul\":3017:3050   */\n      tag_138\n      jump\t// in\n    tag_228:\n        /* \"#utility.yul\":2917:3056   */\n      swap3\n      swap2\n      pop\n      pop\n      jump\t// out\n        /* \"#utility.yul\":3062:3716   */\n    tag_11:\n        /* \"#utility.yul\":3140:3146   */\n      0x00\n        /* \"#utility.yul\":3148:3154   */\n      0x00\n        /* \"#utility.yul\":3197:3199   */\n      0x40\n        /* \"#utility.yul\":3185:3194   */\n      dup4\n        /* \"#utility.yul\":3176:3183   */\n      dup6\n        /* \"#utility.yul\":3172:3195   */\n      sub\n        /* \"#utility.yul\":3168:3200   */\n      slt\n        /* \"#utility.yul\":3165:3284   */\n      iszero\n      tag_230\n      jumpi\n        /* \"#utility.yul\":3203:3282   */\n      tag_231\n      tag_124\n      jump\t// in\n    tag_231:\n        /* \"#utility.yul\":3165:3284   */\n    tag_230:\n        /* \"#utility.yul\":3351:3352   */\n      0x00\n        /* \"#utility.yul\":3340:3349   */\n      dup4\n        /* \"#utility.yul\":3336:3353   */\n      add\n        /* \"#utility.yul\":3323:3354   */\n      calldataload\n        /* \"#utility.yul\":3381:3399   */\n      0xffffffffffffffff\n        /* \"#utility.yul\":3373:3379   */\n      dup2\n        /* \"#utility.yul\":3370:3400   */\n      gt\n        /* \"#utility.yul\":3367:3484   */\n      iszero\n      tag_232\n      jumpi\n        /* \"#utility.yul\":3403:3482   */\n      tag_233\n      tag_125\n      jump\t// in\n    tag_233:\n        /* \"#utility.yul\":3367:3484   */\n    tag_232:\n        /* \"#utility.yul\":3508:3571   */\n      tag_234\n        /* \"#utility.yul\":3563:3570   */\n      dup6\n        /* \"#utility.yul\":3554:3560   */\n      dup3\n        /* \"#utility.yul\":3543:3552   */\n      dup7\n        /* \"#utility.yul\":3539:3561   */\n      add\n        /* \"#utility.yul\":3508:3571   */\n      tag_135\n      jump\t// in\n    tag_234:\n        /* \"#utility.yul\":3498:3571   */\n      swap3\n      pop\n        /* \"#utility.yul\":3294:3581   */\n      pop\n        /* \"#utility.yul\":3620:3622   */\n      0x20\n        /* \"#utility.yul\":3646:3699   */\n      tag_235\n        /* \"#utility.yul\":3691:3698   */\n      dup6\n        /* \"#utility.yul\":3682:3688   */\n      dup3\n        /* \"#utility.yul\":3671:3680   */\n      dup7\n        /* \"#utility.yul\":3667:3689   */\n      add\n        /* \"#utility.yul\":3646:3699   */\n      tag_139\n      jump\t// in\n    tag_235:\n        /* \"#utility.yul\":3636:3699   */\n      swap2\n      pop\n        /* \"#utility.yul\":3591:3709   */\n      pop\n        /* \"#utility.yul\":3062:3716   */\n      swap3\n      pop\n      swap3\n      swap1\n      pop\n      jump\t// out\n        /* \"#utility.yul\":3722:4231   */\n    tag_16:\n        /* \"#utility.yul\":3791:3797   */\n      0x00\n        /* \"#utility.yul\":3840:3842   */\n      0x20\n        /* \"#utility.yul\":3828:3837   */\n      dup3\n        /* \"#utility.yul\":3819:3826   */\n      dup5\n        /* \"#utility.yul\":3815:3838   */\n      sub\n        /* \"#utility.yul\":3811:3843   */\n      slt\n        /* \"#utility.yul\":3808:3927   */\n      iszero\n      tag_237\n      jumpi\n        /* \"#utility.yul\":3846:3925   */\n      tag_238\n      tag_124\n      jump\t// in\n    tag_238:\n        /* \"#utility.yul\":3808:3927   */\n    tag_237:\n        /* \"#utility.yul\":3994:3995   */\n      0x00\n        /* \"#utility.yul\":3983:3992   */\n      dup3\n        /* \"#utility.yul\":3979:3996   */\n      add\n        /* \"#utility.yul\":3966:3997   */\n      calldataload\n        /* \"#utility.yul\":4024:4042   */\n      0xffffffffffffffff\n        /* \"#utility.yul\":4016:4022   */\n      dup2\n        /* \"#utility.yul\":4013:4043   */\n      gt\n        /* \"#utility.yul\":4010:4127   */\n      iszero\n      tag_239\n      jumpi\n        /* \"#utility.yul\":4046:4125   */\n      tag_240\n      tag_125\n      jump\t// in\n    tag_240:\n        /* \"#utility.yul\":4010:4127   */\n    tag_239:\n        /* \"#utility.yul\":4151:4214   */\n      tag_241\n        /* \"#utility.yul\":4206:4213   */\n      dup5\n        /* \"#utility.yul\":4197:4203   */\n      dup3\n        /* \"#utility.yul\":4186:4195   */\n      dup6\n        /* \"#utility.yul\":4182:4204   */\n      add\n        /* \"#utility.yul\":4151:4214   */\n      tag_135\n      jump\t// in\n    tag_241:\n        /* \"#utility.yul\":4141:4214   */\n      swap2\n      pop\n        /* \"#utility.yul\":3937:4224   */\n      pop\n        /* \"#utility.yul\":3722:4231   */\n      swap3\n      swap2\n      pop\n      pop\n      jump\t// out\n        /* \"#utility.yul\":4237:4361   */\n    tag_140:\n        /* \"#utility.yul\":4314:4320   */\n      0x00\n        /* \"#utility.yul\":4348:4353   */\n      dup2\n        /* \"#utility.yul\":4342:4354   */\n      mload\n        /* \"#utility.yul\":4332:4354   */\n      swap1\n      pop\n        /* \"#utility.yul\":4237:4361   */\n      swap2\n      swap1\n      pop\n      jump\t// out\n        /* \"#utility.yul\":4367:4561   */\n    tag_141:\n        /* \"#utility.yul\":4476:4487   */\n      0x00\n        /* \"#utility.yul\":4510:4516   */\n      dup3\n        /* \"#utility.yul\":4505:4508   */\n      dup3\n        /* \"#utility.yul\":4498:4517   */\n      mstore\n        /* \"#utility.yul\":4550:4554   */\n      0x20\n        /* \"#utility.yul\":4545:4548   */\n      dup3\n        /* \"#utility.yul\":4541:4555   */\n      add\n        /* \"#utility.yul\":4526:4555   */\n      swap1\n      pop\n        /* \"#utility.yul\":4367:4561   */\n      swap3\n      swap2\n      pop\n      pop\n      jump\t// out\n        /* \"#utility.yul\":4567:4709   */\n    tag_142:\n        /* \"#utility.yul\":4644:4648   */\n      0x00\n        /* \"#utility.yul\":4667:4670   */\n      dup2\n        /* \"#utility.yul\":4659:4670   */\n      swap1\n      pop\n        /* \"#utility.yul\":4697:4701   */\n      0x20\n        /* \"#utility.yul\":4692:4695   */\n      dup3\n        /* \"#utility.yul\":4688:4702   */\n      add\n        /* \"#utility.yul\":4680:4702   */\n      swap1\n      pop\n        /* \"#utility.yul\":4567:4709   */\n      swap2\n      swap1\n      pop\n      jump\t// out\n        /* \"#utility.yul\":4715:4814   */\n    tag_143:\n        /* \"#utility.yul\":4767:4773   */\n      0x00\n        /* \"#utility.yul\":4801:4806   */\n      dup2\n        /* \"#utility.yul\":4795:4807   */\n      mload\n        /* \"#utility.yul\":4785:4807   */\n      swap1\n      pop\n        /* \"#utility.yul\":4715:4814   */\n      swap2\n      swap1\n      pop\n      jump\t// out\n        /* \"#utility.yul\":4820:4979   */\n    tag_144:\n        /* \"#utility.yul\":4894:4905   */\n      0x00\n        /* \"#utility.yul\":4928:4934   */\n      dup3\n        /* \"#utility.yul\":4923:4926   */\n      dup3\n        /* \"#utility.yul\":4916:4935   */\n      mstore\n        /* \"#utility.yul\":4968:4972   */\n      0x20\n        /* \"#utility.yul\":4963:4966   */\n      dup3\n        /* \"#utility.yul\":4959:4973   */\n      add\n        /* \"#utility.yul\":4944:4973   */\n      swap1\n      pop\n        /* \"#utility.yul\":4820:4979   */\n      swap3\n      swap2\n      pop\n      pop\n      jump\t// out\n        /* \"#utility.yul\":4985:5124   */\n    tag_145:\n        /* \"#utility.yul\":5074:5080   */\n      dup3\n        /* \"#utility.yul\":5069:5072   */\n      dup2\n        /* \"#utility.yul\":5064:5067   */\n      dup4\n        /* \"#utility.yul\":5058:5081   */\n      mcopy\n        /* \"#utility.yul\":5115:5116   */\n      0x00\n        /* \"#utility.yul\":5106:5112   */\n      dup4\n        /* \"#utility.yul\":5101:5104   */\n      dup4\n        /* \"#utility.yul\":5097:5113   */\n      add\n        /* \"#utility.yul\":5090:5117   */\n      mstore\n        /* \"#utility.yul\":4985:5124   */\n      pop\n      pop\n      pop\n      jump\t// out\n        /* \"#utility.yul\":5130:5487   */\n    tag_146:\n        /* \"#utility.yul\":5208:5211   */\n      0x00\n        /* \"#utility.yul\":5236:5275   */\n      tag_249\n        /* \"#utility.yul\":5269:5274   */\n      dup3\n        /* \"#utility.yul\":5236:5275   */\n      tag_143\n      jump\t// in\n    tag_249:\n        /* \"#utility.yul\":5291:5352   */\n      tag_250\n        /* \"#utility.yul\":5345:5351   */\n      dup2\n        /* \"#utility.yul\":5340:5343   */\n      dup6\n        /* \"#utility.yul\":5291:5352   */\n      tag_144\n      jump\t// in\n    tag_250:\n        /* \"#utility.yul\":5284:5352   */\n      swap4\n      pop\n        /* \"#utility.yul\":5361:5426   */\n      tag_251\n        /* \"#utility.yul\":5419:5425   */\n      dup2\n        /* \"#utility.yul\":5414:5417   */\n      dup6\n        /* \"#utility.yul\":5407:5411   */\n      0x20\n        /* \"#utility.yul\":5400:5405   */\n      dup7\n        /* \"#utility.yul\":5396:5412   */\n      add\n        /* \"#utility.yul\":5361:5426   */\n      tag_145\n      jump\t// in\n    tag_251:\n        /* \"#utility.yul\":5451:5480   */\n      tag_252\n        /* \"#utility.yul\":5473:5479   */\n      dup2\n        /* \"#utility.yul\":5451:5480   */\n      tag_128\n      jump\t// in\n    tag_252:\n        /* \"#utility.yul\":5446:5449   */\n      dup5\n        /* \"#utility.yul\":5442:5481   */\n      add\n        /* \"#utility.yul\":5435:5481   */\n      swap2\n      pop\n        /* \"#utility.yul\":5212:5487   */\n      pop\n        /* \"#utility.yul\":5130:5487   */\n      swap3\n      swap2\n      pop\n      pop\n      jump\t// out\n        /* \"#utility.yul\":5493:5689   */\n    tag_147:\n        /* \"#utility.yul\":5582:5592   */\n      0x00\n        /* \"#utility.yul\":5617:5683   */\n      tag_254\n        /* \"#utility.yul\":5679:5682   */\n      dup4\n        /* \"#utility.yul\":5671:5677   */\n      dup4\n        /* \"#utility.yul\":5617:5683   */\n      tag_146\n      jump\t// in\n    tag_254:\n        /* \"#utility.yul\":5603:5683   */\n      swap1\n      pop\n        /* \"#utility.yul\":5493:5689   */\n      swap3\n      swap2\n      pop\n      pop\n      jump\t// out\n        /* \"#utility.yul\":5695:5818   */\n    tag_148:\n        /* \"#utility.yul\":5775:5779   */\n      0x00\n        /* \"#utility.yul\":5807:5811   */\n      0x20\n        /* \"#utility.yul\":5802:5805   */\n      dup3\n        /* \"#utility.yul\":5798:5812   */\n      add\n        /* \"#utility.yul\":5790:5812   */\n      swap1\n      pop\n        /* \"#utility.yul\":5695:5818   */\n      swap2\n      swap1\n      pop\n      jump\t// out\n        /* \"#utility.yul\":5852:6843   */\n    tag_149:\n        /* \"#utility.yul\":5991:5994   */\n      0x00\n        /* \"#utility.yul\":6020:6084   */\n      tag_257\n        /* \"#utility.yul\":6078:6083   */\n      dup3\n        /* \"#utility.yul\":6020:6084   */\n      tag_140\n      jump\t// in\n    tag_257:\n        /* \"#utility.yul\":6100:6196   */\n      tag_258\n        /* \"#utility.yul\":6189:6195   */\n      dup2\n        /* \"#utility.yul\":6184:6187   */\n      dup6\n        /* \"#utility.yul\":6100:6196   */\n      tag_141\n      jump\t// in\n    tag_258:\n        /* \"#utility.yul\":6093:6196   */\n      swap4\n      pop\n        /* \"#utility.yul\":6222:6225   */\n      dup4\n        /* \"#utility.yul\":6267:6271   */\n      0x20\n        /* \"#utility.yul\":6259:6265   */\n      dup3\n        /* \"#utility.yul\":6255:6272   */\n      mul\n        /* \"#utility.yul\":6250:6253   */\n      dup6\n        /* \"#utility.yul\":6246:6273   */\n      add\n        /* \"#utility.yul\":6297:6363   */\n      tag_259\n        /* \"#utility.yul\":6357:6362   */\n      dup6\n        /* \"#utility.yul\":6297:6363   */\n      tag_142\n      jump\t// in\n    tag_259:\n        /* \"#utility.yul\":6386:6393   */\n      dup1\n        /* \"#utility.yul\":6417:6418   */\n      0x00\n        /* \"#utility.yul\":6402:6798   */\n    tag_260:\n        /* \"#utility.yul\":6427:6433   */\n      dup6\n        /* \"#utility.yul\":6424:6425   */\n      dup2\n        /* \"#utility.yul\":6421:6434   */\n      lt\n        /* \"#utility.yul\":6402:6798   */\n      iszero\n      tag_262\n      jumpi\n        /* \"#utility.yul\":6498:6507   */\n      dup5\n        /* \"#utility.yul\":6492:6496   */\n      dup5\n        /* \"#utility.yul\":6488:6508   */\n      sub\n        /* \"#utility.yul\":6483:6486   */\n      dup10\n        /* \"#utility.yul\":6476:6509   */\n      mstore\n        /* \"#utility.yul\":6549:6555   */\n      dup2\n        /* \"#utility.yul\":6543:6556   */\n      mload\n        /* \"#utility.yul\":6577:6661   */\n      tag_263\n        /* \"#utility.yul\":6656:6660   */\n      dup6\n        /* \"#utility.yul\":6641:6654   */\n      dup3\n        /* \"#utility.yul\":6577:6661   */\n      tag_147\n      jump\t// in\n    tag_263:\n        /* \"#utility.yul\":6569:6661   */\n      swap5\n      pop\n        /* \"#utility.yul\":6684:6754   */\n      tag_264\n        /* \"#utility.yul\":6747:6753   */\n      dup4\n        /* \"#utility.yul\":6684:6754   */\n      tag_148\n      jump\t// in\n    tag_264:\n        /* \"#utility.yul\":6674:6754   */\n      swap3\n      pop\n        /* \"#utility.yul\":6783:6787   */\n      0x20\n        /* \"#utility.yul\":6778:6781   */\n      dup11\n        /* \"#utility.yul\":6774:6788   */\n      add\n        /* \"#utility.yul\":6767:6788   */\n      swap10\n      pop\n        /* \"#utility.yul\":6462:6798   */\n      pop\n        /* \"#utility.yul\":6449:6450   */\n      0x01\n        /* \"#utility.yul\":6446:6447   */\n      dup2\n        /* \"#utility.yul\":6442:6451   */\n      add\n        /* \"#utility.yul\":6437:6451   */\n      swap1\n      pop\n        /* \"#utility.yul\":6402:6798   */\n      jump(tag_260)\n    tag_262:\n        /* \"#utility.yul\":6406:6420   */\n      pop\n        /* \"#utility.yul\":6814:6818   */\n      dup3\n        /* \"#utility.yul\":6807:6818   */\n      swap8\n      pop\n        /* \"#utility.yul\":6834:6837   */\n      dup8\n        /* \"#utility.yul\":6827:6837   */\n      swap6\n      pop\n        /* \"#utility.yul\":5996:6843   */\n      pop\n      pop\n      pop\n      pop\n      pop\n        /* \"#utility.yul\":5852:6843   */\n      swap3\n      swap2\n      pop\n      pop\n      jump\t// out\n        /* \"#utility.yul\":6849:7262   */\n    tag_19:\n        /* \"#utility.yul\":7012:7016   */\n      0x00\n        /* \"#utility.yul\":7050:7052   */\n      0x20\n        /* \"#utility.yul\":7039:7048   */\n      dup3\n        /* \"#utility.yul\":7035:7053   */\n      add\n        /* \"#utility.yul\":7027:7053   */\n      swap1\n      pop\n        /* \"#utility.yul\":7099:7108   */\n      dup2\n        /* \"#utility.yul\":7093:7097   */\n      dup2\n        /* \"#utility.yul\":7089:7109   */\n      sub\n        /* \"#utility.yul\":7085:7086   */\n      0x00\n        /* \"#utility.yul\":7074:7083   */\n      dup4\n        /* \"#utility.yul\":7070:7087   */\n      add\n        /* \"#utility.yul\":7063:7110   */\n      mstore\n        /* \"#utility.yul\":7127:7255   */\n      tag_266\n        /* \"#utility.yul\":7250:7254   */\n      dup2\n        /* \"#utility.yul\":7241:7247   */\n      dup5\n        /* \"#utility.yul\":7127:7255   */\n      tag_149\n      jump\t// in\n    tag_266:\n        /* \"#utility.yul\":7119:7255   */\n      swap1\n      pop\n        /* \"#utility.yul\":6849:7262   */\n      swap3\n      swap2\n      pop\n      pop\n      jump\t// out\n        /* \"#utility.yul\":7268:7437   */\n    tag_150:\n        /* \"#utility.yul\":7352:7363   */\n      0x00\n        /* \"#utility.yul\":7386:7392   */\n      dup3\n        /* \"#utility.yul\":7381:7384   */\n      dup3\n        /* \"#utility.yul\":7374:7393   */\n      mstore\n        /* \"#utility.yul\":7426:7430   */\n      0x20\n        /* \"#utility.yul\":7421:7424   */\n      dup3\n        /* \"#utility.yul\":7417:7431   */\n      add\n        /* \"#utility.yul\":7402:7431   */\n      swap1\n      pop\n        /* \"#utility.yul\":7268:7437   */\n      swap3\n      swap2\n      pop\n      pop\n      jump\t// out\n        /* \"#utility.yul\":7443:7820   */\n    tag_151:\n        /* \"#utility.yul\":7531:7534   */\n      0x00\n        /* \"#utility.yul\":7559:7598   */\n      tag_269\n        /* \"#utility.yul\":7592:7597   */\n      dup3\n        /* \"#utility.yul\":7559:7598   */\n      tag_143\n      jump\t// in\n    tag_269:\n        /* \"#utility.yul\":7614:7685   */\n      tag_270\n        /* \"#utility.yul\":7678:7684   */\n      dup2\n        /* \"#utility.yul\":7673:7676   */\n      dup6\n        /* \"#utility.yul\":7614:7685   */\n      tag_150\n      jump\t// in\n    tag_270:\n        /* \"#utility.yul\":7607:7685   */\n      swap4\n      pop\n        /* \"#utility.yul\":7694:7759   */\n      tag_271\n        /* \"#utility.yul\":7752:7758   */\n      dup2\n        /* \"#utility.yul\":7747:7750   */\n      dup6\n        /* \"#utility.yul\":7740:7744   */\n      0x20\n        /* \"#utility.yul\":7733:7738   */\n      dup7\n        /* \"#utility.yul\":7729:7745   */\n      add\n        /* \"#utility.yul\":7694:7759   */\n      tag_145\n      jump\t// in\n    tag_271:\n        /* \"#utility.yul\":7784:7813   */\n      tag_272\n        /* \"#utility.yul\":7806:7812   */\n      dup2\n        /* \"#utility.yul\":7784:7813   */\n      tag_128\n      jump\t// in\n    tag_272:\n        /* \"#utility.yul\":7779:7782   */\n      dup5\n        /* \"#utility.yul\":7775:7814   */\n      add\n        /* \"#utility.yul\":7768:7814   */\n      swap2\n      pop\n        /* \"#utility.yul\":7535:7820   */\n      pop\n        /* \"#utility.yul\":7443:7820   */\n      swap3\n      swap2\n      pop\n      pop\n      jump\t// out\n        /* \"#utility.yul\":7826:7944   */\n    tag_152:\n        /* \"#utility.yul\":7913:7937   */\n      tag_274\n        /* \"#utility.yul\":7931:7936   */\n      dup2\n        /* \"#utility.yul\":7913:7937   */\n      tag_137\n      jump\t// in\n    tag_274:\n        /* \"#utility.yul\":7908:7911   */\n      dup3\n        /* \"#utility.yul\":7901:7938   */\n      mstore\n        /* \"#utility.yul\":7826:7944   */\n      pop\n      pop\n      jump\t// out\n        /* \"#utility.yul\":7950:8027   */\n    tag_153:\n        /* \"#utility.yul\":7987:7994   */\n      0x00\n        /* \"#utility.yul\":8016:8021   */\n      dup2\n        /* \"#utility.yul\":8005:8021   */\n      swap1\n      pop\n        /* \"#utility.yul\":7950:8027   */\n      swap2\n      swap1\n      pop\n      jump\t// out\n        /* \"#utility.yul\":8033:8151   */\n    tag_154:\n        /* \"#utility.yul\":8120:8144   */\n      tag_277\n        /* \"#utility.yul\":8138:8143   */\n      dup2\n        /* \"#utility.yul\":8120:8144   */\n      tag_153\n      jump\t// in\n    tag_277:\n        /* \"#utility.yul\":8115:8118   */\n      dup3\n        /* \"#utility.yul\":8108:8145   */\n      mstore\n        /* \"#utility.yul\":8033:8151   */\n      pop\n      pop\n      jump\t// out\n        /* \"#utility.yul\":8157:8247   */\n    tag_155:\n        /* \"#utility.yul\":8191:8198   */\n      0x00\n        /* \"#utility.yul\":8234:8239   */\n      dup2\n        /* \"#utility.yul\":8227:8240   */\n      iszero\n        /* \"#utility.yul\":8220:8241   */\n      iszero\n        /* \"#utility.yul\":8209:8241   */\n      swap1\n      pop\n        /* \"#utility.yul\":8157:8247   */\n      swap2\n      swap1\n      pop\n      jump\t// out\n        /* \"#utility.yul\":8253:8362   */\n    tag_156:\n        /* \"#utility.yul\":8334:8355   */\n      tag_280\n        /* \"#utility.yul\":8349:8354   */\n      dup2\n        /* \"#utility.yul\":8334:8355   */\n      tag_155\n      jump\t// in\n    tag_280:\n        /* \"#utility.yul\":8329:8332   */\n      dup3\n        /* \"#utility.yul\":8322:8356   */\n      mstore\n        /* \"#utility.yul\":8253:8362   */\n      pop\n      pop\n      jump\t// out\n        /* \"#utility.yul\":8368:9313   */\n    tag_29:\n        /* \"#utility.yul\":8635:8639   */\n      0x00\n        /* \"#utility.yul\":8673:8676   */\n      0xc0\n        /* \"#utility.yul\":8662:8671   */\n      dup3\n        /* \"#utility.yul\":8658:8677   */\n      add\n        /* \"#utility.yul\":8650:8677   */\n      swap1\n      pop\n        /* \"#utility.yul\":8723:8732   */\n      dup2\n        /* \"#utility.yul\":8717:8721   */\n      dup2\n        /* \"#utility.yul\":8713:8733   */\n      sub\n        /* \"#utility.yul\":8709:8710   */\n      0x00\n        /* \"#utility.yul\":8698:8707   */\n      dup4\n        /* \"#utility.yul\":8694:8711   */\n      add\n        /* \"#utility.yul\":8687:8734   */\n      mstore\n        /* \"#utility.yul\":8751:8829   */\n      tag_282\n        /* \"#utility.yul\":8824:8828   */\n      dup2\n        /* \"#utility.yul\":8815:8821   */\n      dup10\n        /* \"#utility.yul\":8751:8829   */\n      tag_151\n      jump\t// in\n    tag_282:\n        /* \"#utility.yul\":8743:8829   */\n      swap1\n      pop\n        /* \"#utility.yul\":8876:8885   */\n      dup2\n        /* \"#utility.yul\":8870:8874   */\n      dup2\n        /* \"#utility.yul\":8866:8886   */\n      sub\n        /* \"#utility.yul\":8861:8863   */\n      0x20\n        /* \"#utility.yul\":8850:8859   */\n      dup4\n        /* \"#utility.yul\":8846:8864   */\n      add\n        /* \"#utility.yul\":8839:8887   */\n      mstore\n        /* \"#utility.yul\":8904:8982   */\n      tag_283\n        /* \"#utility.yul\":8977:8981   */\n      dup2\n        /* \"#utility.yul\":8968:8974   */\n      dup9\n        /* \"#utility.yul\":8904:8982   */\n      tag_151\n      jump\t// in\n    tag_283:\n        /* \"#utility.yul\":8896:8982   */\n      swap1\n      pop\n        /* \"#utility.yul\":8992:9064   */\n      tag_284\n        /* \"#utility.yul\":9060:9062   */\n      0x40\n        /* \"#utility.yul\":9049:9058   */\n      dup4\n        /* \"#utility.yul\":9045:9063   */\n      add\n        /* \"#utility.yul\":9036:9042   */\n      dup8\n        /* \"#utility.yul\":8992:9064   */\n      tag_152\n      jump\t// in\n    tag_284:\n        /* \"#utility.yul\":9074:9146   */\n      tag_285\n        /* \"#utility.yul\":9142:9144   */\n      0x60\n        /* \"#utility.yul\":9131:9140   */\n      dup4\n        /* \"#utility.yul\":9127:9145   */\n      add\n        /* \"#utility.yul\":9118:9124   */\n      dup7\n        /* \"#utility.yul\":9074:9146   */\n      tag_154\n      jump\t// in\n    tag_285:\n        /* \"#utility.yul\":9156:9223   */\n      tag_286\n        /* \"#utility.yul\":9218:9221   */\n      0x80\n        /* \"#utility.yul\":9207:9216   */\n      dup4\n        /* \"#utility.yul\":9203:9222   */\n      add\n        /* \"#utility.yul\":9194:9200   */\n      dup6\n        /* \"#utility.yul\":9156:9223   */\n      tag_156\n      jump\t// in\n    tag_286:\n        /* \"#utility.yul\":9233:9306   */\n      tag_287\n        /* \"#utility.yul\":9301:9304   */\n      0xa0\n        /* \"#utility.yul\":9290:9299   */\n      dup4\n        /* \"#utility.yul\":9286:9305   */\n      add\n        /* \"#utility.yul\":9277:9283   */\n      dup5\n        /* \"#utility.yul\":9233:9306   */\n      tag_154\n      jump\t// in\n    tag_287:\n        /* \"#utility.yul\":8368:9313   */\n      swap8\n      swap7\n      pop\n      pop\n      pop\n      pop\n      pop\n      pop\n      pop\n      jump\t// out\n        /* \"#utility.yul\":9319:9435   */\n    tag_157:\n        /* \"#utility.yul\":9389:9410   */\n      tag_289\n        /* \"#utility.yul\":9404:9409   */\n      dup2\n        /* \"#utility.yul\":9389:9410   */\n      tag_155\n      jump\t// in\n    tag_289:\n        /* \"#utility.yul\":9382:9387   */\n      dup2\n        /* \"#utility.yul\":9379:9411   */\n      eq\n        /* \"#utility.yul\":9369:9429   */\n      tag_290\n      jumpi\n        /* \"#utility.yul\":9425:9426   */\n      0x00\n        /* \"#utility.yul\":9422:9423   */\n      0x00\n        /* \"#utility.yul\":9415:9427   */\n      revert\n        /* \"#utility.yul\":9369:9429   */\n    tag_290:\n        /* \"#utility.yul\":9319:9435   */\n      pop\n      jump\t// out\n        /* \"#utility.yul\":9441:9574   */\n    tag_158:\n        /* \"#utility.yul\":9484:9489   */\n      0x00\n        /* \"#utility.yul\":9522:9528   */\n      dup2\n        /* \"#utility.yul\":9509:9529   */\n      calldataload\n        /* \"#utility.yul\":9500:9529   */\n      swap1\n      pop\n        /* \"#utility.yul\":9538:9568   */\n      tag_292\n        /* \"#utility.yul\":9562:9567   */\n      dup2\n        /* \"#utility.yul\":9538:9568   */\n      tag_157\n      jump\t// in\n    tag_292:\n        /* \"#utility.yul\":9441:9574   */\n      swap3\n      swap2\n      pop\n      pop\n      jump\t// out\n        /* \"#utility.yul\":9580:10879   */\n    tag_32:\n        /* \"#utility.yul\":9693:9699   */\n      0x00\n        /* \"#utility.yul\":9701:9707   */\n      0x00\n        /* \"#utility.yul\":9709:9715   */\n      0x00\n        /* \"#utility.yul\":9717:9723   */\n      0x00\n        /* \"#utility.yul\":9766:9769   */\n      0x80\n        /* \"#utility.yul\":9754:9763   */\n      dup6\n        /* \"#utility.yul\":9745:9752   */\n      dup8\n        /* \"#utility.yul\":9741:9764   */\n      sub\n        /* \"#utility.yul\":9737:9770   */\n      slt\n        /* \"#utility.yul\":9734:9854   */\n      iszero\n      tag_294\n      jumpi\n        /* \"#utility.yul\":9773:9852   */\n      tag_295\n      tag_124\n      jump\t// in\n    tag_295:\n        /* \"#utility.yul\":9734:9854   */\n    tag_294:\n        /* \"#utility.yul\":9921:9922   */\n      0x00\n        /* \"#utility.yul\":9910:9919   */\n      dup6\n        /* \"#utility.yul\":9906:9923   */\n      add\n        /* \"#utility.yul\":9893:9924   */\n      calldataload\n        /* \"#utility.yul\":9951:9969   */\n      0xffffffffffffffff\n        /* \"#utility.yul\":9943:9949   */\n      dup2\n        /* \"#utility.yul\":9940:9970   */\n      gt\n        /* \"#utility.yul\":9937:10054   */\n      iszero\n      tag_296\n      jumpi\n        /* \"#utility.yul\":9973:10052   */\n      tag_297\n      tag_125\n      jump\t// in\n    tag_297:\n        /* \"#utility.yul\":9937:10054   */\n    tag_296:\n        /* \"#utility.yul\":10078:10141   */\n      tag_298\n        /* \"#utility.yul\":10133:10140   */\n      dup8\n        /* \"#utility.yul\":10124:10130   */\n      dup3\n        /* \"#utility.yul\":10113:10122   */\n      dup9\n        /* \"#utility.yul\":10109:10131   */\n      add\n        /* \"#utility.yul\":10078:10141   */\n      tag_135\n      jump\t// in\n    tag_298:\n        /* \"#utility.yul\":10068:10141   */\n      swap5\n      pop\n        /* \"#utility.yul\":9864:10151   */\n      pop\n        /* \"#utility.yul\":10218:10220   */\n      0x20\n        /* \"#utility.yul\":10207:10216   */\n      dup6\n        /* \"#utility.yul\":10203:10221   */\n      add\n        /* \"#utility.yul\":10190:10222   */\n      calldataload\n        /* \"#utility.yul\":10249:10267   */\n      0xffffffffffffffff\n        /* \"#utility.yul\":10241:10247   */\n      dup2\n        /* \"#utility.yul\":10238:10268   */\n      gt\n        /* \"#utility.yul\":10235:10352   */\n      iszero\n      tag_299\n      jumpi\n        /* \"#utility.yul\":10271:10350   */\n      tag_300\n      tag_125\n      jump\t// in\n    tag_300:\n        /* \"#utility.yul\":10235:10352   */\n    tag_299:\n        /* \"#utility.yul\":10376:10439   */\n      tag_301\n        /* \"#utility.yul\":10431:10438   */\n      dup8\n        /* \"#utility.yul\":10422:10428   */\n      dup3\n        /* \"#utility.yul\":10411:10420   */\n      dup9\n        /* \"#utility.yul\":10407:10429   */\n      add\n        /* \"#utility.yul\":10376:10439   */\n      tag_135\n      jump\t// in\n    tag_301:\n        /* \"#utility.yul\":10366:10439   */\n      swap4\n      pop\n        /* \"#utility.yul\":10161:10449   */\n      pop\n        /* \"#utility.yul\":10516:10518   */\n      0x40\n        /* \"#utility.yul\":10505:10514   */\n      dup6\n        /* \"#utility.yul\":10501:10519   */\n      add\n        /* \"#utility.yul\":10488:10520   */\n      calldataload\n        /* \"#utility.yul\":10547:10565   */\n      0xffffffffffffffff\n        /* \"#utility.yul\":10539:10545   */\n      dup2\n        /* \"#utility.yul\":10536:10566   */\n      gt\n        /* \"#utility.yul\":10533:10650   */\n      iszero\n      tag_302\n      jumpi\n        /* \"#utility.yul\":10569:10648   */\n      tag_303\n      tag_125\n      jump\t// in\n    tag_303:\n        /* \"#utility.yul\":10533:10650   */\n    tag_302:\n        /* \"#utility.yul\":10674:10737   */\n      tag_304\n        /* \"#utility.yul\":10729:10736   */\n      dup8\n        /* \"#utility.yul\":10720:10726   */\n      dup3\n        /* \"#utility.yul\":10709:10718   */\n      dup9\n        /* \"#utility.yul\":10705:10727   */\n      add\n        /* \"#utility.yul\":10674:10737   */\n      tag_135\n      jump\t// in\n    tag_304:\n        /* \"#utility.yul\":10664:10737   */\n      swap3\n      pop\n        /* \"#utility.yul\":10459:10747   */\n      pop\n        /* \"#utility.yul\":10786:10788   */\n      0x60\n        /* \"#utility.yul\":10812:10862   */\n      tag_305\n        /* \"#utility.yul\":10854:10861   */\n      dup8\n        /* \"#utility.yul\":10845:10851   */\n      dup3\n        /* \"#utility.yul\":10834:10843   */\n      dup9\n        /* \"#utility.yul\":10830:10852   */\n      add\n        /* \"#utility.yul\":10812:10862   */\n      tag_158\n      jump\t// in\n    tag_305:\n        /* \"#utility.yul\":10802:10862   */\n      swap2\n      pop\n        /* \"#utility.yul\":10757:10872   */\n      pop\n        /* \"#utility.yul\":9580:10879   */\n      swap3\n      swap6\n      swap2\n      swap5\n      pop\n      swap3\n      pop\n      jump\t// out\n        /* \"#utility.yul\":10885:11107   */\n    tag_38:\n        /* \"#utility.yul\":10978:10982   */\n      0x00\n        /* \"#utility.yul\":11016:11018   */\n      0x20\n        /* \"#utility.yul\":11005:11014   */\n      dup3\n        /* \"#utility.yul\":11001:11019   */\n      add\n        /* \"#utility.yul\":10993:11019   */\n      swap1\n      pop\n        /* \"#utility.yul\":11029:11100   */\n      tag_307\n        /* \"#utility.yul\":11097:11098   */\n      0x00\n        /* \"#utility.yul\":11086:11095   */\n      dup4\n        /* \"#utility.yul\":11082:11099   */\n      add\n        /* \"#utility.yul\":11073:11079   */\n      dup5\n        /* \"#utility.yul\":11029:11100   */\n      tag_152\n      jump\t// in\n    tag_307:\n        /* \"#utility.yul\":10885:11107   */\n      swap3\n      swap2\n      pop\n      pop\n      jump\t// out\n        /* \"#utility.yul\":11113:11261   */\n    tag_159:\n        /* \"#utility.yul\":11215:11226   */\n      0x00\n        /* \"#utility.yul\":11252:11255   */\n      dup2\n        /* \"#utility.yul\":11237:11255   */\n      swap1\n      pop\n        /* \"#utility.yul\":11113:11261   */\n      swap3\n      swap2\n      pop\n      pop\n      jump\t// out\n        /* \"#utility.yul\":11267:11657   */\n    tag_160:\n        /* \"#utility.yul\":11373:11376   */\n      0x00\n        /* \"#utility.yul\":11401:11440   */\n      tag_310\n        /* \"#utility.yul\":11434:11439   */\n      dup3\n        /* \"#utility.yul\":11401:11440   */\n      tag_143\n      jump\t// in\n    tag_310:\n        /* \"#utility.yul\":11456:11545   */\n      tag_311\n        /* \"#utility.yul\":11538:11544   */\n      dup2\n        /* \"#utility.yul\":11533:11536   */\n      dup6\n        /* \"#utility.yul\":11456:11545   */\n      tag_159\n      jump\t// in\n    tag_311:\n        /* \"#utility.yul\":11449:11545   */\n      swap4\n      pop\n        /* \"#utility.yul\":11554:11619   */\n      tag_312\n        /* \"#utility.yul\":11612:11618   */\n      dup2\n        /* \"#utility.yul\":11607:11610   */\n      dup6\n        /* \"#utility.yul\":11600:11604   */\n      0x20\n        /* \"#utility.yul\":11593:11598   */\n      dup7\n        /* \"#utility.yul\":11589:11605   */\n      add\n        /* \"#utility.yul\":11554:11619   */\n      tag_145\n      jump\t// in\n    tag_312:\n        /* \"#utility.yul\":11644:11650   */\n      dup1\n        /* \"#utility.yul\":11639:11642   */\n      dup5\n        /* \"#utility.yul\":11635:11651   */\n      add\n        /* \"#utility.yul\":11628:11651   */\n      swap2\n      pop\n        /* \"#utility.yul\":11377:11657   */\n      pop\n        /* \"#utility.yul\":11267:11657   */\n      swap3\n      swap2\n      pop\n      pop\n      jump\t// out\n        /* \"#utility.yul\":11663:11938   */\n    tag_41:\n        /* \"#utility.yul\":11795:11798   */\n      0x00\n        /* \"#utility.yul\":11817:11912   */\n      tag_314\n        /* \"#utility.yul\":11908:11911   */\n      dup3\n        /* \"#utility.yul\":11899:11905   */\n      dup5\n        /* \"#utility.yul\":11817:11912   */\n      tag_160\n      jump\t// in\n    tag_314:\n        /* \"#utility.yul\":11810:11912   */\n      swap2\n      pop\n        /* \"#utility.yul\":11929:11932   */\n      dup2\n        /* \"#utility.yul\":11922:11932   */\n      swap1\n      pop\n        /* \"#utility.yul\":11663:11938   */\n      swap3\n      swap2\n      pop\n      pop\n      jump\t// out\n        /* \"#utility.yul\":11944:12112   */\n    tag_161:\n        /* \"#utility.yul\":12084:12104   */\n      0x45766964656e6365206e6f7420666f756e640000000000000000000000000000\n        /* \"#utility.yul\":12080:12081   */\n      0x00\n        /* \"#utility.yul\":12072:12078   */\n      dup3\n        /* \"#utility.yul\":12068:12082   */\n      add\n        /* \"#utility.yul\":12061:12105   */\n      mstore\n        /* \"#utility.yul\":11944:12112   */\n      pop\n      jump\t// out\n        /* \"#utility.yul\":12118:12484   */\n    tag_162:\n        /* \"#utility.yul\":12260:12263   */\n      0x00\n        /* \"#utility.yul\":12281:12348   */\n      tag_317\n        /* \"#utility.yul\":12345:12347   */\n      0x12\n        /* \"#utility.yul\":12340:12343   */\n      dup4\n        /* \"#utility.yul\":12281:12348   */\n      tag_150\n      jump\t// in\n    tag_317:\n        /* \"#utility.yul\":12274:12348   */\n      swap2\n      pop\n        /* \"#utility.yul\":12357:12450   */\n      tag_318\n        /* \"#utility.yul\":12446:12449   */\n      dup3\n        /* \"#utility.yul\":12357:12450   */\n      tag_161\n      jump\t// in\n    tag_318:\n        /* \"#utility.yul\":12475:12477   */\n      0x20\n        /* \"#utility.yul\":12470:12473   */\n      dup3\n        /* \"#utility.yul\":12466:12478   */\n      add\n        /* \"#utility.yul\":12459:12478   */\n      swap1\n      pop\n        /* \"#utility.yul\":12118:12484   */\n      swap2\n      swap1\n      pop\n      jump\t// out\n        /* \"#utility.yul\":12490:12909   */\n    tag_44:\n        /* \"#utility.yul\":12656:12660   */\n      0x00\n        /* \"#utility.yul\":12694:12696   */\n      0x20\n        /* \"#utility.yul\":12683:12692   */\n      dup3\n        /* \"#utility.yul\":12679:12697   */\n      add\n        /* \"#utility.yul\":12671:12697   */\n      swap1\n      pop\n        /* \"#utility.yul\":12743:12752   */\n      dup2\n        /* \"#utility.yul\":12737:12741   */\n      dup2\n        /* \"#utility.yul\":12733:12753   */\n      sub\n        /* \"#utility.yul\":12729:12730   */\n      0x00\n        /* \"#utility.yul\":12718:12727   */\n      dup4\n        /* \"#utility.yul\":12714:12731   */\n      add\n        /* \"#utility.yul\":12707:12754   */\n      mstore\n        /* \"#utility.yul\":12771:12902   */\n      tag_320\n        /* \"#utility.yul\":12897:12901   */\n      dup2\n        /* \"#utility.yul\":12771:12902   */\n      tag_162\n      jump\t// in\n    tag_320:\n        /* \"#utility.yul\":12763:12902   */\n      swap1\n      pop\n        /* \"#utility.yul\":12490:12909   */\n      swap2\n      swap1\n      pop\n      jump\t// out\n        /* \"#utility.yul\":12915:13074   */\n    tag_163:\n        /* \"#utility.yul\":13055:13066   */\n      0x4e6f74206f776e65720000000000000000000000000000000000000000000000\n        /* \"#utility.yul\":13051:13052   */\n      0x00\n        /* \"#utility.yul\":13043:13049   */\n      dup3\n        /* \"#utility.yul\":13039:13053   */\n      add\n        /* \"#utility.yul\":13032:13067   */\n      mstore\n        /* \"#utility.yul\":12915:13074   */\n      pop\n      jump\t// out\n        /* \"#utility.yul\":13080:13445   */\n    tag_164:\n        /* \"#utility.yul\":13222:13225   */\n      0x00\n        /* \"#utility.yul\":13243:13309   */\n      tag_323\n        /* \"#utility.yul\":13307:13308   */\n      0x09\n        /* \"#utility.yul\":13302:13305   */\n      dup4\n        /* \"#utility.yul\":13243:13309   */\n      tag_150\n      jump\t// in\n    tag_323:\n        /* \"#utility.yul\":13236:13309   */\n      swap2\n      pop\n        /* \"#utility.yul\":13318:13411   */\n      tag_324\n        /* \"#utility.yul\":13407:13410   */\n      dup3\n        /* \"#utility.yul\":13318:13411   */\n      tag_163\n      jump\t// in\n    tag_324:\n        /* \"#utility.yul\":13436:13438   */\n      0x20\n        /* \"#utility.yul\":13431:13434   */\n      dup3\n        /* \"#utility.yul\":13427:13439   */\n      add\n        /* \"#utility.yul\":13420:13439   */\n      swap1\n      pop\n        /* \"#utility.yul\":13080:13445   */\n      swap2\n      swap1\n      pop\n      jump\t// out\n        /* \"#utility.yul\":13451:13870   */\n    tag_49:\n        /* \"#utility.yul\":13617:13621   */\n      0x00\n        /* \"#utility.yul\":13655:13657   */\n      0x20\n        /* \"#utility.yul\":13644:13653   */\n      dup3\n        /* \"#utility.yul\":13640:13658   */\n      add\n        /* \"#utility.yul\":13632:13658   */\n      swap1\n      pop\n        /* \"#utility.yul\":13704:13713   */\n      dup2\n        /* \"#utility.yul\":13698:13702   */\n      dup2\n        /* \"#utility.yul\":13694:13714   */\n      sub\n        /* \"#utility.yul\":13690:13691   */\n      0x00\n        /* \"#utility.yul\":13679:13688   */\n      dup4\n        /* \"#utility.yul\":13675:13692   */\n      add\n        /* \"#utility.yul\":13668:13715   */\n      mstore\n        /* \"#utility.yul\":13732:13863   */\n      tag_326\n        /* \"#utility.yul\":13858:13862   */\n      dup2\n        /* \"#utility.yul\":13732:13863   */\n      tag_164\n      jump\t// in\n    tag_326:\n        /* \"#utility.yul\":13724:13863   */\n      swap1\n      pop\n        /* \"#utility.yul\":13451:13870   */\n      swap2\n      swap1\n      pop\n      jump\t// out\n        /* \"#utility.yul\":13876:14056   */\n    tag_165:\n        /* \"#utility.yul\":13924:14001   */\n      0x4e487b7100000000000000000000000000000000000000000000000000000000\n        /* \"#utility.yul\":13921:13922   */\n      0x00\n        /* \"#utility.yul\":13914:14002   */\n      mstore\n        /* \"#utility.yul\":14021:14025   */\n      0x22\n        /* \"#utility.yul\":14018:14019   */\n      0x04\n        /* \"#utility.yul\":14011:14026   */\n      mstore\n        /* \"#utility.yul\":14045:14049   */\n      0x24\n        /* \"#utility.yul\":14042:14043   */\n      0x00\n        /* \"#utility.yul\":14035:14050   */\n      revert\n        /* \"#utility.yul\":14062:14382   */\n    tag_62:\n        /* \"#utility.yul\":14106:14112   */\n      0x00\n        /* \"#utility.yul\":14143:14144   */\n      0x02\n        /* \"#utility.yul\":14137:14141   */\n      dup3\n        /* \"#utility.yul\":14133:14145   */\n      div\n        /* \"#utility.yul\":14123:14145   */\n      swap1\n      pop\n        /* \"#utility.yul\":14190:14191   */\n      0x01\n        /* \"#utility.yul\":14184:14188   */\n      dup3\n        /* \"#utility.yul\":14180:14192   */\n      and\n        /* \"#utility.yul\":14211:14229   */\n      dup1\n        /* \"#utility.yul\":14201:14282   */\n      tag_329\n      jumpi\n        /* \"#utility.yul\":14267:14271   */\n      0x7f\n        /* \"#utility.yul\":14259:14265   */\n      dup3\n        /* \"#utility.yul\":14255:14272   */\n      and\n        /* \"#utility.yul\":14245:14272   */\n      swap2\n      pop\n        /* \"#utility.yul\":14201:14282   */\n    tag_329:\n        /* \"#utility.yul\":14329:14331   */\n      0x20\n        /* \"#utility.yul\":14321:14327   */\n      dup3\n        /* \"#utility.yul\":14318:14332   */\n      lt\n        /* \"#utility.yul\":14298:14316   */\n      dup2\n        /* \"#utility.yul\":14295:14333   */\n      sub\n        /* \"#utility.yul\":14292:14376   */\n      tag_330\n      jumpi\n        /* \"#utility.yul\":14348:14366   */\n      tag_331\n      tag_165\n      jump\t// in\n    tag_331:\n        /* \"#utility.yul\":14292:14376   */\n    tag_330:\n        /* \"#utility.yul\":14113:14382   */\n      pop\n        /* \"#utility.yul\":14062:14382   */\n      swap2\n      swap1\n      pop\n      jump\t// out\n        /* \"#utility.yul\":14388:14529   */\n    tag_166:\n        /* \"#utility.yul\":14437:14441   */\n      0x00\n        /* \"#utility.yul\":14460:14463   */\n      dup2\n        /* \"#utility.yul\":14452:14463   */\n      swap1\n      pop\n        /* \"#utility.yul\":14483:14486   */\n      dup2\n        /* \"#utility.yul\":14480:14481   */\n      0x00\n        /* \"#utility.yul\":14473:14487   */\n      mstore\n        /* \"#utility.yul\":14517:14521   */\n      0x20\n        /* \"#utility.yul\":14514:14515   */\n      0x00\n        /* \"#utility.yul\":14504:14522   */\n      keccak256\n        /* \"#utility.yul\":14496:14522   */\n      swap1\n      pop\n        /* \"#utility.yul\":14388:14529   */\n      swap2\n      swap1\n      pop\n      jump\t// out\n        /* \"#utility.yul\":14535:14628   */\n    tag_167:\n        /* \"#utility.yul\":14572:14578   */\n      0x00\n        /* \"#utility.yul\":14619:14621   */\n      0x20\n        /* \"#utility.yul\":14614:14616   */\n      0x1f\n        /* \"#utility.yul\":14607:14612   */\n      dup4\n        /* \"#utility.yul\":14603:14617   */\n      add\n        /* \"#utility.yul\":14599:14622   */\n      div\n        /* \"#utility.yul\":14589:14622   */\n      swap1\n      pop\n        /* \"#utility.yul\":14535:14628   */\n      swap2\n      swap1\n      pop\n      jump\t// out\n        /* \"#utility.yul\":14634:14741   */\n    tag_168:\n        /* \"#utility.yul\":14678:14686   */\n      0x00\n        /* \"#utility.yul\":14728:14733   */\n      dup3\n        /* \"#utility.yul\":14722:14726   */\n      dup3\n        /* \"#utility.yul\":14718:14734   */\n      shl\n        /* \"#utility.yul\":14697:14734   */\n      swap1\n      pop\n        /* \"#utility.yul\":14634:14741   */\n      swap3\n      swap2\n      pop\n      pop\n      jump\t// out\n        /* \"#utility.yul\":14747:15140   */\n    tag_169:\n        /* \"#utility.yul\":14816:14822   */\n      0x00\n        /* \"#utility.yul\":14866:14867   */\n      0x08\n        /* \"#utility.yul\":14854:14864   */\n      dup4\n        /* \"#utility.yul\":14850:14868   */\n      mul\n        /* \"#utility.yul\":14889:14986   */\n      tag_336\n        /* \"#utility.yul\":14919:14985   */\n      0xffffffffffffffffffffffffffffffffffffffffffffffffffffffffffffffff\n        /* \"#utility.yul\":14908:14917   */\n      dup3\n        /* \"#utility.yul\":14889:14986   */\n      tag_168\n      jump\t// in\n    tag_336:\n        /* \"#utility.yul\":15007:15046   */\n      tag_337\n        /* \"#utility.yul\":15037:15045   */\n      dup7\n        /* \"#utility.yul\":15026:15035   */\n      dup4\n        /* \"#utility.yul\":15007:15046   */\n      tag_168\n      jump\t// in\n    tag_337:\n        /* \"#utility.yul\":14995:15046   */\n      swap6\n      pop\n        /* \"#utility.yul\":15079:15083   */\n      dup1\n        /* \"#utility.yul\":15075:15084   */\n      not\n        /* \"#utility.yul\":15068:15073   */\n      dup5\n        /* \"#utility.yul\":15064:15085   */\n      and\n        /* \"#utility.yul\":15055:15085   */\n      swap4\n      pop\n        /* \"#utility.yul\":15128:15132   */\n      dup1\n        /* \"#utility.yul\":15118:15126   */\n      dup7\n        /* \"#utility.yul\":15114:15133   */\n      and\n        /* \"#utility.yul\":15107:15112   */\n      dup5\n        /* \"#utility.yul\":15104:15134   */\n      or\n        /* \"#utility.yul\":15094:15134   */\n      swap3\n      pop\n        /* \"#utility.yul\":14823:15140   */\n      pop\n      pop\n        /* \"#utility.yul\":14747:15140   */\n      swap4\n      swap3\n      pop\n      pop\n      pop\n      jump\t// out\n        /* \"#utility.yul\":15146:15206   */\n    tag_170:\n        /* \"#utility.yul\":15174:15177   */\n      0x00\n        /* \"#utility.yul\":15195:15200   */\n      dup2\n        /* \"#utility.yul\":15188:15200   */\n      swap1\n      pop\n        /* \"#utility.yul\":15146:15206   */\n      swap2\n      swap1\n      pop\n      jump\t// out\n        /* \"#utility.yul\":15212:15354   */\n    tag_171:\n        /* \"#utility.yul\":15262:15271   */\n      0x00\n        /* \"#utility.yul\":15295:15348   */\n      tag_340\n        /* \"#utility.yul\":15313:15347   */\n      tag_341\n        /* \"#utility.yul\":15322:15346   */\n      tag_342\n        /* \"#utility.yul\":15340:15345   */\n      dup5\n        /* \"#utility.yul\":15322:15346   */\n      tag_153\n      jump\t// in\n    tag_342:\n        /* \"#utility.yul\":15313:15347   */\n      tag_170\n      jump\t// in\n    tag_341:\n        /* \"#utility.yul\":15295:15348   */\n      tag_153\n      jump\t// in\n    tag_340:\n        /* \"#utility.yul\":15282:15348   */\n      swap1\n      pop\n        /* \"#utility.yul\":15212:15354   */\n      swap2\n      swap1\n      pop\n      jump\t// out\n        /* \"#utility.yul\":15360:15435   */\n    tag_172:\n        /* \"#utility.yul\":15403:15406   */\n      0x00\n        /* \"#utility.yul\":15424:15429   */\n      dup2\n        /* \"#utility.yul\":15417:15429   */\n      swap1\n      pop\n        /* \"#utility.yul\":15360:15435   */\n      swap2\n      swap1\n      pop\n      jump\t// out\n        /* \"#utility.yul\":15441:15710   */\n    tag_173:\n        /* \"#utility.yul\":15551:15590   */\n      tag_345\n        /* \"#utility.yul\":15582:15589   */\n      dup4\n        /* \"#utility.yul\":15551:15590   */\n      tag_171\n      jump\t// in\n    tag_345:\n        /* \"#utility.yul\":15612:15703   */\n      tag_346\n        /* \"#utility.yul\":15661:15702   */\n      tag_347\n        /* \"#utility.yul\":15685:15701   */\n      dup3\n        /* \"#utility.yul\":15661:15702   */\n      tag_172\n      jump\t// in\n    tag_347:\n        /* \"#utility.yul\":15653:15659   */\n      dup5\n        /* \"#utility.yul\":15646:15650   */\n      dup5\n        /* \"#utility.yul\":15640:15651   */\n      sload\n        /* \"#utility.yul\":15612:15703   */\n      tag_169\n      jump\t// in\n    tag_346:\n        /* \"#utility.yul\":15606:15610   */\n      dup3\n        /* \"#utility.yul\":15599:15704   */\n      sstore\n        /* \"#utility.yul\":15517:15710   */\n      pop\n        /* \"#utility.yul\":15441:15710   */\n      pop\n      pop\n      pop\n      jump\t// out\n        /* \"#utility.yul\":15716:15789   */\n    tag_174:\n        /* \"#utility.yul\":15761:15764   */\n      0x00\n        /* \"#utility.yul\":15782:15783   */\n      0x00\n        /* \"#utility.yul\":15775:15783   */\n      swap1\n      pop\n        /* \"#utility.yul\":15716:15789   */\n      swap1\n      jump\t// out\n        /* \"#utility.yul\":15795:15984   */\n    tag_175:\n        /* \"#utility.yul\":15872:15904   */\n      tag_350\n      tag_174\n      jump\t// in\n    tag_350:\n        /* \"#utility.yul\":15913:15978   */\n      tag_351\n        /* \"#utility.yul\":15971:15977   */\n      dup2\n        /* \"#utility.yul\":15963:15969   */\n      dup5\n        /* \"#utility.yul\":15957:15961   */\n      dup5\n        /* \"#utility.yul\":15913:15978   */\n      tag_173\n      jump\t// in\n    tag_351:\n        /* \"#utility.yul\":15848:15984   */\n      pop\n        /* \"#utility.yul\":15795:15984   */\n      pop\n      pop\n      jump\t// out\n        /* \"#utility.yul\":15990:16176   */\n    tag_176:\n        /* \"#utility.yul\":16050:16170   */\n    tag_353:\n        /* \"#utility.yul\":16067:16070   */\n      dup2\n        /* \"#utility.yul\":16060:16065   */\n      dup2\n        /* \"#utility.yul\":16057:16071   */\n      lt\n        /* \"#utility.yul\":16050:16170   */\n      iszero\n      tag_355\n      jumpi\n        /* \"#utility.yul\":16121:16160   */\n      tag_356\n        /* \"#utility.yul\":16158:16159   */\n      0x00\n        /* \"#utility.yul\":16151:16156   */\n      dup3\n        /* \"#utility.yul\":16121:16160   */\n      tag_175\n      jump\t// in\n    tag_356:\n        /* \"#utility.yul\":16094:16095   */\n      0x01\n        /* \"#utility.yul\":16087:16092   */\n      dup2\n        /* \"#utility.yul\":16083:16096   */\n      add\n        /* \"#utility.yul\":16074:16096   */\n      swap1\n      pop\n        /* \"#utility.yul\":16050:16170   */\n      jump(tag_353)\n    tag_355:\n        /* \"#utility.yul\":15990:16176   */\n      pop\n      pop\n      jump\t// out\n        /* \"#utility.yul\":16182:16725   */\n    tag_177:\n        /* \"#utility.yul\":16283:16285   */\n      0x1f\n        /* \"#utility.yul\":16278:16281   */\n      dup3\n        /* \"#utility.yul\":16275:16286   */\n      gt\n        /* \"#utility.yul\":16272:16718   */\n      iszero\n      tag_358\n      jumpi\n        /* \"#utility.yul\":16317:16355   */\n      tag_359\n        /* \"#utility.yul\":16349:16354   */\n      dup2\n        /* \"#utility.yul\":16317:16355   */\n      tag_166\n      jump\t// in\n    tag_359:\n        /* \"#utility.yul\":16401:16430   */\n      tag_360\n        /* \"#utility.yul\":16419:16429   */\n      dup5\n        /* \"#utility.yul\":16401:16430   */\n      tag_167\n      jump\t// in\n    tag_360:\n        /* \"#utility.yul\":16391:16399   */\n      dup2\n        /* \"#utility.yul\":16387:16431   */\n      add\n        /* \"#utility.yul\":16584:16586   */\n      0x20\n        /* \"#utility.yul\":16572:16582   */\n      dup6\n        /* \"#utility.yul\":16569:16587   */\n      lt\n        /* \"#utility.yul\":16566:16615   */\n      iszero\n      tag_361\n      jumpi\n        /* \"#utility.yul\":16605:16613   */\n      dup2\n        /* \"#utility.yul\":16590:16613   */\n      swap1\n      pop\n        /* \"#utility.yul\":16566:16615   */\n    tag_361:\n        /* \"#utility.yul\":16628:16708   */\n      tag_362\n        /* \"#utility.yul\":16684:16706   */\n      tag_363\n        /* \"#utility.yul\":16702:16705   */\n      dup6\n        /* \"#utility.yul\":16684:16706   */\n      tag_167\n      jump\t// in\n    tag_363:\n        /* \"#utility.yul\":16674:16682   */\n      dup4\n        /* \"#utility.yul\":16670:16707   */\n      add\n        /* \"#utility.yul\":16657:16668   */\n      dup3\n        /* \"#utility.yul\":16628:16708   */\n      tag_176\n      jump\t// in\n    tag_362:\n        /* \"#utility.yul\":16287:16718   */\n      pop\n      pop\n        /* \"#utility.yul\":16272:16718   */\n    tag_358:\n        /* \"#utility.yul\":16182:16725   */\n      pop\n      pop\n      pop\n      jump\t// out\n        /* \"#utility.yul\":16731:16848   */\n    tag_178:\n        /* \"#utility.yul\":16785:16793   */\n      0x00\n        /* \"#utility.yul\":16835:16840   */\n      dup3\n        /* \"#utility.yul\":16829:16833   */\n      dup3\n        /* \"#utility.yul\":16825:16841   */\n      shr\n        /* \"#utility.yul\":16804:16841   */\n      swap1\n      pop\n        /* \"#utility.yul\":16731:16848   */\n      swap3\n      swap2\n      pop\n      pop\n      jump\t// out\n        /* \"#utility.yul\":16854:17023   */\n    tag_179:\n        /* \"#utility.yul\":16898:16904   */\n      0x00\n        /* \"#utility.yul\":16931:16982   */\n      tag_366\n        /* \"#utility.yul\":16979:16980   */\n      0x00\n        /* \"#utility.yul\":16975:16981   */\n      not\n        /* \"#utility.yul\":16967:16972   */\n      dup5\n        /* \"#utility.yul\":16964:16965   */\n      0x08\n        /* \"#utility.yul\":16960:16973   */\n      mul\n        /* \"#utility.yul\":16931:16982   */\n      tag_178\n      jump\t// in\n    tag_366:\n        /* \"#utility.yul\":16927:16983   */\n      not\n        /* \"#utility.yul\":17012:17016   */\n      dup1\n        /* \"#utility.yul\":17006:17010   */\n      dup4\n        /* \"#utility.yul\":17002:17017   */\n      and\n        /* \"#utility.yul\":16992:17017   */\n      swap2\n      pop\n        /* \"#utility.yul\":16905:17023   */\n      pop\n        /* \"#utility.yul\":16854:17023   */\n      swap3\n      swap2\n      pop\n      pop\n      jump\t// out\n        /* \"#utility.yul\":17028:17323   */\n    tag_180:\n        /* \"#utility.yul\":17104:17108   */\n      0x00\n        /* \"#utility.yul\":17250:17279   */\n      tag_368\n        /* \"#utility.yul\":17275:17278   */\n      dup4\n        /* \"#utility.yul\":17269:17273   */\n      dup4\n        /* \"#utility.yul\":17250:17279   */\n      tag_179\n      jump\t// in\n    tag_368:\n        /* \"#utility.yul\":17242:17279   */\n      swap2\n      pop\n        /* \"#utility.yul\":17312:17315   */\n      dup3\n        /* \"#utility.yul\":17309:17310   */\n      0x02\n        /* \"#utility.yul\":17305:17316   */\n      mul\n        /* \"#utility.yul\":17299:17303   */\n      dup3\n        /* \"#utility.yul\":17296:17317   */\n      or\n        /* \"#utility.yul\":17288:17317   */\n      swap1\n      pop\n        /* \"#utility.yul\":17028:17323   */\n      swap3\n      swap2\n      pop\n      pop\n      jump\t// out\n        /* \"#utility.yul\":17328:18723   */\n    tag_53:\n        /* \"#utility.yul\":17445:17482   */\n      tag_370\n        /* \"#utility.yul\":17478:17481   */\n      dup3\n        /* \"#utility.yul\":17445:17482   */\n      tag_143\n      jump\t// in\n    tag_370:\n        /* \"#utility.yul\":17547:17565   */\n      0xffffffffffffffff\n        /* \"#utility.yul\":17539:17545   */\n      dup2\n        /* \"#utility.yul\":17536:17566   */\n      gt\n        /* \"#utility.yul\":17533:17589   */\n      iszero\n      tag_371\n      jumpi\n        /* \"#utility.yul\":17569:17587   */\n      tag_372\n      tag_129\n      jump\t// in\n    tag_372:\n        /* \"#utility.yul\":17533:17589   */\n    tag_371:\n        /* \"#utility.yul\":17613:17651   */\n      tag_373\n        /* \"#utility.yul\":17645:17649   */\n      dup3\n        /* \"#utility.yul\":17639:17650   */\n      sload\n        /* \"#utility.yul\":17613:17651   */\n      tag_62\n      jump\t// in\n    tag_373:\n        /* \"#utility.yul\":17698:17765   */\n      tag_374\n        /* \"#utility.yul\":17758:17764   */\n      dup3\n        /* \"#utility.yul\":17750:17756   */\n      dup3\n        /* \"#utility.yul\":17744:17748   */\n      dup6\n        /* \"#utility.yul\":17698:17765   */\n      tag_177\n      jump\t// in\n    tag_374:\n        /* \"#utility.yul\":17792:17793   */\n      0x00\n        /* \"#utility.yul\":17816:17820   */\n      0x20\n        /* \"#utility.yul\":17803:17820   */\n      swap1\n      pop\n        /* \"#utility.yul\":17848:17850   */\n      0x1f\n        /* \"#utility.yul\":17840:17846   */\n      dup4\n        /* \"#utility.yul\":17837:17851   */\n      gt\n        /* \"#utility.yul\":17865:17866   */\n      0x01\n        /* \"#utility.yul\":17860:18478   */\n      dup2\n      eq\n      tag_376\n      jumpi\n        /* \"#utility.yul\":18522:18523   */\n      0x00\n        /* \"#utility.yul\":18539:18545   */\n      dup5\n        /* \"#utility.yul\":18536:18613   */\n      iszero\n      tag_377\n      jumpi\n        /* \"#utility.yul\":18588:18597   */\n      dup3\n        /* \"#utility.yul\":18583:18586   */\n      dup8\n        /* \"#utility.yul\":18579:18598   */\n      add\n        /* \"#utility.yul\":18573:18599   */\n      mload\n        /* \"#utility.yul\":18564:18599   */\n      swap1\n      pop\n        /* \"#utility.yul\":18536:18613   */\n    tag_377:\n        /* \"#utility.yul\":18639:18706   */\n      tag_378\n        /* \"#utility.yul\":18699:18705   */\n      dup6\n        /* \"#utility.yul\":18692:18697   */\n      dup3\n        /* \"#utility.yul\":18639:18706   */\n      tag_180\n      jump\t// in\n    tag_378:\n        /* \"#utility.yul\":18633:18637   */\n      dup7\n        /* \"#utility.yul\":18626:18707   */\n      sstore\n        /* \"#utility.yul\":18495:18717   */\n      pop\n        /* \"#utility.yul\":17830:18717   */\n      jump(tag_375)\n        /* \"#utility.yul\":17860:18478   */\n    tag_376:\n        /* \"#utility.yul\":17912:17916   */\n      0x1f\n        /* \"#utility.yul\":17908:17917   */\n      not\n        /* \"#utility.yul\":17900:17906   */\n      dup5\n        /* \"#utility.yul\":17896:17918   */\n      and\n        /* \"#utility.yul\":17946:17983   */\n      tag_379\n        /* \"#utility.yul\":17978:17982   */\n      dup7\n        /* \"#utility.yul\":17946:17983   */\n      tag_166\n      jump\t// in\n    tag_379:\n        /* \"#utility.yul\":18005:18006   */\n      0x00\n        /* \"#utility.yul\":18019:18227   */\n    tag_380:\n        /* \"#utility.yul\":18033:18040   */\n      dup3\n        /* \"#utility.yul\":18030:18031   */\n      dup2\n        /* \"#utility.yul\":18027:18041   */\n      lt\n        /* \"#utility.yul\":18019:18227   */\n      iszero\n      tag_382\n      jumpi\n        /* \"#utility.yul\":18112:18121   */\n      dup5\n        /* \"#utility.yul\":18107:18110   */\n      dup10\n        /* \"#utility.yul\":18103:18122   */\n      add\n        /* \"#utility.yul\":18097:18123   */\n      mload\n        /* \"#utility.yul\":18089:18095   */\n      dup3\n        /* \"#utility.yul\":18082:18124   */\n      sstore\n        /* \"#utility.yul\":18163:18164   */\n      0x01\n        /* \"#utility.yul\":18155:18161   */\n      dup3\n        /* \"#utility.yul\":18151:18165   */\n      add\n        /* \"#utility.yul\":18141:18165   */\n      swap2\n      pop\n        /* \"#utility.yul\":18210:18212   */\n      0x20\n        /* \"#utility.yul\":18199:18208   */\n      dup6\n        /* \"#utility.yul\":18195:18213   */\n      add\n        /* \"#utility.yul\":18182:18213   */\n      swap5\n      pop\n        /* \"#utility.yul\":18056:18060   */\n      0x20\n        /* \"#utility.yul\":18053:18054   */\n      dup2\n        /* \"#utility.yul\":18049:18061   */\n      add\n        /* \"#utility.yul\":18044:18061   */\n      swap1\n      pop\n        /* \"#utility.yul\":18019:18227   */\n      jump(tag_380)\n    tag_382:\n        /* \"#utility.yul\":18255:18261   */\n      dup7\n        /* \"#utility.yul\":18246:18253   */\n      dup4\n        /* \"#utility.yul\":18243:18262   */\n      lt\n        /* \"#utility.yul\":18240:18419   */\n      iszero\n      tag_383\n      jumpi\n        /* \"#utility.yul\":18313:18322   */\n      dup5\n        /* \"#utility.yul\":18308:18311   */\n      dup10\n        /* \"#utility.yul\":18304:18323   */\n      add\n        /* \"#utility.yul\":18298:18324   */\n      mload\n        /* \"#utility.yul\":18356:18404   */\n      tag_384\n        /* \"#utility.yul\":18398:18402   */\n      0x1f\n        /* \"#utility.yul\":18390:18396   */\n      dup10\n        /* \"#utility.yul\":18386:18403   */\n      and\n        /* \"#utility.yul\":18375:18384   */\n      dup3\n        /* \"#utility.yul\":18356:18404   */\n      tag_179\n      jump\t// in\n    tag_384:\n        /* \"#utility.yul\":18348:18354   */\n      dup4\n        /* \"#utility.yul\":18341:18405   */\n      sstore\n        /* \"#utility.yul\":18263:18419   */\n      pop\n        /* \"#utility.yul\":18240:18419   */\n    tag_383:\n        /* \"#utility.yul\":18465:18466   */\n      0x01\n        /* \"#utility.yul\":18461:18462   */\n      0x02\n        /* \"#utility.yul\":18453:18459   */\n      dup9\n        /* \"#utility.yul\":18449:18463   */\n      mul\n        /* \"#utility.yul\":18445:18467   */\n      add\n        /* \"#utility.yul\":18439:18443   */\n      dup9\n        /* \"#utility.yul\":18432:18468   */\n      sstore\n        /* \"#utility.yul\":17867:18478   */\n      pop\n      pop\n      pop\n        /* \"#utility.yul\":17830:18717   */\n    tag_375:\n      pop\n        /* \"#utility.yul\":17420:18723   */\n      pop\n      pop\n      pop\n        /* \"#utility.yul\":17328:18723   */\n      pop\n      pop\n      jump\t// out\n        /* \"#utility.yul\":18729:19373   */\n    tag_55:\n        /* \"#utility.yul\":18926:18930   */\n      0x00\n        /* \"#utility.yul\":18964:18967   */\n      0x80\n        /* \"#utility.yul\":18953:18962   */\n      dup3\n        /* \"#utility.yul\":18949:18968   */\n      add\n        /* \"#utility.yul\":18941:18968   */\n      swap1\n      pop\n        /* \"#utility.yul\":19014:19023   */\n      dup2\n        /* \"#utility.yul\":19008:19012   */\n      dup2\n        /* \"#utility.yul\":19004:19024   */\n      sub\n        /* \"#utility.yul\":19000:19001   */\n      0x00\n        /* \"#utility.yul\":18989:18998   */\n      dup4\n        /* \"#utility.yul\":18985:19002   */\n      add\n        /* \"#utility.yul\":18978:19025   */\n      mstore\n        /* \"#utility.yul\":19042:19120   */\n      tag_386\n        /* \"#utility.yul\":19115:19119   */\n      dup2\n        /* \"#utility.yul\":19106:19112   */\n      dup8\n        /* \"#utility.yul\":19042:19120   */\n      tag_151\n      jump\t// in\n    tag_386:\n        /* \"#utility.yul\":19034:19120   */\n      swap1\n      pop\n        /* \"#utility.yul\":19130:19202   */\n      tag_387\n        /* \"#utility.yul\":19198:19200   */\n      0x20\n        /* \"#utility.yul\":19187:19196   */\n      dup4\n        /* \"#utility.yul\":19183:19201   */\n      add\n        /* \"#utility.yul\":19174:19180   */\n      dup7\n        /* \"#utility.yul\":19130:19202   */\n      tag_152\n      jump\t// in\n    tag_387:\n        /* \"#utility.yul\":19212:19284   */\n      tag_388\n        /* \"#utility.yul\":19280:19282   */\n      0x40\n        /* \"#utility.yul\":19269:19278   */\n      dup4\n        /* \"#utility.yul\":19265:19283   */\n      add\n        /* \"#utility.yul\":19256:19262   */\n      dup6\n        /* \"#utility.yul\":19212:19284   */\n      tag_152\n      jump\t// in\n    tag_388:\n        /* \"#utility.yul\":19294:19366   */\n      tag_389\n        /* \"#utility.yul\":19362:19364   */\n      0x60\n        /* \"#utility.yul\":19351:19360   */\n      dup4\n        /* \"#utility.yul\":19347:19365   */\n      add\n        /* \"#utility.yul\":19338:19344   */\n      dup5\n        /* \"#utility.yul\":19294:19366   */\n      tag_154\n      jump\t// in\n    tag_389:\n        /* \"#utility.yul\":18729:19373   */\n      swap6\n      swap5\n      pop\n      pop\n      pop\n      pop\n      pop\n      jump\t// out\n        /* \"#utility.yul\":19379:19547   */\n    tag_181:\n        /* \"#utility.yul\":19519:19539   */\n      0x4f6e6c792061646d696e20616c6c6f7765640000000000000000000000000000\n        /* \"#utility.yul\":19515:19516   */\n      0x00\n        /* \"#utility.yul\":19507:19513   */\n      dup3\n        /* \"#utility.yul\":19503:19517   */\n      add\n        /* \"#utility.yul\":19496:19540   */\n      mstore\n        /* \"#utility.yul\":19379:19547   */\n      pop\n      jump\t// out\n        /* \"#utility.yul\":19553:19919   */\n    tag_182:\n        /* \"#utility.yul\":19695:19698   */\n      0x00\n        /* \"#utility.yul\":19716:19783   */\n      tag_392\n        /* \"#utility.yul\":19780:19782   */\n      0x12\n        /* \"#utility.yul\":19775:19778   */\n      dup4\n        /* \"#utility.yul\":19716:19783   */\n      tag_150\n      jump\t// in\n    tag_392:\n        /* \"#utility.yul\":19709:19783   */\n      swap2\n      pop\n        /* \"#utility.yul\":19792:19885   */\n      tag_393\n        /* \"#utility.yul\":19881:19884   */\n      dup3\n        /* \"#utility.yul\":19792:19885   */\n      tag_181\n      jump\t// in\n    tag_393:\n        /* \"#utility.yul\":19910:19912   */\n      0x20\n        /* \"#utility.yul\":19905:19908   */\n      dup3\n        /* \"#utility.yul\":19901:19913   */\n      add\n        /* \"#utility.yul\":19894:19913   */\n      swap1\n      pop\n        /* \"#utility.yul\":19553:19919   */\n      swap2\n      swap1\n      pop\n      jump\t// out\n        /* \"#utility.yul\":19925:20344   */\n    tag_70:\n        /* \"#utility.yul\":20091:20095   */\n      0x00\n        /* \"#utility.yul\":20129:20131   */\n      0x20\n        /* \"#utility.yul\":20118:20127   */\n      dup3\n        /* \"#utility.yul\":20114:20132   */\n      add\n        /* \"#utility.yul\":20106:20132   */\n      swap1\n      pop\n        /* \"#utility.yul\":20178:20187   */\n      dup2\n        /* \"#utility.yul\":20172:20176   */\n      dup2\n        /* \"#utility.yul\":20168:20188   */\n      sub\n        /* \"#utility.yul\":20164:20165   */\n      0x00\n        /* \"#utility.yul\":20153:20162   */\n      dup4\n        /* \"#utility.yul\":20149:20166   */\n      add\n        /* \"#utility.yul\":20142:20189   */\n      mstore\n        /* \"#utility.yul\":20206:20337   */\n      tag_395\n        /* \"#utility.yul\":20332:20336   */\n      dup2\n        /* \"#utility.yul\":20206:20337   */\n      tag_182\n      jump\t// in\n    tag_395:\n        /* \"#utility.yul\":20198:20337   */\n      swap1\n      pop\n        /* \"#utility.yul\":19925:20344   */\n      swap2\n      swap1\n      pop\n      jump\t// out\n        /* \"#utility.yul\":20350:20509   */\n    tag_183:\n        /* \"#utility.yul\":20490:20501   */\n      0x4e6f20657363726f770000000000000000000000000000000000000000000000\n        /* \"#utility.yul\":20486:20487   */\n      0x00\n        /* \"#utility.yul\":20478:20484   */\n      dup3\n        /* \"#utility.yul\":20474:20488   */\n      add\n        /* \"#utility.yul\":20467:20502   */\n      mstore\n        /* \"#utility.yul\":20350:20509   */\n      pop\n      jump\t// out\n        /* \"#utility.yul\":20515:20880   */\n    tag_184:\n        /* \"#utility.yul\":20657:20660   */\n      0x00\n        /* \"#utility.yul\":20678:20744   */\n      tag_398\n        /* \"#utility.yul\":20742:20743   */\n      0x09\n        /* \"#utility.yul\":20737:20740   */\n      dup4\n        /* \"#utility.yul\":20678:20744   */\n      tag_150\n      jump\t// in\n    tag_398:\n        /* \"#utility.yul\":20671:20744   */\n      swap2\n      pop\n        /* \"#utility.yul\":20753:20846   */\n      tag_399\n        /* \"#utility.yul\":20842:20845   */\n      dup3\n        /* \"#utility.yul\":20753:20846   */\n      tag_183\n      jump\t// in\n    tag_399:\n        /* \"#utility.yul\":20871:20873   */\n      0x20\n        /* \"#utility.yul\":20866:20869   */\n      dup3\n        /* \"#utility.yul\":20862:20874   */\n      add\n        /* \"#utility.yul\":20855:20874   */\n      swap1\n      pop\n        /* \"#utility.yul\":20515:20880   */\n      swap2\n      swap1\n      pop\n      jump\t// out\n        /* \"#utility.yul\":20886:21305   */\n    tag_75:\n        /* \"#utility.yul\":21052:21056   */\n      0x00\n        /* \"#utility.yul\":21090:21092   */\n      0x20\n        /* \"#utility.yul\":21079:21088   */\n      dup3\n        /* \"#utility.yul\":21075:21093   */\n      add\n        /* \"#utility.yul\":21067:21093   */\n      swap1\n      pop\n        /* \"#utility.yul\":21139:21148   */\n      dup2\n        /* \"#utility.yul\":21133:21137   */\n      dup2\n        /* \"#utility.yul\":21129:21149   */\n      sub\n        /* \"#utility.yul\":21125:21126   */\n      0x00\n        /* \"#utility.yul\":21114:21123   */\n      dup4\n        /* \"#utility.yul\":21110:21127   */\n      add\n        /* \"#utility.yul\":21103:21150   */\n      mstore\n        /* \"#utility.yul\":21167:21298   */\n      tag_401\n        /* \"#utility.yul\":21293:21297   */\n      dup2\n        /* \"#utility.yul\":21167:21298   */\n      tag_184\n      jump\t// in\n    tag_401:\n        /* \"#utility.yul\":21159:21298   */\n      swap1\n      pop\n        /* \"#utility.yul\":20886:21305   */\n      swap2\n      swap1\n      pop\n      jump\t// out\n        /* \"#utility.yul\":21311:21477   */\n    tag_185:\n        /* \"#utility.yul\":21451:21469   */\n      0x416c72656164792072656c656173656400000000000000000000000000000000\n        /* \"#utility.yul\":21447:21448   */\n      0x00\n        /* \"#utility.yul\":21439:21445   */\n      dup3\n        /* \"#utility.yul\":21435:21449   */\n      add\n        /* \"#utility.yul\":21428:21470   */\n      mstore\n        /* \"#utility.yul\":21311:21477   */\n      pop\n      jump\t// out\n        /* \"#utility.yul\":21483:21849   */\n    tag_186:\n        /* \"#utility.yul\":21625:21628   */\n      0x00\n        /* \"#utility.yul\":21646:21713   */\n      tag_404\n        /* \"#utility.yul\":21710:21712   */\n      0x10\n        /* \"#utility.yul\":21705:21708   */\n      dup4\n        /* \"#utility.yul\":21646:21713   */\n      tag_150\n      jump\t// in\n    tag_404:\n        /* \"#utility.yul\":21639:21713   */\n      swap2\n      pop\n        /* \"#utility.yul\":21722:21815   */\n      tag_405\n        /* \"#utility.yul\":21811:21814   */\n      dup3\n        /* \"#utility.yul\":21722:21815   */\n      tag_185\n      jump\t// in\n    tag_405:\n        /* \"#utility.yul\":21840:21842   */\n      0x20\n        /* \"#utility.yul\":21835:21838   */\n      dup3\n        /* \"#utility.yul\":21831:21843   */\n      add\n        /* \"#utility.yul\":21824:21843   */\n      swap1\n      pop\n        /* \"#utility.yul\":21483:21849   */\n      swap2\n      swap1\n      pop\n      jump\t// out\n        /* \"#utility.yul\":21855:22274   */\n    tag_78:\n        /* \"#utility.yul\":22021:22025   */\n      0x00\n        /* \"#utility.yul\":22059:22061   */\n      0x20\n        /* \"#utility.yul\":22048:22057   */\n      dup3\n        /* \"#utility.yul\":22044:22062   */\n      add\n        /* \"#utility.yul\":22036:22062   */\n      swap1\n      pop\n        /* \"#utility.yul\":22108:22117   */\n      dup2\n        /* \"#utility.yul\":22102:22106   */\n      dup2\n        /* \"#utility.yul\":22098:22118   */\n      sub\n        /* \"#utility.yul\":22094:22095   */\n      0x00\n        /* \"#utility.yul\":22083:22092   */\n      dup4\n        /* \"#utility.yul\":22079:22096   */\n      add\n        /* \"#utility.yul\":22072:22119   */\n      mstore\n        /* \"#utility.yul\":22136:22267   */\n      tag_407\n        /* \"#utility.yul\":22262:22266   */\n      dup2\n        /* \"#utility.yul\":22136:22267   */\n      tag_186\n      jump\t// in\n    tag_407:\n        /* \"#utility.yul\":22128:22267   */\n      swap1\n      pop\n        /* \"#utility.yul\":21855:22274   */\n      swap2\n      swap1\n      pop\n      jump\t// out\n        /* \"#utility.yul\":22280:22444   */\n    tag_187:\n        /* \"#utility.yul\":22420:22436   */\n      0x416c726561647920657869737473000000000000000000000000000000000000\n        /* \"#utility.yul\":22416:22417   */\n      0x00\n        /* \"#utility.yul\":22408:22414   */\n      dup3\n        /* \"#utility.yul\":22404:22418   */\n      add\n        /* \"#utility.yul\":22397:22437   */\n      mstore\n        /* \"#utility.yul\":22280:22444   */\n      pop\n      jump\t// out\n        /* \"#utility.yul\":22450:22816   */\n    tag_188:\n        /* \"#utility.yul\":22592:22595   */\n      0x00\n        /* \"#utility.yul\":22613:22680   */\n      tag_410\n        /* \"#utility.yul\":22677:22679   */\n      0x0e\n        /* \"#utility.yul\":22672:22675   */\n      dup4\n        /* \"#utility.yul\":22613:22680   */\n      tag_150\n      jump\t// in\n    tag_410:\n        /* \"#utility.yul\":22606:22680   */\n      swap2\n      pop\n        /* \"#utility.yul\":22689:22782   */\n      tag_411\n        /* \"#utility.yul\":22778:22781   */\n      dup3\n        /* \"#utility.yul\":22689:22782   */\n      tag_187\n      jump\t// in\n    tag_411:\n        /* \"#utility.yul\":22807:22809   */\n      0x20\n        /* \"#utility.yul\":22802:22805   */\n      dup3\n        /* \"#utility.yul\":22798:22810   */\n      add\n        /* \"#utility.yul\":22791:22810   */\n      swap1\n      pop\n        /* \"#utility.yul\":22450:22816   */\n      swap2\n      swap1\n      pop\n      jump\t// out\n        /* \"#utility.yul\":22822:23241   */\n    tag_109:\n        /* \"#utility.yul\":22988:22992   */\n      0x00\n        /* \"#utility.yul\":23026:23028   */\n      0x20\n        /* \"#utility.yul\":23015:23024   */\n      dup3\n        /* \"#utility.yul\":23011:23029   */\n      add\n        /* \"#utility.yul\":23003:23029   */\n      swap1\n      pop\n        /* \"#utility.yul\":23075:23084   */\n      dup2\n        /* \"#utility.yul\":23069:23073   */\n      dup2\n        /* \"#utility.yul\":23065:23085   */\n      sub\n        /* \"#utility.yul\":23061:23062   */\n      0x00\n        /* \"#utility.yul\":23050:23059   */\n      dup4\n        /* \"#utility.yul\":23046:23063   */\n      add\n        /* \"#utility.yul\":23039:23086   */\n      mstore\n        /* \"#utility.yul\":23103:23234   */\n      tag_413\n        /* \"#utility.yul\":23229:23233   */\n      dup2\n        /* \"#utility.yul\":23103:23234   */\n      tag_188\n      jump\t// in\n    tag_413:\n        /* \"#utility.yul\":23095:23234   */\n      swap1\n      pop\n        /* \"#utility.yul\":22822:23241   */\n      swap2\n      swap1\n      pop\n      jump\t// out\n        /* \"#utility.yul\":23247:23412   */\n    tag_189:\n        /* \"#utility.yul\":23387:23404   */\n      0x457363726f772072657175697265640000000000000000000000000000000000\n        /* \"#utility.yul\":23383:23384   */\n      0x00\n        /* \"#utility.yul\":23375:23381   */\n      dup3\n        /* \"#utility.yul\":23371:23385   */\n      add\n        /* \"#utility.yul\":23364:23405   */\n      mstore\n        /* \"#utility.yul\":23247:23412   */\n      pop\n      jump\t// out\n        /* \"#utility.yul\":23418:23784   */\n    tag_190:\n        /* \"#utility.yul\":23560:23563   */\n      0x00\n        /* \"#utility.yul\":23581:23648   */\n      tag_416\n        /* \"#utility.yul\":23645:23647   */\n      0x0f\n        /* \"#utility.yul\":23640:23643   */\n      dup4\n        /* \"#utility.yul\":23581:23648   */\n      tag_150\n      jump\t// in\n    tag_416:\n        /* \"#utility.yul\":23574:23648   */\n      swap2\n      pop\n        /* \"#utility.yul\":23657:23750   */\n      tag_417\n        /* \"#utility.yul\":23746:23749   */\n      dup3\n        /* \"#utility.yul\":23657:23750   */\n      tag_189\n      jump\t// in\n    tag_417:\n        /* \"#utility.yul\":23775:23777   */\n      0x20\n        /* \"#utility.yul\":23770:23773   */\n      dup3\n        /* \"#utility.yul\":23766:23778   */\n      add\n        /* \"#utility.yul\":23759:23778   */\n      swap1\n      pop\n        /* \"#utility.yul\":23418:23784   */\n      swap2\n      swap1\n      pop\n      jump\t// out\n        /* \"#utility.yul\":23790:24209   */\n    tag_113:\n        /* \"#utility.yul\":23956:23960   */\n      0x00\n        /* \"#utility.yul\":23994:23996   */\n      0x20\n        /* \"#utility.yul\":23983:23992   */\n      dup3\n        /* \"#utility.yul\":23979:23997   */\n      add\n        /* \"#utility.yul\":23971:23997   */\n      swap1\n      pop\n        /* \"#utility.yul\":24043:24052   */\n      dup2\n        /* \"#utility.yul\":24037:24041   */\n      dup2\n        /* \"#utility.yul\":24033:24053   */\n      sub\n        /* \"#utility.yul\":24029:24030   */\n      0x00\n        /* \"#utility.yul\":24018:24027   */\n      dup4\n        /* \"#utility.yul\":24014:24031   */\n      add\n        /* \"#utility.yul\":24007:24054   */\n      mstore\n        /* \"#utility.yul\":24071:24202   */\n      tag_419\n        /* \"#utility.yul\":24197:24201   */\n      dup2\n        /* \"#utility.yul\":24071:24202   */\n      tag_190\n      jump\t// in\n    tag_419:\n        /* \"#utility.yul\":24063:24202   */\n      swap1\n      pop\n        /* \"#utility.yul\":23790:24209   */\n      swap2\n      swap1\n      pop\n      jump\t// out\n        /* \"#utility.yul\":24215:24748   */\n    tag_122:\n        /* \"#utility.yul\":24384:24388   */\n      0x00\n        /* \"#utility.yul\":24422:24424   */\n      0x60\n        /* \"#utility.yul\":24411:24420   */\n      dup3\n        /* \"#utility.yul\":24407:24425   */\n      add\n        /* \"#utility.yul\":24399:24425   */\n      swap1\n      pop\n        /* \"#utility.yul\":24471:24480   */\n      dup2\n        /* \"#utility.yul\":24465:24469   */\n      dup2\n        /* \"#utility.yul\":24461:24481   */\n      sub\n        /* \"#utility.yul\":24457:24458   */\n      0x00\n        /* \"#utility.yul\":24446:24455   */\n      dup4\n        /* \"#utility.yul\":24442:24459   */\n      add\n        /* \"#utility.yul\":24435:24482   */\n      mstore\n        /* \"#utility.yul\":24499:24577   */\n      tag_421\n        /* \"#utility.yul\":24572:24576   */\n      dup2\n        /* \"#utility.yul\":24563:24569   */\n      dup7\n        /* \"#utility.yul\":24499:24577   */\n      tag_151\n      jump\t// in\n    tag_421:\n        /* \"#utility.yul\":24491:24577   */\n      swap1\n      pop\n        /* \"#utility.yul\":24587:24659   */\n      tag_422\n        /* \"#utility.yul\":24655:24657   */\n      0x20\n        /* \"#utility.yul\":24644:24653   */\n      dup4\n        /* \"#utility.yul\":24640:24658   */\n      add\n        /* \"#utility.yul\":24631:24637   */\n      dup6\n        /* \"#utility.yul\":24587:24659   */\n      tag_152\n      jump\t// in\n    tag_422:\n        /* \"#utility.yul\":24669:24741   */\n      tag_423\n        /* \"#utility.yul\":24737:24739   */\n      0x40\n        /* \"#utility.yul\":24726:24735   */\n      dup4\n        /* \"#utility.yul\":24722:24740   */\n      add\n        /* \"#utility.yul\":24713:24719   */\n      dup5\n        /* \"#utility.yul\":24669:24741   */\n      tag_154\n      jump\t// in\n    tag_423:\n        /* \"#utility.yul\":24215:24748   */\n      swap5\n      swap4\n      pop\n      pop\n      pop\n      pop\n      jump\t// out\n\n    auxdata: 0xa264697066735822122038bd2c7f2682a0e9fdf301b9b3754e4079a578184b6922e7d20bf385e0ff4e7a64736f6c634300081e0033\n}\n",
				"bytecode": {
					"linkReferences": {},
					"object": "6080604052348015600e575f5ffd5b503360025f6101000a81548173ffffffffffffffffffffffffffffffffffffffff021916908373ffffffffffffffffffffffffffffffffffffffff1602179055506119208061005c5f395ff3fe608060405260043610610054575f3560e01c80631cb6838914610058578063533b8f4d14610080578063608c29a3146100bc578063b16c6ee7146100e4578063da53726614610125578063f851a44014610141575b5f5ffd5b348015610063575f5ffd5b5061007e60048036038101906100799190610ea3565b61016b565b005b34801561008b575f5ffd5b506100a660048036038101906100a19190610efd565b6103bf565b6040516100b3919061105f565b60405180910390f35b3480156100c7575f5ffd5b506100e260048036038101906100dd9190610efd565b6104b1565b005b3480156100ef575f5ffd5b5061010a60048036038101906101059190610efd565b6106f3565b60405161011c96959493929190611108565b60405180910390f35b61013f600480360381019061013a919061119f565b610a13565b005b34801561014c575f5ffd5b50610155610cd7565b6040516101629190611257565b60405180910390f35b815f8160405161017b91906112aa565b90815260200160405180910390206007015f9054906101000a900460ff166101d8576040517f08c379a00000000000000000000000000000000000000000000000000000000081526004016101cf9061130a565b60405180910390fd5b5f5f846040516101e891906112aa565b90815260200160405180910390209050806003015f9054906101000a900473ffffffffffffffffffffffffffffffffffffffff1673ffffffffffffffffffffffffffffffffffffffff163373ffffffffffffffffffffffffffffffffffffffff1614610289576040517f08c379a000000000000000000000000000000000000000000000000000000000815260040161028090611372565b60405180910390fd5b5f816003015f9054906101000a900473ffffffffffffffffffffffffffffffffffffffff16905083826003015f6101000a81548173ffffffffffffffffffffffffffffffffffffffff021916908373ffffffffffffffffffffffffffffffffffffffff16021790555042826004018190555060018560405161030b91906112aa565b90815260200160405180910390208060018154018082558091505060019003905f5260205f20015f6040518060400160405280600b81526020017f5472616e736665727265640000000000000000000000000000000000000000008152509091909150908161037a919061158d565b507f24740c4411179df970c0a5e668198a21a823c0e7c25b138c34acf7c1b7fed0cd858286426040516103b0949392919061165c565b60405180910390a15050505050565b60606001826040516103d191906112aa565b9081526020016040518091039020805480602002602001604051908101604052809291908181526020015f905b828210156104a6578382905f5260205f2001805461041b906113bd565b80601f0160208091040260200160405190810160405280929190818152602001828054610447906113bd565b80156104925780601f1061046957610100808354040283529160200191610492565b820191905f5260205f20905b81548152906001019060200180831161047557829003601f168201915b5050505050815260200190600101906103fe565b505050509050919050565b60025f9054906101000a900473ffffffffffffffffffffffffffffffffffffffff1673ffffffffffffffffffffffffffffffffffffffff163373ffffffffffffffffffffffffffffffffffffffff1614610540576040517f08c379a0000000000000000000000000000000000000000000000000000000008152600401610537906116f0565b60405180910390fd5b5f5f8260405161055091906112aa565b90815260200160405180910390209050806005015f9054906101000a900460ff166105b0576040517f08c379a00000000000000000000000000000000000000000000000000000000081526004016105a790611758565b60405180910390fd5b5f8160060154116105f6576040517f08c379a00000000000000000000000000000000000000000000000000000000081526004016105ed906117c0565b60405180910390fd5b5f816006015490505f8260060181905550816003015f9054906101000a900473ffffffffffffffffffffffffffffffffffffffff1673ffffffffffffffffffffffffffffffffffffffff166108fc8290811502906040515f60405180830381858888f1935050505015801561066d573d5f5f3e3d5ffd5b5060018360405161067e91906112aa565b90815260200160405180910390208060018154018082558091505060019003905f5260205f20015f6040518060400160405280600f81526020017f457363726f772052656c65617365640000000000000000000000000000000000815250909190915090816106ed919061158d565b50505050565b6060805f5f5f5f865f8160405161070a91906112aa565b90815260200160405180910390206007015f9054906101000a900460ff16610767576040517f08c379a000000000000000000000000000000000000000000000000000000000815260040161075e9061130a565b60405180910390fd5b5f5f8960405161077791906112aa565b9081526020016040518091039020604051806101000160405290815f820180546107a0906113bd565b80601f01602080910402602001604051908101604052809291908181526020018280546107cc906113bd565b80156108175780601f106107ee57610100808354040283529160200191610817565b820191905f5260205f20905b8154815290600101906020018083116107fa57829003601f168201915b50505050508152602001600182018054610830906113bd565b80601f016020809104026020016040519081016040528092919081815260200182805461085c906113bd565b80156108a75780601f1061087e576101008083540402835291602001916108a7565b820191905f5260205f20905b81548152906001019060200180831161088a57829003601f168201915b505050505081526020016002820180546108c0906113bd565b80601f01602080910402602001604051908101604052809291908181526020018280546108ec906113bd565b80156109375780601f1061090e57610100808354040283529160200191610937565b820191905f5260205f20905b81548152906001019060200180831161091a57829003601f168201915b50505050508152602001600382015f9054906101000a900473ffffffffffffffffffffffffffffffffffffffff1673ffffffffffffffffffffffffffffffffffffffff1673ffffffffffffffffffffffffffffffffffffffff16815260200160048201548152602001600582015f9054906101000a900460ff1615151515815260200160068201548152602001600782015f9054906101000a900460ff1615151515815250509050805f01518160400151826060015183608001518460a001518560c00151975097509750975097509750505091939550919395565b5f84604051610a2291906112aa565b90815260200160405180910390206007015f9054906101000a900460ff1615610a80576040517f08c379a0000000000000000000000000000000000000000000000000000000008152600401610a7790611828565b60405180910390fd5b8015610ac9575f3411610ac8576040517f08c379a0000000000000000000000000000000000000000000000000000000008152600401610abf90611890565b60405180910390fd5b5b6040518061010001604052808581526020018481526020018381526020013373ffffffffffffffffffffffffffffffffffffffff1681526020014281526020018215158152602001348152602001600115158152505f85604051610b2d91906112aa565b90815260200160405180910390205f820151815f019081610b4e919061158d565b506020820151816001019081610b64919061158d565b506040820151816002019081610b7a919061158d565b506060820151816003015f6101000a81548173ffffffffffffffffffffffffffffffffffffffff021916908373ffffffffffffffffffffffffffffffffffffffff1602179055506080820151816004015560a0820151816005015f6101000a81548160ff02191690831515021790555060c0820151816006015560e0820151816007015f6101000a81548160ff021916908315150217905550905050600184604051610c2691906112aa565b90815260200160405180910390208060018154018082558091505060019003905f5260205f20015f6040518060400160405280601081526020017f45766964656e636520437265617465640000000000000000000000000000000081525090919091509081610c95919061158d565b507f5b3dbb58b6a794aae9133347ea6c3c61ec37c12c1a0ce358aae8518e24cd40c8843342604051610cc9939291906118ae565b60405180910390a150505050565b60025f9054906101000a900473ffffffffffffffffffffffffffffffffffffffff1681565b5f604051905090565b5f5ffd5b5f5ffd5b5f5ffd5b5f5ffd5b5f601f19601f8301169050919050565b7f4e487b71000000000000000000000000000000000000000000000000000000005f52604160045260245ffd5b610d5b82610d15565b810181811067ffffffffffffffff82111715610d7a57610d79610d25565b5b80604052505050565b5f610d8c610cfc565b9050610d988282610d52565b919050565b5f67ffffffffffffffff821115610db757610db6610d25565b5b610dc082610d15565b9050602081019050919050565b828183375f83830152505050565b5f610ded610de884610d9d565b610d83565b905082815260208101848484011115610e0957610e08610d11565b5b610e14848285610dcd565b509392505050565b5f82601f830112610e3057610e2f610d0d565b5b8135610e40848260208601610ddb565b91505092915050565b5f73ffffffffffffffffffffffffffffffffffffffff82169050919050565b5f610e7282610e49565b9050919050565b610e8281610e68565b8114610e8c575f5ffd5b50565b5f81359050610e9d81610e79565b92915050565b5f5f60408385031215610eb957610eb8610d05565b5b5f83013567ffffffffffffffff811115610ed657610ed5610d09565b5b610ee285828601610e1c565b9250506020610ef385828601610e8f565b9150509250929050565b5f60208284031215610f1257610f11610d05565b5b5f82013567ffffffffffffffff811115610f2f57610f2e610d09565b5b610f3b84828501610e1c565b91505092915050565b5f81519050919050565b5f82825260208201905092915050565b5f819050602082019050919050565b5f81519050919050565b5f82825260208201905092915050565b8281835e5f83830152505050565b5f610f9f82610f6d565b610fa98185610f77565b9350610fb9818560208601610f87565b610fc281610d15565b840191505092915050565b5f610fd88383610f95565b905092915050565b5f602082019050919050565b5f610ff682610f44565b6110008185610f4e565b93508360208202850161101285610f5e565b805f5b8581101561104d578484038952815161102e8582610fcd565b945061103983610fe0565b925060208a01995050600181019050611015565b50829750879550505050505092915050565b5f6020820190508181035f8301526110778184610fec565b905092915050565b5f82825260208201905092915050565b5f61109982610f6d565b6110a3818561107f565b93506110b3818560208601610f87565b6110bc81610d15565b840191505092915050565b6110d081610e68565b82525050565b5f819050919050565b6110e8816110d6565b82525050565b5f8115159050919050565b611102816110ee565b82525050565b5f60c0820190508181035f830152611120818961108f565b90508181036020830152611134818861108f565b905061114360408301876110c7565b61115060608301866110df565b61115d60808301856110f9565b61116a60a08301846110df565b979650505050505050565b61117e816110ee565b8114611188575f5ffd5b50565b5f8135905061119981611175565b92915050565b5f5f5f5f608085870312156111b7576111b6610d05565b5b5f85013567ffffffffffffffff8111156111d4576111d3610d09565b5b6111e087828801610e1c565b945050602085013567ffffffffffffffff81111561120157611200610d09565b5b61120d87828801610e1c565b935050604085013567ffffffffffffffff81111561122e5761122d610d09565b5b61123a87828801610e1c565b925050606061124b8782880161118b565b91505092959194509250565b5f60208201905061126a5f8301846110c7565b92915050565b5f81905092915050565b5f61128482610f6d565b61128e8185611270565b935061129e818560208601610f87565b80840191505092915050565b5f6112b5828461127a565b915081905092915050565b7f45766964656e6365206e6f7420666f756e6400000000000000000000000000005f82015250565b5f6112f460128361107f565b91506112ff826112c0565b602082019050919050565b5f6020820190508181035f830152611321816112e8565b9050919050565b7f4e6f74206f776e657200000000000000000000000000000000000000000000005f82015250565b5f61135c60098361107f565b915061136782611328565b602082019050919050565b5f6020820190508181035f83015261138981611350565b9050919050565b7f4e487b71000000000000000000000000000000000000000000000000000000005f52602260045260245ffd5b5f60028204905060018216806113d457607f821691505b6020821081036113e7576113e6611390565b5b50919050565b5f819050815f5260205f209050919050565b5f6020601f8301049050919050565b5f82821b905092915050565b5f600883026114497fffffffffffffffffffffffffffffffffffffffffffffffffffffffffffffffff8261140e565b611453868361140e565b95508019841693508086168417925050509392505050565b5f819050919050565b5f61148e611489611484846110d6565b61146b565b6110d6565b9050919050565b5f819050919050565b6114a783611474565b6114bb6114b382611495565b84845461141a565b825550505050565b5f5f905090565b6114d26114c3565b6114dd81848461149e565b505050565b5b81811015611500576114f55f826114ca565b6001810190506114e3565b5050565b601f82111561154557611516816113ed565b61151f846113ff565b8101602085101561152e578190505b61154261153a856113ff565b8301826114e2565b50505b505050565b5f82821c905092915050565b5f6115655f198460080261154a565b1980831691505092915050565b5f61157d8383611556565b9150826002028217905092915050565b61159682610f6d565b67ffffffffffffffff8111156115af576115ae610d25565b5b6115b982546113bd565b6115c4828285611504565b5f60209050601f8311600181146115f5575f84156115e3578287015190505b6115ed8582611572565b865550611654565b601f198416611603866113ed565b5f5b8281101561162a57848901518255600182019150602085019450602081019050611605565b868310156116475784890151611643601f891682611556565b8355505b6001600288020188555050505b505050505050565b5f6080820190508181035f830152611674818761108f565b905061168360208301866110c7565b61169060408301856110c7565b61169d60608301846110df565b95945050505050565b7f4f6e6c792061646d696e20616c6c6f77656400000000000000000000000000005f82015250565b5f6116da60128361107f565b91506116e5826116a6565b602082019050919050565b5f6020820190508181035f830152611707816116ce565b9050919050565b7f4e6f20657363726f7700000000000000000000000000000000000000000000005f82015250565b5f61174260098361107f565b915061174d8261170e565b602082019050919050565b5f6020820190508181035f83015261176f81611736565b9050919050565b7f416c72656164792072656c6561736564000000000000000000000000000000005f82015250565b5f6117aa60108361107f565b91506117b582611776565b602082019050919050565b5f6020820190508181035f8301526117d78161179e565b9050919050565b7f416c7265616479206578697374730000000000000000000000000000000000005f82015250565b5f611812600e8361107f565b915061181d826117de565b602082019050919050565b5f6020820190508181035f83015261183f81611806565b9050919050565b7f457363726f7720726571756972656400000000000000000000000000000000005f82015250565b5f61187a600f8361107f565b915061188582611846565b602082019050919050565b5f6020820190508181035f8301526118a78161186e565b9050919050565b5f6060820190508181035f8301526118c6818661108f565b90506118d560208301856110c7565b6118e260408301846110df565b94935050505056fea264697066735822122038bd2c7f2682a0e9fdf301b9b3754e4079a578184b6922e7d20bf385e0ff4e7a64736f6c634300081e0033",
					"opcodes": "PUSH1 0x80 PUSH1 0x40 MSTORE CALLVALUE DUP1 ISZERO PUSH1 0xE JUMPI PUSH0 PUSH0 REVERT JUMPDEST POP CALLER PUSH1 0x2 PUSH0 PUSH2 0x100 EXP DUP2 SLOAD DUP2 PUSH20 0xFFFFFFFFFFFFFFFFFFFFFFFFFFFFFFFFFFFFFFFF MUL NOT AND SWAP1 DUP4 PUSH20 0xFFFFFFFFFFFFFFFFFFFFFFFFFFFFFFFFFFFFFFFF AND MUL OR SWAP1 SSTORE POP PUSH2 0x1920 DUP1 PUSH2 0x5C PUSH0 CODECOPY PUSH0 RETURN INVALID PUSH1 0x80 PUSH1 0x40 MSTORE PUSH1 0x4 CALLDATASIZE LT PUSH2 0x54 JUMPI PUSH0 CALLDATALOAD PUSH1 0xE0 SHR DUP1 PUSH4 0x1CB68389 EQ PUSH2 0x58 JUMPI DUP1 PUSH4 0x533B8F4D EQ PUSH2 0x80 JUMPI DUP1 PUSH4 0x608C29A3 EQ PUSH2 0xBC JUMPI DUP1 PUSH4 0xB16C6EE7 EQ PUSH2 0xE4 JUMPI DUP1 PUSH4 0xDA537266 EQ PUSH2 0x125 JUMPI DUP1 PUSH4 0xF851A440 EQ PUSH2 0x141 JUMPI JUMPDEST PUSH0 PUSH0 REVERT JUMPDEST CALLVALUE DUP1 ISZERO PUSH2 0x63 JUMPI PUSH0 PUSH0 REVERT JUMPDEST POP PUSH2 0x7E PUSH1 0x4 DUP1 CALLDATASIZE SUB DUP2 ADD SWAP1 PUSH2 0x79 SWAP2 SWAP1 PUSH2 0xEA3 JUMP JUMPDEST PUSH2 0x16B JUMP JUMPDEST STOP JUMPDEST CALLVALUE DUP1 ISZERO PUSH2 0x8B JUMPI PUSH0 PUSH0 REVERT JUMPDEST POP PUSH2 0xA6 PUSH1 0x4 DUP1 CALLDATASIZE SUB DUP2 ADD SWAP1 PUSH2 0xA1 SWAP2 SWAP1 PUSH2 0xEFD JUMP JUMPDEST PUSH2 0x3BF JUMP JUMPDEST PUSH1 0x40 MLOAD PUSH2 0xB3 SWAP2 SWAP1 PUSH2 0x105F JUMP JUMPDEST PUSH1 0x40 MLOAD DUP1 SWAP2 SUB SWAP1 RETURN JUMPDEST CALLVALUE DUP1 ISZERO PUSH2 0xC7 JUMPI PUSH0 PUSH0 REVERT JUMPDEST POP PUSH2 0xE2 PUSH1 0x4 DUP1 CALLDATASIZE SUB DUP2 ADD SWAP1 PUSH2 0xDD SWAP2 SWAP1 PUSH2 0xEFD JUMP JUMPDEST PUSH2 0x4B1 JUMP JUMPDEST STOP JUMPDEST CALLVALUE DUP1 ISZERO PUSH2 0xEF JUMPI PUSH0 PUSH0 REVERT JUMPDEST POP PUSH2 0x10A PUSH1 0x4 DUP1 CALLDATASIZE SUB DUP2 ADD SWAP1 PUSH2 0x105 SWAP2 SWAP1 PUSH2 0xEFD JUMP JUMPDEST PUSH2 0x6F3 JUMP JUMPDEST PUSH1 0x40 MLOAD PUSH2 0x11C SWAP7 SWAP6 SWAP5 SWAP4 SWAP3 SWAP2 SWAP1 PUSH2 0x1108 JUMP JUMPDEST PUSH1 0x40 MLOAD DUP1 SWAP2 SUB SWAP1 RETURN JUMPDEST PUSH2 0x13F PUSH1 0x4 DUP1 CALLDATASIZE SUB DUP2 ADD SWAP1 PUSH2 0x13A SWAP2 SWAP1 PUSH2 0x119F JUMP JUMPDEST PUSH2 0xA13 JUMP JUMPDEST STOP JUMPDEST CALLVALUE DUP1 ISZERO PUSH2 0x14C JUMPI PUSH0 PUSH0 REVERT JUMPDEST POP PUSH2 0x155 PUSH2 0xCD7 JUMP JUMPDEST PUSH1 0x40 MLOAD PUSH2 0x162 SWAP2 SWAP1 PUSH2 0x1257 JUMP JUMPDEST PUSH1 0x40 MLOAD DUP1 SWAP2 SUB SWAP1 RETURN JUMPDEST DUP2 PUSH0 DUP2 PUSH1 0x40 MLOAD PUSH2 0x17B SWAP2 SWAP1 PUSH2 0x12AA JUMP JUMPDEST SWAP1 DUP2 MSTORE PUSH1 0x20 ADD PUSH1 0x40 MLOAD DUP1 SWAP2 SUB SWAP1 KECCAK256 PUSH1 0x7 ADD PUSH0 SWAP1 SLOAD SWAP1 PUSH2 0x100 EXP SWAP1 DIV PUSH1 0xFF AND PUSH2 0x1D8 JUMPI PUSH1 0x40 MLOAD PUSH32 0x8C379A000000000000000000000000000000000000000000000000000000000 DUP2 MSTORE PUSH1 0x4 ADD PUSH2 0x1CF SWAP1 PUSH2 0x130A JUMP JUMPDEST PUSH1 0x40 MLOAD DUP1 SWAP2 SUB SWAP1 REVERT JUMPDEST PUSH0 PUSH0 DUP5 PUSH1 0x40 MLOAD PUSH2 0x1E8 SWAP2 SWAP1 PUSH2 0x12AA JUMP JUMPDEST SWAP1 DUP2 MSTORE PUSH1 0x20 ADD PUSH1 0x40 MLOAD DUP1 SWAP2 SUB SWAP1 KECCAK256 SWAP1 POP DUP1 PUSH1 0x3 ADD PUSH0 SWAP1 SLOAD SWAP1 PUSH2 0x100 EXP SWAP1 DIV PUSH20 0xFFFFFFFFFFFFFFFFFFFFFFFFFFFFFFFFFFFFFFFF AND PUSH20 0xFFFFFFFFFFFFFFFFFFFFFFFFFFFFFFFFFFFFFFFF AND CALLER PUSH20 0xFFFFFFFFFFFFFFFFFFFFFFFFFFFFFFFFFFFFFFFF AND EQ PUSH2 0x289 JUMPI PUSH1 0x40 MLOAD PUSH32 0x8C379A000000000000000000000000000000000000000000000000000000000 DUP2 MSTORE PUSH1 0x4 ADD PUSH2 0x280 SWAP1 PUSH2 0x1372 JUMP JUMPDEST PUSH1 0x40 MLOAD DUP1 SWAP2 SUB SWAP1 REVERT JUMPDEST PUSH0 DUP2 PUSH1 0x3 ADD PUSH0 SWAP1 SLOAD SWAP1 PUSH2 0x100 EXP SWAP1 DIV PUSH20 0xFFFFFFFFFFFFFFFFFFFFFFFFFFFFFFFFFFFFFFFF AND SWAP1 POP DUP4 DUP3 PUSH1 0x3 ADD PUSH0 PUSH2 0x100 EXP DUP2 SLOAD DUP2 PUSH20 0xFFFFFFFFFFFFFFFFFFFFFFFFFFFFFFFFFFFFFFFF MUL NOT AND SWAP1 DUP4 PUSH20 0xFFFFFFFFFFFFFFFFFFFFFFFFFFFFFFFFFFFFFFFF AND MUL OR SWAP1 SSTORE POP TIMESTAMP DUP3 PUSH1 0x4 ADD DUP2 SWAP1 SSTORE POP PUSH1 0x1 DUP6 PUSH1 0x40 MLOAD PUSH2 0x30B SWAP2 SWAP1 PUSH2 0x12AA JUMP JUMPDEST SWAP1 DUP2 MSTORE PUSH1 0x20 ADD PUSH1 0x40 MLOAD DUP1 SWAP2 SUB SWAP1 KECCAK256 DUP1 PUSH1 0x1 DUP2 SLOAD ADD DUP1 DUP3 SSTORE DUP1 SWAP2 POP POP PUSH1 0x1 SWAP1 SUB SWAP1 PUSH0 MSTORE PUSH1 0x20 PUSH0 KECCAK256 ADD PUSH0 PUSH1 0x40 MLOAD DUP1 PUSH1 0x40 ADD PUSH1 0x40 MSTORE DUP1 PUSH1 0xB DUP2 MSTORE PUSH1 0x20 ADD PUSH32 0x5472616E73666572726564000000000000000000000000000000000000000000 DUP2 MSTORE POP SWAP1 SWAP2 SWAP1 SWAP2 POP SWAP1 DUP2 PUSH2 0x37A SWAP2 SWAP1 PUSH2 0x158D JUMP JUMPDEST POP PUSH32 0x24740C4411179DF970C0A5E668198A21A823C0E7C25B138C34ACF7C1B7FED0CD DUP6 DUP3 DUP7 TIMESTAMP PUSH1 0x40 MLOAD PUSH2 0x3B0 SWAP5 SWAP4 SWAP3 SWAP2 SWAP1 PUSH2 0x165C JUMP JUMPDEST PUSH1 0x40 MLOAD DUP1 SWAP2 SUB SWAP1 LOG1 POP POP POP POP POP JUMP JUMPDEST PUSH1 0x60 PUSH1 0x1 DUP3 PUSH1 0x40 MLOAD PUSH2 0x3D1 SWAP2 SWAP1 PUSH2 0x12AA JUMP JUMPDEST SWAP1 DUP2 MSTORE PUSH1 0x20 ADD PUSH1 0x40 MLOAD DUP1 SWAP2 SUB SWAP1 KECCAK256 DUP1 SLOAD DUP1 PUSH1 0x20 MUL PUSH1 0x20 ADD PUSH1 0x40 MLOAD SWAP1 DUP2 ADD PUSH1 0x40 MSTORE DUP1 SWAP3 SWAP2 SWAP1 DUP2 DUP2 MSTORE PUSH1 0x20 ADD PUSH0 SWAP1 JUMPDEST DUP3 DUP3 LT ISZERO PUSH2 0x4A6 JUMPI DUP4 DUP3 SWAP1 PUSH0 MSTORE PUSH1 0x20 PUSH0 KECCAK256 ADD DUP1 SLOAD PUSH2 0x41B SWAP1 PUSH2 0x13BD JUMP JUMPDEST DUP1 PUSH1 0x1F ADD PUSH1 0x20 DUP1 SWAP2 DIV MUL PUSH1 0x20 ADD PUSH1 0x40 MLOAD SWAP1 DUP2 ADD PUSH1 0x40 MSTORE DUP1 SWAP3 SWAP2 SWAP1 DUP2 DUP2 MSTORE PUSH1 0x20 ADD DUP3 DUP1 SLOAD PUSH2 0x447 SWAP1 PUSH2 0x13BD JUMP JUMPDEST DUP1 ISZERO PUSH2 0x492 JUMPI DUP1 PUSH1 0x1F LT PUSH2 0x469 JUMPI PUSH2 0x100 DUP1 DUP4 SLOAD DIV MUL DUP4 MSTORE SWAP2 PUSH1 0x20 ADD SWAP2 PUSH2 0x492 JUMP JUMPDEST DUP3 ADD SWAP2 SWAP1 PUSH0 MSTORE PUSH1 0x20 PUSH0 KECCAK256 SWAP1 JUMPDEST DUP2 SLOAD DUP2 MSTORE SWAP1 PUSH1 0x1 ADD SWAP1 PUSH1 0x20 ADD DUP1 DUP4 GT PUSH2 0x475 JUMPI DUP3 SWAP1 SUB PUSH1 0x1F AND DUP3 ADD SWAP2 JUMPDEST POP POP POP POP POP DUP2 MSTORE PUSH1 0x20 ADD SWAP1 PUSH1 0x1 ADD SWAP1 PUSH2 0x3FE JUMP JUMPDEST POP POP POP POP SWAP1 POP SWAP2 SWAP1 POP JUMP JUMPDEST PUSH1 0x2 PUSH0 SWAP1 SLOAD SWAP1 PUSH2 0x100 EXP SWAP1 DIV PUSH20 0xFFFFFFFFFFFFFFFFFFFFFFFFFFFFFFFFFFFFFFFF AND PUSH20 0xFFFFFFFFFFFFFFFFFFFFFFFFFFFFFFFFFFFFFFFF AND CALLER PUSH20 0xFFFFFFFFFFFFFFFFFFFFFFFFFFFFFFFFFFFFFFFF AND EQ PUSH2 0x540 JUMPI PUSH1 0x40 MLOAD PUSH32 0x8C379A000000000000000000000000000000000000000000000000000000000 DUP2 MSTORE PUSH1 0x4 ADD PUSH2 0x537 SWAP1 PUSH2 0x16F0 JUMP JUMPDEST PUSH1 0x40 MLOAD DUP1 SWAP2 SUB SWAP1 REVERT JUMPDEST PUSH0 PUSH0 DUP3 PUSH1 0x40 MLOAD PUSH2 0x550 SWAP2 SWAP1 PUSH2 0x12AA JUMP JUMPDEST SWAP1 DUP2 MSTORE PUSH1 0x20 ADD PUSH1 0x40 MLOAD DUP1 SWAP2 SUB SWAP1 KECCAK256 SWAP1 POP DUP1 PUSH1 0x5 ADD PUSH0 SWAP1 SLOAD SWAP1 PUSH2 0x100 EXP SWAP1 DIV PUSH1 0xFF AND PUSH2 0x5B0 JUMPI PUSH1 0x40 MLOAD PUSH32 0x8C379A000000000000000000000000000000000000000000000000000000000 DUP2 MSTORE PUSH1 0x4 ADD PUSH2 0x5A7 SWAP1 PUSH2 0x1758 JUMP JUMPDEST PUSH1 0x40 MLOAD DUP1 SWAP2 SUB SWAP1 REVERT JUMPDEST PUSH0 DUP2 PUSH1 0x6 ADD SLOAD GT PUSH2 0x5F6 JUMPI PUSH1 0x40 MLOAD PUSH32 0x8C379A000000000000000000000000000000000000000000000000000000000 DUP2 MSTORE PUSH1 0x4 ADD PUSH2 0x5ED SWAP1 PUSH2 0x17C0 JUMP JUMPDEST PUSH1 0x40 MLOAD DUP1 SWAP2 SUB SWAP1 REVERT JUMPDEST PUSH0 DUP2 PUSH1 0x6 ADD SLOAD SWAP1 POP PUSH0 DUP3 PUSH1 0x6 ADD DUP2 SWAP1 SSTORE POP DUP2 PUSH1 0x3 ADD PUSH0 SWAP1 SLOAD SWAP1 PUSH2 0x100 EXP SWAP1 DIV PUSH20 0xFFFFFFFFFFFFFFFFFFFFFFFFFFFFFFFFFFFFFFFF AND PUSH20 0xFFFFFFFFFFFFFFFFFFFFFFFFFFFFFFFFFFFFFFFF AND PUSH2 0x8FC DUP3 SWAP1 DUP2 ISZERO MUL SWAP1 PUSH1 0x40 MLOAD PUSH0 PUSH1 0x40 MLOAD DUP1 DUP4 SUB DUP2 DUP6 DUP9 DUP9 CALL SWAP4 POP POP POP POP ISZERO DUP1 ISZERO PUSH2 0x66D JUMPI RETURNDATASIZE PUSH0 PUSH0 RETURNDATACOPY RETURNDATASIZE PUSH0 REVERT JUMPDEST POP PUSH1 0x1 DUP4 PUSH1 0x40 MLOAD PUSH2 0x67E SWAP2 SWAP1 PUSH2 0x12AA JUMP JUMPDEST SWAP1 DUP2 MSTORE PUSH1 0x20 ADD PUSH1 0x40 MLOAD DUP1 SWAP2 SUB SWAP1 KECCAK256 DUP1 PUSH1 0x1 DUP2 SLOAD ADD DUP1 DUP3 SSTORE DUP1 SWAP2 POP POP PUSH1 0x1 SWAP1 SUB SWAP1 PUSH0 MSTORE PUSH1 0x20 PUSH0 KECCAK256 ADD PUSH0 PUSH1 0x40 MLOAD DUP1 PUSH1 0x40 ADD PUSH1 0x40 MSTORE DUP1 PUSH1 0xF DUP2 MSTORE PUSH1 0x20 ADD PUSH32 0x457363726F772052656C65617365640000000000000000000000000000000000 DUP2 MSTORE POP SWAP1 SWAP2 SWAP1 SWAP2 POP SWAP1 DUP2 PUSH2 0x6ED SWAP2 SWAP1 PUSH2 0x158D JUMP JUMPDEST POP POP POP POP JUMP JUMPDEST PUSH1 0x60 DUP1 PUSH0 PUSH0 PUSH0 PUSH0 DUP7 PUSH0 DUP2 PUSH1 0x40 MLOAD PUSH2 0x70A SWAP2 SWAP1 PUSH2 0x12AA JUMP JUMPDEST SWAP1 DUP2 MSTORE PUSH1 0x20 ADD PUSH1 0x40 MLOAD DUP1 SWAP2 SUB SWAP1 KECCAK256 PUSH1 0x7 ADD PUSH0 SWAP1 SLOAD SWAP1 PUSH2 0x100 EXP SWAP1 DIV PUSH1 0xFF AND PUSH2 0x767 JUMPI PUSH1 0x40 MLOAD PUSH32 0x8C379A000000000000000000000000000000000000000000000000000000000 DUP2 MSTORE PUSH1 0x4 ADD PUSH2 0x75E SWAP1 PUSH2 0x130A JUMP JUMPDEST PUSH1 0x40 MLOAD DUP1 SWAP2 SUB SWAP1 REVERT JUMPDEST PUSH0 PUSH0 DUP10 PUSH1 0x40 MLOAD PUSH2 0x777 SWAP2 SWAP1 PUSH2 0x12AA JUMP JUMPDEST SWAP1 DUP2 MSTORE PUSH1 0x20 ADD PUSH1 0x40 MLOAD DUP1 SWAP2 SUB SWAP1 KECCAK256 PUSH1 0x40 MLOAD DUP1 PUSH2 0x100 ADD PUSH1 0x40 MSTORE SWAP1 DUP2 PUSH0 DUP3 ADD DUP1 SLOAD PUSH2 0x7A0 SWAP1 PUSH2 0x13BD JUMP JUMPDEST DUP1 PUSH1 0x1F ADD PUSH1 0x20 DUP1 SWAP2 DIV MUL PUSH1 0x20 ADD PUSH1 0x40 MLOAD SWAP1 DUP2 ADD PUSH1 0x40 MSTORE DUP1 SWAP3 SWAP2 SWAP1 DUP2 DUP2 MSTORE PUSH1 0x20 ADD DUP3 DUP1 SLOAD PUSH2 0x7CC SWAP1 PUSH2 0x13BD JUMP JUMPDEST DUP1 ISZERO PUSH2 0x817 JUMPI DUP1 PUSH1 0x1F LT PUSH2 0x7EE JUMPI PUSH2 0x100 DUP1 DUP4 SLOAD DIV MUL DUP4 MSTORE SWAP2 PUSH1 0x20 ADD SWAP2 PUSH2 0x817 JUMP JUMPDEST DUP3 ADD SWAP2 SWAP1 PUSH0 MSTORE PUSH1 0x20 PUSH0 KECCAK256 SWAP1 JUMPDEST DUP2 SLOAD DUP2 MSTORE SWAP1 PUSH1 0x1 ADD SWAP1 PUSH1 0x20 ADD DUP1 DUP4 GT PUSH2 0x7FA JUMPI DUP3 SWAP1 SUB PUSH1 0x1F AND DUP3 ADD SWAP2 JUMPDEST POP POP POP POP POP DUP2 MSTORE PUSH1 0x20 ADD PUSH1 0x1 DUP3 ADD DUP1 SLOAD PUSH2 0x830 SWAP1 PUSH2 0x13BD JUMP JUMPDEST DUP1 PUSH1 0x1F ADD PUSH1 0x20 DUP1 SWAP2 DIV MUL PUSH1 0x20 ADD PUSH1 0x40 MLOAD SWAP1 DUP2 ADD PUSH1 0x40 MSTORE DUP1 SWAP3 SWAP2 SWAP1 DUP2 DUP2 MSTORE PUSH1 0x20 ADD DUP3 DUP1 SLOAD PUSH2 0x85C SWAP1 PUSH2 0x13BD JUMP JUMPDEST DUP1 ISZERO PUSH2 0x8A7 JUMPI DUP1 PUSH1 0x1F LT PUSH2 0x87E JUMPI PUSH2 0x100 DUP1 DUP4 SLOAD DIV MUL DUP4 MSTORE SWAP2 PUSH1 0x20 ADD SWAP2 PUSH2 0x8A7 JUMP JUMPDEST DUP3 ADD SWAP2 SWAP1 PUSH0 MSTORE PUSH1 0x20 PUSH0 KECCAK256 SWAP1 JUMPDEST DUP2 SLOAD DUP2 MSTORE SWAP1 PUSH1 0x1 ADD SWAP1 PUSH1 0x20 ADD DUP1 DUP4 GT PUSH2 0x88A JUMPI DUP3 SWAP1 SUB PUSH1 0x1F AND DUP3 ADD SWAP2 JUMPDEST POP POP POP POP POP DUP2 MSTORE PUSH1 0x20 ADD PUSH1 0x2 DUP3 ADD DUP1 SLOAD PUSH2 0x8C0 SWAP1 PUSH2 0x13BD JUMP JUMPDEST DUP1 PUSH1 0x1F ADD PUSH1 0x20 DUP1 SWAP2 DIV MUL PUSH1 0x20 ADD PUSH1 0x40 MLOAD SWAP1 DUP2 ADD PUSH1 0x40 MSTORE DUP1 SWAP3 SWAP2 SWAP1 DUP2 DUP2 MSTORE PUSH1 0x20 ADD DUP3 DUP1 SLOAD PUSH2 0x8EC SWAP1 PUSH2 0x13BD JUMP JUMPDEST DUP1 ISZERO PUSH2 0x937 JUMPI DUP1 PUSH1 0x1F LT PUSH2 0x90E JUMPI PUSH2 0x100 DUP1 DUP4 SLOAD DIV MUL DUP4 MSTORE SWAP2 PUSH1 0x20 ADD SWAP2 PUSH2 0x937 JUMP JUMPDEST DUP3 ADD SWAP2 SWAP1 PUSH0 MSTORE PUSH1 0x20 PUSH0 KECCAK256 SWAP1 JUMPDEST DUP2 SLOAD DUP2 MSTORE SWAP1 PUSH1 0x1 ADD SWAP1 PUSH1 0x20 ADD DUP1 DUP4 GT PUSH2 0x91A JUMPI DUP3 SWAP1 SUB PUSH1 0x1F AND DUP3 ADD SWAP2 JUMPDEST POP POP POP POP POP DUP2 MSTORE PUSH1 0x20 ADD PUSH1 0x3 DUP3 ADD PUSH0 SWAP1 SLOAD SWAP1 PUSH2 0x100 EXP SWAP1 DIV PUSH20 0xFFFFFFFFFFFFFFFFFFFFFFFFFFFFFFFFFFFFFFFF AND PUSH20 0xFFFFFFFFFFFFFFFFFFFFFFFFFFFFFFFFFFFFFFFF AND PUSH20 0xFFFFFFFFFFFFFFFFFFFFFFFFFFFFFFFFFFFFFFFF AND DUP2 MSTORE PUSH1 0x20 ADD PUSH1 0x4 DUP3 ADD SLOAD DUP2 MSTORE PUSH1 0x20 ADD PUSH1 0x5 DUP3 ADD PUSH0 SWAP1 SLOAD SWAP1 PUSH2 0x100 EXP SWAP1 DIV PUSH1 0xFF AND ISZERO ISZERO ISZERO ISZERO DUP2 MSTORE PUSH1 0x20 ADD PUSH1 0x6 DUP3 ADD SLOAD DUP2 MSTORE PUSH1 0x20 ADD PUSH1 0x7 DUP3 ADD PUSH0 SWAP1 SLOAD SWAP1 PUSH2 0x100 EXP SWAP1 DIV PUSH1 0xFF AND ISZERO ISZERO ISZERO ISZERO DUP2 MSTORE POP POP SWAP1 POP DUP1 PUSH0 ADD MLOAD DUP2 PUSH1 0x40 ADD MLOAD DUP3 PUSH1 0x60 ADD MLOAD DUP4 PUSH1 0x80 ADD MLOAD DUP5 PUSH1 0xA0 ADD MLOAD DUP6 PUSH1 0xC0 ADD MLOAD SWAP8 POP SWAP8 POP SWAP8 POP SWAP8 POP SWAP8 POP SWAP8 POP POP POP SWAP2 SWAP4 SWAP6 POP SWAP2 SWAP4 SWAP6 JUMP JUMPDEST PUSH0 DUP5 PUSH1 0x40 MLOAD PUSH2 0xA22 SWAP2 SWAP1 PUSH2 0x12AA JUMP JUMPDEST SWAP1 DUP2 MSTORE PUSH1 0x20 ADD PUSH1 0x40 MLOAD DUP1 SWAP2 SUB SWAP1 KECCAK256 PUSH1 0x7 ADD PUSH0 SWAP1 SLOAD SWAP1 PUSH2 0x100 EXP SWAP1 DIV PUSH1 0xFF AND ISZERO PUSH2 0xA80 JUMPI PUSH1 0x40 MLOAD PUSH32 0x8C379A000000000000000000000000000000000000000000000000000000000 DUP2 MSTORE PUSH1 0x4 ADD PUSH2 0xA77 SWAP1 PUSH2 0x1828 JUMP JUMPDEST PUSH1 0x40 MLOAD DUP1 SWAP2 SUB SWAP1 REVERT JUMPDEST DUP1 ISZERO PUSH2 0xAC9 JUMPI PUSH0 CALLVALUE GT PUSH2 0xAC8 JUMPI PUSH1 0x40 MLOAD PUSH32 0x8C379A000000000000000000000000000000000000000000000000000000000 DUP2 MSTORE PUSH1 0x4 ADD PUSH2 0xABF SWAP1 PUSH2 0x1890 JUMP JUMPDEST PUSH1 0x40 MLOAD DUP1 SWAP2 SUB SWAP1 REVERT JUMPDEST JUMPDEST PUSH1 0x40 MLOAD DUP1 PUSH2 0x100 ADD PUSH1 0x40 MSTORE DUP1 DUP6 DUP2 MSTORE PUSH1 0x20 ADD DUP5 DUP2 MSTORE PUSH1 0x20 ADD DUP4 DUP2 MSTORE PUSH1 0x20 ADD CALLER PUSH20 0xFFFFFFFFFFFFFFFFFFFFFFFFFFFFFFFFFFFFFFFF AND DUP2 MSTORE PUSH1 0x20 ADD TIMESTAMP DUP2 MSTORE PUSH1 0x20 ADD DUP3 ISZERO ISZERO DUP2 MSTORE PUSH1 0x20 ADD CALLVALUE DUP2 MSTORE PUSH1 0x20 ADD PUSH1 0x1 ISZERO ISZERO DUP2 MSTORE POP PUSH0 DUP6 PUSH1 0x40 MLOAD PUSH2 0xB2D SWAP2 SWAP1 PUSH2 0x12AA JUMP JUMPDEST SWAP1 DUP2 MSTORE PUSH1 0x20 ADD PUSH1 0x40 MLOAD DUP1 SWAP2 SUB SWAP1 KECCAK256 PUSH0 DUP3 ADD MLOAD DUP2 PUSH0 ADD SWAP1 DUP2 PUSH2 0xB4E SWAP2 SWAP1 PUSH2 0x158D JUMP JUMPDEST POP PUSH1 0x20 DUP3 ADD MLOAD DUP2 PUSH1 0x1 ADD SWAP1 DUP2 PUSH2 0xB64 SWAP2 SWAP1 PUSH2 0x158D JUMP JUMPDEST POP PUSH1 0x40 DUP3 ADD MLOAD DUP2 PUSH1 0x2 ADD SWAP1 DUP2 PUSH2 0xB7A SWAP2 SWAP1 PUSH2 0x158D JUMP JUMPDEST POP PUSH1 0x60 DUP3 ADD MLOAD DUP2 PUSH1 0x3 ADD PUSH0 PUSH2 0x100 EXP DUP2 SLOAD DUP2 PUSH20 0xFFFFFFFFFFFFFFFFFFFFFFFFFFFFFFFFFFFFFFFF MUL NOT AND SWAP1 DUP4 PUSH20 0xFFFFFFFFFFFFFFFFFFFFFFFFFFFFFFFFFFFFFFFF AND MUL OR SWAP1 SSTORE POP PUSH1 0x80 DUP3 ADD MLOAD DUP2 PUSH1 0x4 ADD SSTORE PUSH1 0xA0 DUP3 ADD MLOAD DUP2 PUSH1 0x5 ADD PUSH0 PUSH2 0x100 EXP DUP2 SLOAD DUP2 PUSH1 0xFF MUL NOT AND SWAP1 DUP4 ISZERO ISZERO MUL OR SWAP1 SSTORE POP PUSH1 0xC0 DUP3 ADD MLOAD DUP2 PUSH1 0x6 ADD SSTORE PUSH1 0xE0 DUP3 ADD MLOAD DUP2 PUSH1 0x7 ADD PUSH0 PUSH2 0x100 EXP DUP2 SLOAD DUP2 PUSH1 0xFF MUL NOT AND SWAP1 DUP4 ISZERO ISZERO MUL OR SWAP1 SSTORE POP SWAP1 POP POP PUSH1 0x1 DUP5 PUSH1 0x40 MLOAD PUSH2 0xC26 SWAP2 SWAP1 PUSH2 0x12AA JUMP JUMPDEST SWAP1 DUP2 MSTORE PUSH1 0x20 ADD PUSH1 0x40 MLOAD DUP1 SWAP2 SUB SWAP1 KECCAK256 DUP1 PUSH1 0x1 DUP2 SLOAD ADD DUP1 DUP3 SSTORE DUP1 SWAP2 POP POP PUSH1 0x1 SWAP1 SUB SWAP1 PUSH0 MSTORE PUSH1 0x20 PUSH0 KECCAK256 ADD PUSH0 PUSH1 0x40 MLOAD DUP1 PUSH1 0x40 ADD PUSH1 0x40 MSTORE DUP1 PUSH1 0x10 DUP2 MSTORE PUSH1 0x20 ADD PUSH32 0x45766964656E6365204372656174656400000000000000000000000000000000 DUP2 MSTORE POP SWAP1 SWAP2 SWAP1 SWAP2 POP SWAP1 DUP2 PUSH2 0xC95 SWAP2 SWAP1 PUSH2 0x158D JUMP JUMPDEST POP PUSH32 0x5B3DBB58B6A794AAE9133347EA6C3C61EC37C12C1A0CE358AAE8518E24CD40C8 DUP5 CALLER TIMESTAMP PUSH1 0x40 MLOAD PUSH2 0xCC9 SWAP4 SWAP3 SWAP2 SWAP1 PUSH2 0x18AE JUMP JUMPDEST PUSH1 0x40 MLOAD DUP1 SWAP2 SUB SWAP1 LOG1 POP POP POP POP JUMP JUMPDEST PUSH1 0x2 PUSH0 SWAP1 SLOAD SWAP1 PUSH2 0x100 EXP SWAP1 DIV PUSH20 0xFFFFFFFFFFFFFFFFFFFFFFFFFFFFFFFFFFFFFFFF AND DUP2 JUMP JUMPDEST PUSH0 PUSH1 0x40 MLOAD SWAP1 POP SWAP1 JUMP JUMPDEST PUSH0 PUSH0 REVERT JUMPDEST PUSH0 PUSH0 REVERT JUMPDEST PUSH0 PUSH0 REVERT JUMPDEST PUSH0 PUSH0 REVERT JUMPDEST PUSH0 PUSH1 0x1F NOT PUSH1 0x1F DUP4 ADD AND SWAP1 POP SWAP2 SWAP1 POP JUMP JUMPDEST PUSH32 0x4E487B7100000000000000000000000000000000000000000000000000000000 PUSH0 MSTORE PUSH1 0x41 PUSH1 0x4 MSTORE PUSH1 0x24 PUSH0 REVERT JUMPDEST PUSH2 0xD5B DUP3 PUSH2 0xD15 JUMP JUMPDEST DUP2 ADD DUP2 DUP2 LT PUSH8 0xFFFFFFFFFFFFFFFF DUP3 GT OR ISZERO PUSH2 0xD7A JUMPI PUSH2 0xD79 PUSH2 0xD25 JUMP JUMPDEST JUMPDEST DUP1 PUSH1 0x40 MSTORE POP POP POP JUMP JUMPDEST PUSH0 PUSH2 0xD8C PUSH2 0xCFC JUMP JUMPDEST SWAP1 POP PUSH2 0xD98 DUP3 DUP3 PUSH2 0xD52 JUMP JUMPDEST SWAP2 SWAP1 POP JUMP JUMPDEST PUSH0 PUSH8 0xFFFFFFFFFFFFFFFF DUP3 GT ISZERO PUSH2 0xDB7 JUMPI PUSH2 0xDB6 PUSH2 0xD25 JUMP JUMPDEST JUMPDEST PUSH2 0xDC0 DUP3 PUSH2 0xD15 JUMP JUMPDEST SWAP1 POP PUSH1 0x20 DUP2 ADD SWAP1 POP SWAP2 SWAP1 POP JUMP JUMPDEST DUP3 DUP2 DUP4 CALLDATACOPY PUSH0 DUP4 DUP4 ADD MSTORE POP POP POP JUMP JUMPDEST PUSH0 PUSH2 0xDED PUSH2 0xDE8 DUP5 PUSH2 0xD9D JUMP JUMPDEST PUSH2 0xD83 JUMP JUMPDEST SWAP1 POP DUP3 DUP2 MSTORE PUSH1 0x20 DUP2 ADD DUP5 DUP5 DUP5 ADD GT ISZERO PUSH2 0xE09 JUMPI PUSH2 0xE08 PUSH2 0xD11 JUMP JUMPDEST JUMPDEST PUSH2 0xE14 DUP5 DUP3 DUP6 PUSH2 0xDCD JUMP JUMPDEST POP SWAP4 SWAP3 POP POP POP JUMP JUMPDEST PUSH0 DUP3 PUSH1 0x1F DUP4 ADD SLT PUSH2 0xE30 JUMPI PUSH2 0xE2F PUSH2 0xD0D JUMP JUMPDEST JUMPDEST DUP2 CALLDATALOAD PUSH2 0xE40 DUP5 DUP3 PUSH1 0x20 DUP7 ADD PUSH2 0xDDB JUMP JUMPDEST SWAP2 POP POP SWAP3 SWAP2 POP POP JUMP JUMPDEST PUSH0 PUSH20 0xFFFFFFFFFFFFFFFFFFFFFFFFFFFFFFFFFFFFFFFF DUP3 AND SWAP1 POP SWAP2 SWAP1 POP JUMP JUMPDEST PUSH0 PUSH2 0xE72 DUP3 PUSH2 0xE49 JUMP JUMPDEST SWAP1 POP SWAP2 SWAP1 POP JUMP JUMPDEST PUSH2 0xE82 DUP2 PUSH2 0xE68 JUMP JUMPDEST DUP2 EQ PUSH2 0xE8C JUMPI PUSH0 PUSH0 REVERT JUMPDEST POP JUMP JUMPDEST PUSH0 DUP2 CALLDATALOAD SWAP1 POP PUSH2 0xE9D DUP2 PUSH2 0xE79 JUMP JUMPDEST SWAP3 SWAP2 POP POP JUMP JUMPDEST PUSH0 PUSH0 PUSH1 0x40 DUP4 DUP6 SUB SLT ISZERO PUSH2 0xEB9 JUMPI PUSH2 0xEB8 PUSH2 0xD05 JUMP JUMPDEST JUMPDEST PUSH0 DUP4 ADD CALLDATALOAD PUSH8 0xFFFFFFFFFFFFFFFF DUP2 GT ISZERO PUSH2 0xED6 JUMPI PUSH2 0xED5 PUSH2 0xD09 JUMP JUMPDEST JUMPDEST PUSH2 0xEE2 DUP6 DUP3 DUP7 ADD PUSH2 0xE1C JUMP JUMPDEST SWAP3 POP POP PUSH1 0x20 PUSH2 0xEF3 DUP6 DUP3 DUP7 ADD PUSH2 0xE8F JUMP JUMPDEST SWAP2 POP POP SWAP3 POP SWAP3 SWAP1 POP JUMP JUMPDEST PUSH0 PUSH1 0x20 DUP3 DUP5 SUB SLT ISZERO PUSH2 0xF12 JUMPI PUSH2 0xF11 PUSH2 0xD05 JUMP JUMPDEST JUMPDEST PUSH0 DUP3 ADD CALLDATALOAD PUSH8 0xFFFFFFFFFFFFFFFF DUP2 GT ISZERO PUSH2 0xF2F JUMPI PUSH2 0xF2E PUSH2 0xD09 JUMP JUMPDEST JUMPDEST PUSH2 0xF3B DUP5 DUP3 DUP6 ADD PUSH2 0xE1C JUMP JUMPDEST SWAP2 POP POP SWAP3 SWAP2 POP POP JUMP JUMPDEST PUSH0 DUP2 MLOAD SWAP1 POP SWAP2 SWAP1 POP JUMP JUMPDEST PUSH0 DUP3 DUP3 MSTORE PUSH1 0x20 DUP3 ADD SWAP1 POP SWAP3 SWAP2 POP POP JUMP JUMPDEST PUSH0 DUP2 SWAP1 POP PUSH1 0x20 DUP3 ADD SWAP1 POP SWAP2 SWAP1 POP JUMP JUMPDEST PUSH0 DUP2 MLOAD SWAP1 POP SWAP2 SWAP1 POP JUMP JUMPDEST PUSH0 DUP3 DUP3 MSTORE PUSH1 0x20 DUP3 ADD SWAP1 POP SWAP3 SWAP2 POP POP JUMP JUMPDEST DUP3 DUP2 DUP4 MCOPY PUSH0 DUP4 DUP4 ADD MSTORE POP POP POP JUMP JUMPDEST PUSH0 PUSH2 0xF9F DUP3 PUSH2 0xF6D JUMP JUMPDEST PUSH2 0xFA9 DUP2 DUP6 PUSH2 0xF77 JUMP JUMPDEST SWAP4 POP PUSH2 0xFB9 DUP2 DUP6 PUSH1 0x20 DUP7 ADD PUSH2 0xF87 JUMP JUMPDEST PUSH2 0xFC2 DUP2 PUSH2 0xD15 JUMP JUMPDEST DUP5 ADD SWAP2 POP POP SWAP3 SWAP2 POP POP JUMP JUMPDEST PUSH0 PUSH2 0xFD8 DUP4 DUP4 PUSH2 0xF95 JUMP JUMPDEST SWAP1 POP SWAP3 SWAP2 POP POP JUMP JUMPDEST PUSH0 PUSH1 0x20 DUP3 ADD SWAP1 POP SWAP2 SWAP1 POP JUMP JUMPDEST PUSH0 PUSH2 0xFF6 DUP3 PUSH2 0xF44 JUMP JUMPDEST PUSH2 0x1000 DUP2 DUP6 PUSH2 0xF4E JUMP JUMPDEST SWAP4 POP DUP4 PUSH1 0x20 DUP3 MUL DUP6 ADD PUSH2 0x1012 DUP6 PUSH2 0xF5E JUMP JUMPDEST DUP1 PUSH0 JUMPDEST DUP6 DUP2 LT ISZERO PUSH2 0x104D JUMPI DUP5 DUP5 SUB DUP10 MSTORE DUP2 MLOAD PUSH2 0x102E DUP6 DUP3 PUSH2 0xFCD JUMP JUMPDEST SWAP5 POP PUSH2 0x1039 DUP4 PUSH2 0xFE0 JUMP JUMPDEST SWAP3 POP PUSH1 0x20 DUP11 ADD SWAP10 POP POP PUSH1 0x1 DUP2 ADD SWAP1 POP PUSH2 0x1015 JUMP JUMPDEST POP DUP3 SWAP8 POP DUP8 SWAP6 POP POP POP POP POP POP SWAP3 SWAP2 POP POP JUMP JUMPDEST PUSH0 PUSH1 0x20 DUP3 ADD SWAP1 POP DUP2 DUP2 SUB PUSH0 DUP4 ADD MSTORE PUSH2 0x1077 DUP2 DUP5 PUSH2 0xFEC JUMP JUMPDEST SWAP1 POP SWAP3 SWAP2 POP POP JUMP JUMPDEST PUSH0 DUP3 DUP3 MSTORE PUSH1 0x20 DUP3 ADD SWAP1 POP SWAP3 SWAP2 POP POP JUMP JUMPDEST PUSH0 PUSH2 0x1099 DUP3 PUSH2 0xF6D JUMP JUMPDEST PUSH2 0x10A3 DUP2 DUP6 PUSH2 0x107F JUMP JUMPDEST SWAP4 POP PUSH2 0x10B3 DUP2 DUP6 PUSH1 0x20 DUP7 ADD PUSH2 0xF87 JUMP JUMPDEST PUSH2 0x10BC DUP2 PUSH2 0xD15 JUMP JUMPDEST DUP5 ADD SWAP2 POP POP SWAP3 SWAP2 POP POP JUMP JUMPDEST PUSH2 0x10D0 DUP2 PUSH2 0xE68 JUMP JUMPDEST DUP3 MSTORE POP POP JUMP JUMPDEST PUSH0 DUP2 SWAP1 POP SWAP2 SWAP1 POP JUMP JUMPDEST PUSH2 0x10E8 DUP2 PUSH2 0x10D6 JUMP JUMPDEST DUP3 MSTORE POP POP JUMP JUMPDEST PUSH0 DUP2 ISZERO ISZERO SWAP1 POP SWAP2 SWAP1 POP JUMP JUMPDEST PUSH2 0x1102 DUP2 PUSH2 0x10EE JUMP JUMPDEST DUP3 MSTORE POP POP JUMP JUMPDEST PUSH0 PUSH1 0xC0 DUP3 ADD SWAP1 POP DUP2 DUP2 SUB PUSH0 DUP4 ADD MSTORE PUSH2 0x1120 DUP2 DUP10 PUSH2 0x108F JUMP JUMPDEST SWAP1 POP DUP2 DUP2 SUB PUSH1 0x20 DUP4 ADD MSTORE PUSH2 0x1134 DUP2 DUP9 PUSH2 0x108F JUMP JUMPDEST SWAP1 POP PUSH2 0x1143 PUSH1 0x40 DUP4 ADD DUP8 PUSH2 0x10C7 JUMP JUMPDEST PUSH2 0x1150 PUSH1 0x60 DUP4 ADD DUP7 PUSH2 0x10DF JUMP JUMPDEST PUSH2 0x115D PUSH1 0x80 DUP4 ADD DUP6 PUSH2 0x10F9 JUMP JUMPDEST PUSH2 0x116A PUSH1 0xA0 DUP4 ADD DUP5 PUSH2 0x10DF JUMP JUMPDEST SWAP8 SWAP7 POP POP POP POP POP POP POP JUMP JUMPDEST PUSH2 0x117E DUP2 PUSH2 0x10EE JUMP JUMPDEST DUP2 EQ PUSH2 0x1188 JUMPI PUSH0 PUSH0 REVERT JUMPDEST POP JUMP JUMPDEST PUSH0 DUP2 CALLDATALOAD SWAP1 POP PUSH2 0x1199 DUP2 PUSH2 0x1175 JUMP JUMPDEST SWAP3 SWAP2 POP POP JUMP JUMPDEST PUSH0 PUSH0 PUSH0 PUSH0 PUSH1 0x80 DUP6 DUP8 SUB SLT ISZERO PUSH2 0x11B7 JUMPI PUSH2 0x11B6 PUSH2 0xD05 JUMP JUMPDEST JUMPDEST PUSH0 DUP6 ADD CALLDATALOAD PUSH8 0xFFFFFFFFFFFFFFFF DUP2 GT ISZERO PUSH2 0x11D4 JUMPI PUSH2 0x11D3 PUSH2 0xD09 JUMP JUMPDEST JUMPDEST PUSH2 0x11E0 DUP8 DUP3 DUP9 ADD PUSH2 0xE1C JUMP JUMPDEST SWAP5 POP POP PUSH1 0x20 DUP6 ADD CALLDATALOAD PUSH8 0xFFFFFFFFFFFFFFFF DUP2 GT ISZERO PUSH2 0x1201 JUMPI PUSH2 0x1200 PUSH2 0xD09 JUMP JUMPDEST JUMPDEST PUSH2 0x120D DUP8 DUP3 DUP9 ADD PUSH2 0xE1C JUMP JUMPDEST SWAP4 POP POP PUSH1 0x40 DUP6 ADD CALLDATALOAD PUSH8 0xFFFFFFFFFFFFFFFF DUP2 GT ISZERO PUSH2 0x122E JUMPI PUSH2 0x122D PUSH2 0xD09 JUMP JUMPDEST JUMPDEST PUSH2 0x123A DUP8 DUP3 DUP9 ADD PUSH2 0xE1C JUMP JUMPDEST SWAP3 POP POP PUSH1 0x60 PUSH2 0x124B DUP8 DUP3 DUP9 ADD PUSH2 0x118B JUMP JUMPDEST SWAP2 POP POP SWAP3 SWAP6 SWAP2 SWAP5 POP SWAP3 POP JUMP JUMPDEST PUSH0 PUSH1 0x20 DUP3 ADD SWAP1 POP PUSH2 0x126A PUSH0 DUP4 ADD DUP5 PUSH2 0x10C7 JUMP JUMPDEST SWAP3 SWAP2 POP POP JUMP JUMPDEST PUSH0 DUP2 SWAP1 POP SWAP3 SWAP2 POP POP JUMP JUMPDEST PUSH0 PUSH2 0x1284 DUP3 PUSH2 0xF6D JUMP JUMPDEST PUSH2 0x128E DUP2 DUP6 PUSH2 0x1270 JUMP JUMPDEST SWAP4 POP PUSH2 0x129E DUP2 DUP6 PUSH1 0x20 DUP7 ADD PUSH2 0xF87 JUMP JUMPDEST DUP1 DUP5 ADD SWAP2 POP POP SWAP3 SWAP2 POP POP JUMP JUMPDEST PUSH0 PUSH2 0x12B5 DUP3 DUP5 PUSH2 0x127A JUMP JUMPDEST SWAP2 POP DUP2 SWAP1 POP SWAP3 SWAP2 POP POP JUMP JUMPDEST PUSH32 0x45766964656E6365206E6F7420666F756E640000000000000000000000000000 PUSH0 DUP3 ADD MSTORE POP JUMP JUMPDEST PUSH0 PUSH2 0x12F4 PUSH1 0x12 DUP4 PUSH2 0x107F JUMP JUMPDEST SWAP2 POP PUSH2 0x12FF DUP3 PUSH2 0x12C0 JUMP JUMPDEST PUSH1 0x20 DUP3 ADD SWAP1 POP SWAP2 SWAP1 POP JUMP JUMPDEST PUSH0 PUSH1 0x20 DUP3 ADD SWAP1 POP DUP2 DUP2 SUB PUSH0 DUP4 ADD MSTORE PUSH2 0x1321 DUP2 PUSH2 0x12E8 JUMP JUMPDEST SWAP1 POP SWAP2 SWAP1 POP JUMP JUMPDEST PUSH32 0x4E6F74206F776E65720000000000000000000000000000000000000000000000 PUSH0 DUP3 ADD MSTORE POP JUMP JUMPDEST PUSH0 PUSH2 0x135C PUSH1 0x9 DUP4 PUSH2 0x107F JUMP JUMPDEST SWAP2 POP PUSH2 0x1367 DUP3 PUSH2 0x1328 JUMP JUMPDEST PUSH1 0x20 DUP3 ADD SWAP1 POP SWAP2 SWAP1 POP JUMP JUMPDEST PUSH0 PUSH1 0x20 DUP3 ADD SWAP1 POP DUP2 DUP2 SUB PUSH0 DUP4 ADD MSTORE PUSH2 0x1389 DUP2 PUSH2 0x1350 JUMP JUMPDEST SWAP1 POP SWAP2 SWAP1 POP JUMP JUMPDEST PUSH32 0x4E487B7100000000000000000000000000000000000000000000000000000000 PUSH0 MSTORE PUSH1 0x22 PUSH1 0x4 MSTORE PUSH1 0x24 PUSH0 REVERT JUMPDEST PUSH0 PUSH1 0x2 DUP3 DIV SWAP1 POP PUSH1 0x1 DUP3 AND DUP1 PUSH2 0x13D4 JUMPI PUSH1 0x7F DUP3 AND SWAP2 POP JUMPDEST PUSH1 0x20 DUP3 LT DUP2 SUB PUSH2 0x13E7 JUMPI PUSH2 0x13E6 PUSH2 0x1390 JUMP JUMPDEST JUMPDEST POP SWAP2 SWAP1 POP JUMP JUMPDEST PUSH0 DUP2 SWAP1 POP DUP2 PUSH0 MSTORE PUSH1 0x20 PUSH0 KECCAK256 SWAP1 POP SWAP2 SWAP1 POP JUMP JUMPDEST PUSH0 PUSH1 0x20 PUSH1 0x1F DUP4 ADD DIV SWAP1 POP SWAP2 SWAP1 POP JUMP JUMPDEST PUSH0 DUP3 DUP3 SHL SWAP1 POP SWAP3 SWAP2 POP POP JUMP JUMPDEST PUSH0 PUSH1 0x8 DUP4 MUL PUSH2 0x1449 PUSH32 0xFFFFFFFFFFFFFFFFFFFFFFFFFFFFFFFFFFFFFFFFFFFFFFFFFFFFFFFFFFFFFFFF DUP3 PUSH2 0x140E JUMP JUMPDEST PUSH2 0x1453 DUP7 DUP4 PUSH2 0x140E JUMP JUMPDEST SWAP6 POP DUP1 NOT DUP5 AND SWAP4 POP DUP1 DUP7 AND DUP5 OR SWAP3 POP POP POP SWAP4 SWAP3 POP POP POP JUMP JUMPDEST PUSH0 DUP2 SWAP1 POP SWAP2 SWAP1 POP JUMP JUMPDEST PUSH0 PUSH2 0x148E PUSH2 0x1489 PUSH2 0x1484 DUP5 PUSH2 0x10D6 JUMP JUMPDEST PUSH2 0x146B JUMP JUMPDEST PUSH2 0x10D6 JUMP JUMPDEST SWAP1 POP SWAP2 SWAP1 POP JUMP JUMPDEST PUSH0 DUP2 SWAP1 POP SWAP2 SWAP1 POP JUMP JUMPDEST PUSH2 0x14A7 DUP4 PUSH2 0x1474 JUMP JUMPDEST PUSH2 0x14BB PUSH2 0x14B3 DUP3 PUSH2 0x1495 JUMP JUMPDEST DUP5 DUP5 SLOAD PUSH2 0x141A JUMP JUMPDEST DUP3 SSTORE POP POP POP POP JUMP JUMPDEST PUSH0 PUSH0 SWAP1 POP SWAP1 JUMP JUMPDEST PUSH2 0x14D2 PUSH2 0x14C3 JUMP JUMPDEST PUSH2 0x14DD DUP2 DUP5 DUP5 PUSH2 0x149E JUMP JUMPDEST POP POP POP JUMP JUMPDEST JUMPDEST DUP2 DUP2 LT ISZERO PUSH2 0x1500 JUMPI PUSH2 0x14F5 PUSH0 DUP3 PUSH2 0x14CA JUMP JUMPDEST PUSH1 0x1 DUP2 ADD SWAP1 POP PUSH2 0x14E3 JUMP JUMPDEST POP POP JUMP JUMPDEST PUSH1 0x1F DUP3 GT ISZERO PUSH2 0x1545 JUMPI PUSH2 0x1516 DUP2 PUSH2 0x13ED JUMP JUMPDEST PUSH2 0x151F DUP5 PUSH2 0x13FF JUMP JUMPDEST DUP2 ADD PUSH1 0x20 DUP6 LT ISZERO PUSH2 0x152E JUMPI DUP2 SWAP1 POP JUMPDEST PUSH2 0x1542 PUSH2 0x153A DUP6 PUSH2 0x13FF JUMP JUMPDEST DUP4 ADD DUP3 PUSH2 0x14E2 JUMP JUMPDEST POP POP JUMPDEST POP POP POP JUMP JUMPDEST PUSH0 DUP3 DUP3 SHR SWAP1 POP SWAP3 SWAP2 POP POP JUMP JUMPDEST PUSH0 PUSH2 0x1565 PUSH0 NOT DUP5 PUSH1 0x8 MUL PUSH2 0x154A JUMP JUMPDEST NOT DUP1 DUP4 AND SWAP2 POP POP SWAP3 SWAP2 POP POP JUMP JUMPDEST PUSH0 PUSH2 0x157D DUP4 DUP4 PUSH2 0x1556 JUMP JUMPDEST SWAP2 POP DUP3 PUSH1 0x2 MUL DUP3 OR SWAP1 POP SWAP3 SWAP2 POP POP JUMP JUMPDEST PUSH2 0x1596 DUP3 PUSH2 0xF6D JUMP JUMPDEST PUSH8 0xFFFFFFFFFFFFFFFF DUP2 GT ISZERO PUSH2 0x15AF JUMPI PUSH2 0x15AE PUSH2 0xD25 JUMP JUMPDEST JUMPDEST PUSH2 0x15B9 DUP3 SLOAD PUSH2 0x13BD JUMP JUMPDEST PUSH2 0x15C4 DUP3 DUP3 DUP6 PUSH2 0x1504 JUMP JUMPDEST PUSH0 PUSH1 0x20 SWAP1 POP PUSH1 0x1F DUP4 GT PUSH1 0x1 DUP2 EQ PUSH2 0x15F5 JUMPI PUSH0 DUP5 ISZERO PUSH2 0x15E3 JUMPI DUP3 DUP8 ADD MLOAD SWAP1 POP JUMPDEST PUSH2 0x15ED DUP6 DUP3 PUSH2 0x1572 JUMP JUMPDEST DUP7 SSTORE POP PUSH2 0x1654 JUMP JUMPDEST PUSH1 0x1F NOT DUP5 AND PUSH2 0x1603 DUP7 PUSH2 0x13ED JUMP JUMPDEST PUSH0 JUMPDEST DUP3 DUP2 LT ISZERO PUSH2 0x162A JUMPI DUP5 DUP10 ADD MLOAD DUP3 SSTORE PUSH1 0x1 DUP3 ADD SWAP2 POP PUSH1 0x20 DUP6 ADD SWAP5 POP PUSH1 0x20 DUP2 ADD SWAP1 POP PUSH2 0x1605 JUMP JUMPDEST DUP7 DUP4 LT ISZERO PUSH2 0x1647 JUMPI DUP5 DUP10 ADD MLOAD PUSH2 0x1643 PUSH1 0x1F DUP10 AND DUP3 PUSH2 0x1556 JUMP JUMPDEST DUP4 SSTORE POP JUMPDEST PUSH1 0x1 PUSH1 0x2 DUP9 MUL ADD DUP9 SSTORE POP POP POP JUMPDEST POP POP POP POP POP POP JUMP JUMPDEST PUSH0 PUSH1 0x80 DUP3 ADD SWAP1 POP DUP2 DUP2 SUB PUSH0 DUP4 ADD MSTORE PUSH2 0x1674 DUP2 DUP8 PUSH2 0x108F JUMP JUMPDEST SWAP1 POP PUSH2 0x1683 PUSH1 0x20 DUP4 ADD DUP7 PUSH2 0x10C7 JUMP JUMPDEST PUSH2 0x1690 PUSH1 0x40 DUP4 ADD DUP6 PUSH2 0x10C7 JUMP JUMPDEST PUSH2 0x169D PUSH1 0x60 DUP4 ADD DUP5 PUSH2 0x10DF JUMP JUMPDEST SWAP6 SWAP5 POP POP POP POP POP JUMP JUMPDEST PUSH32 0x4F6E6C792061646D696E20616C6C6F7765640000000000000000000000000000 PUSH0 DUP3 ADD MSTORE POP JUMP JUMPDEST PUSH0 PUSH2 0x16DA PUSH1 0x12 DUP4 PUSH2 0x107F JUMP JUMPDEST SWAP2 POP PUSH2 0x16E5 DUP3 PUSH2 0x16A6 JUMP JUMPDEST PUSH1 0x20 DUP3 ADD SWAP1 POP SWAP2 SWAP1 POP JUMP JUMPDEST PUSH0 PUSH1 0x20 DUP3 ADD SWAP1 POP DUP2 DUP2 SUB PUSH0 DUP4 ADD MSTORE PUSH2 0x1707 DUP2 PUSH2 0x16CE JUMP JUMPDEST SWAP1 POP SWAP2 SWAP1 POP JUMP JUMPDEST PUSH32 0x4E6F20657363726F770000000000000000000000000000000000000000000000 PUSH0 DUP3 ADD MSTORE POP JUMP JUMPDEST PUSH0 PUSH2 0x1742 PUSH1 0x9 DUP4 PUSH2 0x107F JUMP JUMPDEST SWAP2 POP PUSH2 0x174D DUP3 PUSH2 0x170E JUMP JUMPDEST PUSH1 0x20 DUP3 ADD SWAP1 POP SWAP2 SWAP1 POP JUMP JUMPDEST PUSH0 PUSH1 0x20 DUP3 ADD SWAP1 POP DUP2 DUP2 SUB PUSH0 DUP4 ADD MSTORE PUSH2 0x176F DUP2 PUSH2 0x1736 JUMP JUMPDEST SWAP1 POP SWAP2 SWAP1 POP JUMP JUMPDEST PUSH32 0x416C72656164792072656C656173656400000000000000000000000000000000 PUSH0 DUP3 ADD MSTORE POP JUMP JUMPDEST PUSH0 PUSH2 0x17AA PUSH1 0x10 DUP4 PUSH2 0x107F JUMP JUMPDEST SWAP2 POP PUSH2 0x17B5 DUP3 PUSH2 0x1776 JUMP JUMPDEST PUSH1 0x20 DUP3 ADD SWAP1 POP SWAP2 SWAP1 POP JUMP JUMPDEST PUSH0 PUSH1 0x20 DUP3 ADD SWAP1 POP DUP2 DUP2 SUB PUSH0 DUP4 ADD MSTORE PUSH2 0x17D7 DUP2 PUSH2 0x179E JUMP JUMPDEST SWAP1 POP SWAP2 SWAP1 POP JUMP JUMPDEST PUSH32 0x416C726561647920657869737473000000000000000000000000000000000000 PUSH0 DUP3 ADD MSTORE POP JUMP JUMPDEST PUSH0 PUSH2 0x1812 PUSH1 0xE DUP4 PUSH2 0x107F JUMP JUMPDEST SWAP2 POP PUSH2 0x181D DUP3 PUSH2 0x17DE JUMP JUMPDEST PUSH1 0x20 DUP3 ADD SWAP1 POP SWAP2 SWAP1 POP JUMP JUMPDEST PUSH0 PUSH1 0x20 DUP3 ADD SWAP1 POP DUP2 DUP2 SUB PUSH0 DUP4 ADD MSTORE PUSH2 0x183F DUP2 PUSH2 0x1806 JUMP JUMPDEST SWAP1 POP SWAP2 SWAP1 POP JUMP JUMPDEST PUSH32 0x457363726F772072657175697265640000000000000000000000000000000000 PUSH0 DUP3 ADD MSTORE POP JUMP JUMPDEST PUSH0 PUSH2 0x187A PUSH1 0xF DUP4 PUSH2 0x107F JUMP JUMPDEST SWAP2 POP PUSH2 0x1885 DUP3 PUSH2 0x1846 JUMP JUMPDEST PUSH1 0x20 DUP3 ADD SWAP1 POP SWAP2 SWAP1 POP JUMP JUMPDEST PUSH0 PUSH1 0x20 DUP3 ADD SWAP1 POP DUP2 DUP2 SUB PUSH0 DUP4 ADD MSTORE PUSH2 0x18A7 DUP2 PUSH2 0x186E JUMP JUMPDEST SWAP1 POP SWAP2 SWAP1 POP JUMP JUMPDEST PUSH0 PUSH1 0x60 DUP3 ADD SWAP1 POP DUP2 DUP2 SUB PUSH0 DUP4 ADD MSTORE PUSH2 0x18C6 DUP2 DUP7 PUSH2 0x108F JUMP JUMPDEST SWAP1 POP PUSH2 0x18D5 PUSH1 0x20 DUP4 ADD DUP6 PUSH2 0x10C7 JUMP JUMPDEST PUSH2 0x18E2 PUSH1 0x40 DUP4 ADD DUP5 PUSH2 0x10DF JUMP JUMPDEST SWAP5 SWAP4 POP POP POP POP JUMP INVALID LOG2 PUSH5 0x6970667358 0x22 SLT KECCAK256 CODESIZE 0xBD 0x2C PUSH32 0x2682A0E9FDF301B9B3754E4079A578184B6922E7D20BF385E0FF4E7A64736F6C PUSH4 0x4300081E STOP CALLER "
				},
				"gasEstimates": {
					"creation": {
						"codeDepositCost": "1286400",
						"executionCost": "25598",
						"totalCost": "1311998"
					},
					"external": {
						"addEvidence(string,string,string,bool)": "infinite",
						"admin()": "2596",
						"getEvidence(string)": "infinite",
						"getEvidenceLog(string)": "infinite",
						"releaseEscrow(string)": "infinite",
						"transferEvidence(string,address)": "infinite"
					}
				},
				"methodIdentifiers": {
					"addEvidence(string,string,string,bool)": "da537266",
					"admin()": "f851a440",
					"getEvidence(string)": "b16c6ee7",
					"getEvidenceLog(string)": "533b8f4d",
					"releaseEscrow(string)": "608c29a3",
					"transferEvidence(string,address)": "1cb68389"
				}
			},
			"storageLayout": {
				"storage": [
					{
						"astId": 23,
						"contract": "ChainOfCustody.sol:ChainOfCustody",
						"label": "evidences",
						"offset": 0,
						"slot": "0",
						"type": "t_mapping(t_string_memory_ptr,t_struct(Evidence)18_storage)"
					},
					{
						"astId": 28,
						"contract": "ChainOfCustody.sol:ChainOfCustody",
						"label": "logs",
						"offset": 0,
						"slot": "1",
						"type": "t_mapping(t_string_memory_ptr,t_array(t_string_storage)dyn_storage)"
					},
					{
						"astId": 30,
						"contract": "ChainOfCustody.sol:ChainOfCustody",
						"label": "admin",
						"offset": 0,
						"slot": "2",
						"type": "t_address"
					}
				],
				"types": {
					"t_address": {
						"encoding": "inplace",
						"label": "address",
						"numberOfBytes": "20"
					},
					"t_array(t_string_storage)dyn_storage": {
						"base": "t_string_storage",
						"encoding": "dynamic_array",
						"label": "string[]",
						"numberOfBytes": "32"
					},
					"t_bool": {
						"encoding": "inplace",
						"label": "bool",
						"numberOfBytes": "1"
					},
					"t_mapping(t_string_memory_ptr,t_array(t_string_storage)dyn_storage)": {
						"encoding": "mapping",
						"key": "t_string_memory_ptr",
						"label": "mapping(string => string[])",
						"numberOfBytes": "32",
						"value": "t_array(t_string_storage)dyn_storage"
					},
					"t_mapping(t_string_memory_ptr,t_struct(Evidence)18_storage)": {
						"encoding": "mapping",
						"key": "t_string_memory_ptr",
						"label": "mapping(string => struct ChainOfCustody.Evidence)",
						"numberOfBytes": "32",
						"value": "t_struct(Evidence)18_storage"
					},
					"t_string_memory_ptr": {
						"encoding": "bytes",
						"label": "string",
						"numberOfBytes": "32"
					},
					"t_string_storage": {
						"encoding": "bytes",
						"label": "string",
						"numberOfBytes": "32"
					},
					"t_struct(Evidence)18_storage": {
						"encoding": "inplace",
						"label": "struct ChainOfCustody.Evidence",
						"members": [
							{
								"astId": 3,
								"contract": "ChainOfCustody.sol:ChainOfCustody",
								"label": "id",
								"offset": 0,
								"slot": "0",
								"type": "t_string_storage"
							},
							{
								"astId": 5,
								"contract": "ChainOfCustody.sol:ChainOfCustody",
								"label": "hash",
								"offset": 0,
								"slot": "1",
								"type": "t_string_storage"
							},
							{
								"astId": 7,
								"contract": "ChainOfCustody.sol:ChainOfCustody",
								"label": "description",
								"offset": 0,
								"slot": "2",
								"type": "t_string_storage"
							},
							{
								"astId": 9,
								"contract": "ChainOfCustody.sol:ChainOfCustody",
								"label": "currentHolder",
								"offset": 0,
								"slot": "3",
								"type": "t_address"
							},
							{
								"astId": 11,
								"contract": "ChainOfCustody.sol:ChainOfCustody",
								"label": "timestamp",
								"offset": 0,
								"slot": "4",
								"type": "t_uint256"
							},
							{
								"astId": 13,
								"contract": "ChainOfCustody.sol:ChainOfCustody",
								"label": "escrowEnabled",
								"offset": 0,
								"slot": "5",
								"type": "t_bool"
							},
							{
								"astId": 15,
								"contract": "ChainOfCustody.sol:ChainOfCustody",
								"label": "escrowAmount",
								"offset": 0,
								"slot": "6",
								"type": "t_uint256"
							},
							{
								"astId": 17,
								"contract": "ChainOfCustody.sol:ChainOfCustody",
								"label": "exists",
								"offset": 0,
								"slot": "7",
								"type": "t_bool"
							}
						],
						"numberOfBytes": "256"
					},
					"t_uint256": {
						"encoding": "inplace",
						"label": "uint256",
						"numberOfBytes": "32"
					}
				}
			},
			"userdoc": {
				"kind": "user",
				"methods": {},
				"version": 1
			}
		}
	}
}