{
  "contractName": "EvidenceChain",
  "abi": [
    {
      "anonymous": false,
      "inputs": [
        {
          "indexed": false,
          "internalType": "uint256",
          "name": "id",
          "type": "uint256"
        },
        {
          "indexed": false,
          "internalType": "string",
          "name": "description",
          "type": "string"
        },
        {
          "indexed": false,
          "internalType": "address",
          "name": "owner",
          "type": "address"
        }
      ],
      "name": "EvidenceAdded",
      "type": "event"
    },
    {
      "inputs": [
        {
          "internalType": "uint256",
          "name": "",
          "type": "uint256"
        }
      ],
      "name": "evidences",
      "outputs": [
        {
          "internalType": "uint256",
          "name": "id",
          "type": "uint256"
        },
        {
          "internalType": "string",
          "name": "description",
          "type": "string"
        },
        {
          "internalType": "address",
          "name": "owner",
          "type": "address"
        }
      ],
      "stateMutability": "view",
      "type": "function"
    },
    {
      "inputs": [
        {
          "internalType": "uint256",
          "name": "_id",
          "type": "uint256"
        },
        {
          "internalType": "string",
          "name": "_desc",
          "type": "string"
        }
      ],
      "name": "addEvidence",
      "outputs": [],
      "stateMutability": "nonpayable",
      "type": "function"
    }
  ],
  "bytecode": "0x608060405234801561000f575f80fd5b5061083f8061001d5f395ff3fe608060405234801561000f575f80fd5b5060043610610034575f3560e01c80631c3665eb146100385780632e4546cd14610054575b5f80fd5b610052600480360381019061004d91906103b7565b610086565b005b61006e60048036038101906100699190610411565b61016d565b60405161007d93929190610504565b60405180910390f35b60405180606001604052808381526020018281526020013373ffffffffffffffffffffffffffffffffffffffff168152505f808481526020019081526020015f205f820151815f015560208201518160010190816100e4919061073a565b506040820151816002015f6101000a81548173ffffffffffffffffffffffffffffffffffffffff021916908373ffffffffffffffffffffffffffffffffffffffff1602179055509050507fb6cbb9f073834f986e9320b944e45c97cf52cca1982fae05334e1a66fde79c4e82823360405161016193929190610504565b60405180910390a15050565b5f602052805f5260405f205f91509050805f0154908060010180546101919061056d565b80601f01602080910402602001604051908101604052809291908181526020018280546101bd9061056d565b80156102085780601f106101df57610100808354040283529160200191610208565b820191905f5260205f20905b8154815290600101906020018083116101eb57829003601f168201915b505050505090806002015f9054906101000a900473ffffffffffffffffffffffffffffffffffffffff16905083565b5f604051905090565b5f80fd5b5f80fd5b5f819050919050565b61025a81610248565b8114610264575f80fd5b50565b5f8135905061027581610251565b92915050565b5f80fd5b5f80fd5b5f601f19601f8301169050919050565b7f4e487b71000000000000000000000000000000000000000000000000000000005f52604160045260245ffd5b6102c982610283565b810181811067ffffffffffffffff821117156102e8576102e7610293565b5b80604052505050565b5f6102fa610237565b905061030682826102c0565b919050565b5f67ffffffffffffffff82111561032557610324610293565b5b61032e82610283565b9050602081019050919050565b828183375f83830152505050565b5f61035b6103568461030b565b6102f1565b9050828152602081018484840111156103775761037661027f565b5b61038284828561033b565b509392505050565b5f82601f83011261039e5761039d61027b565b5b81356103ae848260208601610349565b91505092915050565b5f80604083850312156103cd576103cc610240565b5b5f6103da85828601610267565b925050602083013567ffffffffffffffff8111156103fb576103fa610244565b5b6104078582860161038a565b9150509250929050565b5f6020828403121561042657610425610240565b5b5f61043384828501610267565b91505092915050565b61044581610248565b82525050565b5f81519050919050565b5f82825260208201905092915050565b5f5b83811015610482578082015181840152602081019050610467565b5f8484015250505050565b5f6104978261044b565b6104a18185610455565b93506104b1818560208601610465565b6104ba81610283565b840191505092915050565b5f73ffffffffffffffffffffffffffffffffffffffff82169050919050565b5f6104ee826104c5565b9050919050565b6104fe816104e4565b82525050565b5f6060820190506105175f83018661043c565b8181036020830152610529818561048d565b905061053860408301846104f5565b949350505050565b7f4e487b71000000000000000000000000000000000000000000000000000000005f52602260045260245ffd5b5f600282049050600182168061058457607f821691505b60208210810361059757610596610540565b5b50919050565b5f819050815f5260205f209050919050565b5f6020601f8301049050919050565b5f82821b905092915050565b5f600883026105f97fffffffffffffffffffffffffffffffffffffffffffffffffffffffffffffffff826105be565b61060386836105be565b95508019841693508086168417925050509392505050565b5f819050919050565b5f61063e61063961063484610248565b61061b565b610248565b9050919050565b5f819050919050565b61065783610624565b61066b61066382610645565b8484546105ca565b825550505050565b5f90565b61067f610673565b61068a81848461064e565b505050565b5b818110156106ad576106a25f82610677565b600181019050610690565b5050565b601f8211156106f2576106c38161059d565b6106cc846105af565b810160208510156106db578190505b6106ef6106e7856105af565b83018261068f565b50505b505050565b5f82821c905092915050565b5f6107125f19846008026106f7565b1980831691505092915050565b5f61072a8383610703565b9150826002028217905092915050565b6107438261044b565b67ffffffffffffffff81111561075c5761075b610293565b5b610766825461056d565b6107718282856106b1565b5f60209050601f8311600181146107a2575f8415610790578287015190505b61079a858261071f565b865550610801565b601f1984166107b08661059d565b5f5b828110156107d7578489015182556001820191506020850194506020810190506107b2565b868310156107f457848901516107f0601f891682610703565b8355505b6001600288020188555050505b50505050505056fea264697066735822122077a45e14a72bbe6ce9dafcb92ac595b876a18cb493ae93b54bce6ddcf930bb3d64736f6c63430008150033",
  "immutableReferences": {},
  "source": "// SPDX-License-Identifier: MIT\r\npragma solidity ^0.8.19;\r\n\r\ncontract EvidenceChain {\r\n\r\n    struct Evidence {\r\n        uint id;\r\n        string description;\r\n        address owner;\r\n    }\r\n\r\n    mapping(uint => Evidence) public evidences;\r\n\r\n    event EvidenceAdded(uint id, string description, address owner);\r\n\r\n    function addEvidence(uint _id, string memory _desc) public {\r\n        evidences[_id] = Evidence(_id, _desc, msg.sender);\r\n        emit EvidenceAdded(_id, _desc, msg.sender);\r\n    }\r\n}",
  "sourcePath": "D:\\CAD-Study\\2nd Course - Cloud\\Sem2\\DEVP600-Business Innovation with Development Operations (DevOps)\\ProjectDevOps\\blockchain-devops-project\\backend\\contracts\\EvidenceChain.sol",
  "compiler": {
    "name": "solc",
    "version": "0.8.21+commit.d9974bed.Emscripten.clang"
  },
  "schemaVersion": "3.4.16",
  "updatedAt": "2026-03-16T16:43:06.081Z",
  "devdoc": {
    "kind": "dev",
    "methods": {},
    "version": 1
  },
  "userdoc": {
    "kind": "user",
    "methods": {},
    "version": 1
  }
}