{
  "contractName": "ChainOfCustody",
  "abi": [
    {
      "inputs": [],
      "stateMutability": "nonpayable",
      "type": "constructor"
    },
    {
      "anonymous": false,
      "inputs": [
        {
          "indexed": false,
          "internalType": "string",
          "name": "evidenceId",
          "type": "string"
        },
        {
          "indexed": false,
          "internalType": "address",
          "name": "addedBy",
          "type": "address"
        },
        {
          "indexed": false,
          "internalType": "uint256",
          "name": "timestamp",
          "type": "uint256"
        }
      ],
      "name": "EvidenceAdded",
      "type": "event"
    },
    {
      "anonymous": false,
      "inputs": [
        {
          "indexed": false,
          "internalType": "string",
          "name": "evidenceId",
          "type": "string"
        },
        {
          "indexed": false,
          "internalType": "address",
          "name": "from",
          "type": "address"
        },
        {
          "indexed": false,
          "internalType": "address",
          "name": "to",
          "type": "address"
        },
        {
          "indexed": false,
          "internalType": "uint256",
          "name": "timestamp",
          "type": "uint256"
        }
      ],
      "name": "EvidenceTransferred",
      "type": "event"
    },
    {
      "inputs": [
        {
          "internalType": "string",
          "name": "_id",
          "type": "string"
        },
        {
          "internalType": "string",
          "name": "_hash",
          "type": "string"
        },
        {
          "internalType": "string",
          "name": "_description",
          "type": "string"
        },
        {
          "internalType": "bool",
          "name": "_escrowEnabled",
          "type": "bool"
        }
      ],
      "name": "addEvidence",
      "outputs": [],
      "stateMutability": "payable",
      "type": "function"
    },
    {
      "inputs": [],
      "name": "admin",
      "outputs": [
        {
          "internalType": "address",
          "name": "",
          "type": "address"
        }
      ],
      "stateMutability": "view",
      "type": "function"
    },
    {
      "inputs": [
        {
          "internalType": "string",
          "name": "_id",
          "type": "string"
        }
      ],
      "name": "getEvidence",
      "outputs": [
        {
          "internalType": "string",
          "name": "",
          "type": "string"
        },
        {
          "internalType": "string",
          "name": "",
          "type": "string"
        },
        {
          "internalType": "address",
          "name": "",
          "type": "address"
        },
        {
          "internalType": "uint256",
          "name": "",
          "type": "uint256"
        },
        {
          "internalType": "bool",
          "name": "",
          "type": "bool"
        },
        {
          "internalType": "uint256",
          "name": "",
          "type": "uint256"
        }
      ],
      "stateMutability": "view",
      "type": "function"
    },
    {
      "inputs": [
        {
          "internalType": "string",
          "name": "_id",
          "type": "string"
        }
      ],
      "name": "getEvidenceLog",
      "outputs": [
        {
          "internalType": "string[]",
          "name": "",
          "type": "string[]"
        }
      ],
      "stateMutability": "view",
      "type": "function"
    },
    {
      "inputs": [
        {
          "internalType": "string",
          "name": "_id",
          "type": "string"
        }
      ],
      "name": "releaseEscrow",
      "outputs": [],
      "stateMutability": "nonpayable",
      "type": "function"
    },
    {
      "inputs": [
        {
          "internalType": "string",
          "name": "_id",
          "type": "string"
        },
        {
          "internalType": "address",
          "name": "_newHolder",
          "type": "address"
        }
      ],
      "name": "transferEvidence",
      "outputs": [],
      "stateMutability": "nonpayable",
      "type": "function"
    }
  ],
  "bytecode": "0x608060405234801561001057600080fd5b506111fb806100206000396000f3fe608060405234801561001057600080fd5b506004361061004c5760003560e01c80631cb6838914610051578063533b8f4d14610066578063b16c6ee71461008f578063eb5c0bea146100b2575b600080fd5b61006461005f366004610b31565b6100c5565b005b610079610074366004610b8f565b6102ec565b6040516100869190610c1c565b60405180910390f35b6100a261009d366004610b8f565b6103e3565b6040516100869493929190610c7e565b6100646100c0366004610cc0565b6105df565b6000826040516100d59190610d24565b90815260200160405180910390206003015460000361013b5760405162461bcd60e51b815260206004820152601760248201527f45766964656e636520646f6573206e6f7420657869737400000000000000000060448201526064015b60405180910390fd5b336001600160a01b03166000836040516101559190610d24565b908152604051908190036020019020600201546001600160a01b0316146101be5760405162461bcd60e51b815260206004820152601e60248201527f596f7520617265206e6f74207468652063757272656e7420686f6c64657200006044820152606401610132565b600080836040516101cf9190610d24565b908152604051908190036020018120600201546001600160a01b0316915082906000906101fd908690610d24565b90815260405190819003602001812060020180546001600160a01b03939093166001600160a01b03199093169290921790915560019061023e908590610d24565b908152602001604051809103902061025582610797565b61025e84610797565b61026742610947565b60405160200161027993929190610d40565b60408051601f19818403018152919052815460018101835560009283526020909220909101906102a99082610e4d565b507f24740c4411179df970c0a5e668198a21a823c0e7c25b138c34acf7c1b7fed0cd838284426040516102df9493929190610f0d565b60405180910390a1505050565b60606001826040516102fe9190610d24565b9081526020016040518091039020805480602002602001604051908101604052809291908181526020016000905b828210156103d857838290600052602060002001805461034b90610dc4565b80601f016020809104026020016040519081016040528092919081815260200182805461037790610dc4565b80156103c45780601f10610399576101008083540402835291602001916103c4565b820191906000526020600020905b8154815290600101906020018083116103a757829003601f168201915b50505050508152602001906001019061032c565b505050509050919050565b6060806000806000856040516103f99190610d24565b90815260200160405180910390206003015460000361044f5760405162461bcd60e51b8152602060048201526012602482015271115d9a59195b98d9481b9bdd08199bdd5b9960721b6044820152606401610132565b600080866040516104609190610d24565b908152602001604051809103902060405180608001604052908160008201805461048990610dc4565b80601f01602080910402602001604051908101604052809291908181526020018280546104b590610dc4565b80156105025780601f106104d757610100808354040283529160200191610502565b820191906000526020600020905b8154815290600101906020018083116104e557829003601f168201915b5050505050815260200160018201805461051b90610dc4565b80601f016020809104026020016040519081016040528092919081815260200182805461054790610dc4565b80156105945780601f1061056957610100808354040283529160200191610594565b820191906000526020600020905b81548152906001019060200180831161057757829003601f168201915b505050918352505060028201546001600160a01b0316602080830191909152600390920154604091820152825191830151908301516060909301519199909850919650945092505050565b6000826040516105ef9190610d24565b9081526020016040518091039020600301546000146106505760405162461bcd60e51b815260206004820152601760248201527f45766964656e636520616c7265616479206578697374730000000000000000006044820152606401610132565b60408051608081018252838152602081018390523381830152426060820152905160009061067f908590610d24565b9081526040519081900360200190208151819061069c9082610e4d565b50602082015160018201906106b19082610e4d565b506040828101516002830180546001600160a01b0319166001600160a01b03909216919091179055606090920151600390910155516001906106f4908490610d24565b908152602001604051809103902061070b33610797565b61071442610947565b604051602001610725929190610f43565b60408051601f19818403018152919052815460018101835560009283526020909220909101906107559082610e4d565b507f872325f159409e4d32bdf7b19cbd36e063a2f6cebf0cbf4800da6d5442fdcc728282334260405161078b9493929190610c7e565b60405180910390a15050565b60408051602a808252606082810190935260009190602082018180368337019050509050600360fc1b816000815181106107d3576107d3610f98565b60200101906001600160f81b031916908160001a905350600f60fb1b8160018151811061080257610802610f98565b60200101906001600160f81b031916908160001a90535060005b6014811015610940576000610832826013610fc4565b61083d906008610fdd565b6108489060026110d8565b61085b906001600160a01b038716611101565b60f81b9050600060108260f81c6108729190611115565b60f81b905060008160f81c60106108899190611137565b8360f81c6108979190611153565b60f81b90506108a582610a58565b856108b1866002610fdd565b6108bc90600261116c565b815181106108cc576108cc610f98565b60200101906001600160f81b031916908160001a9053506108ec81610a58565b856108f8866002610fdd565b61090390600361116c565b8151811061091357610913610f98565b60200101906001600160f81b031916908160001a90535050505080806109389061117f565b91505061081c565b5092915050565b60608160000361096e5750506040805180820190915260018152600360fc1b602082015290565b8160005b811561099857806109828161117f565b91506109919050600a83611101565b9150610972565b60008167ffffffffffffffff8111156109b3576109b3610a8e565b6040519080825280601f01601f1916602001820160405280156109dd576020820181803683370190505b509050815b8515610a4f576109f3600182610fc4565b90506000610a02600a88611198565b610a0d90603061116c565b90508060f81b838381518110610a2557610a25610f98565b60200101906001600160f81b031916908160001a905350610a47600a88611101565b9650506109e2565b50949350505050565b6000600a60f883901c1015610a7f57610a7660f883901c60306111ac565b60f81b92915050565b610a7660f883901c60576111ac565b634e487b7160e01b600052604160045260246000fd5b600082601f830112610ab557600080fd5b813567ffffffffffffffff80821115610ad057610ad0610a8e565b604051601f8301601f19908116603f01168101908282118183101715610af857610af8610a8e565b81604052838152866020858801011115610b1157600080fd5b836020870160208301376000602085830101528094505050505092915050565b60008060408385031215610b4457600080fd5b823567ffffffffffffffff811115610b5b57600080fd5b610b6785828601610aa4565b92505060208301356001600160a01b0381168114610b8457600080fd5b809150509250929050565b600060208284031215610ba157600080fd5b813567ffffffffffffffff811115610bb857600080fd5b610bc484828501610aa4565b949350505050565b60005b83811015610be7578181015183820152602001610bcf565b50506000910152565b60008151808452610c08816020860160208601610bcc565b601f01601f19169290920160200192915050565b6000602080830181845280855180835260408601915060408160051b870101925083870160005b82811015610c7157603f19888603018452610c5f858351610bf0565b94509285019290850190600101610c43565b5092979650505050505050565b608081526000610c916080830187610bf0565b8281036020840152610ca38187610bf0565b6001600160a01b0395909516604084015250506060015292915050565b60008060408385031215610cd357600080fd5b823567ffffffffffffffff80821115610ceb57600080fd5b610cf786838701610aa4565b93506020850135915080821115610d0d57600080fd5b50610d1a85828601610aa4565b9150509250929050565b60008251610d36818460208701610bcc565b9190910192915050565b7102a3930b739b332b93932b210333937b69d160751b815260008451610d6d816012850160208901610bcc565b640103a379d160dd1b6012918401918201528451610d92816017840160208901610bcc565b6301030ba160e51b601792909101918201528351610db781601b840160208801610bcc565b01601b0195945050505050565b600181811c90821680610dd857607f821691505b602082108103610df857634e487b7160e01b600052602260045260246000fd5b50919050565b601f821115610e4857600081815260208120601f850160051c81016020861015610e255750805b601f850160051c820191505b81811015610e4457828155600101610e31565b5050505b505050565b815167ffffffffffffffff811115610e6757610e67610a8e565b610e7b81610e758454610dc4565b84610dfe565b602080601f831160018114610eb05760008415610e985750858301515b600019600386901b1c1916600185901b178555610e44565b600085815260208120601f198616915b82811015610edf57888601518255948401946001909101908401610ec0565b5085821015610efd5787850151600019600388901b60f8161c191681555b5050505050600190811b01905550565b608081526000610f206080830187610bf0565b6001600160a01b0395861660208401529390941660408201526060015292915050565b69020b23232b210313c9d160b51b815260008351610f6881600a850160208801610bcc565b6301030ba160e51b600a918401918201528351610f8c81600e840160208801610bcc565b01600e01949350505050565b634e487b7160e01b600052603260045260246000fd5b634e487b7160e01b600052601160045260246000fd5b81810381811115610fd757610fd7610fae565b92915050565b8082028115828204841417610fd757610fd7610fae565b600181815b8085111561102f57816000190482111561101557611015610fae565b8085161561102257918102915b93841c9390800290610ff9565b509250929050565b60008261104657506001610fd7565b8161105357506000610fd7565b816001811461106957600281146110735761108f565b6001915050610fd7565b60ff84111561108457611084610fae565b50506001821b610fd7565b5060208310610133831016604e8410600b84101617156110b2575081810a610fd7565b6110bc8383610ff4565b80600019048211156110d0576110d0610fae565b029392505050565b60006110e48383611037565b9392505050565b634e487b7160e01b600052601260045260246000fd5b600082611110576111106110eb565b500490565b600060ff831680611128576111286110eb565b8060ff84160491505092915050565b60ff818116838216029081169081811461094057610940610fae565b60ff8281168282160390811115610fd757610fd7610fae565b80820180821115610fd757610fd7610fae565b60006001820161119157611191610fae565b5060010190565b6000826111a7576111a76110eb565b500690565b60ff8181168382160190811115610fd757610fd7610fae56fea26469706673582212204850641e44d2c9941f61b69a091a72439f0fbea8dc9c97754b0e02860b34c8df64736f6c63430008130033",
  "immutableReferences": {},
  "source": "// SPDX-License-Identifier: MIT\npragma solidity ^0.8.19;\n\n\n/*\n   Key Features of our smart contract (Blockchain-Based Digital Forensics Evidence Chain of Custody):\n    1. Add new evidence  \n    2. Transfer evidence custody  \n    3. Retrieve evidence details  \n    4. View complete custody log  \n*/\n\ncontract ChainOfCustody {\n    struct Evidence {\n        string evidenceId;              // Unique ID for the evidence\n        string description;             // Short description of the evidence\n        address currentHolder;          // Address of current custodian\n        uint256 timestamp;              // When the evidence was added in system\n    }\n\n    mapping(string => Evidence) private evidences;          // To store each evidence using evidenceId as the key\n    mapping(string => string[]) private evidenceLog;        // To maintain a complete activity log per evidence\n\n    event EvidenceAdded(string evidenceId, string description, address addedBy, uint256 timestamp);\n    event EvidenceTransferred(string evidenceId, address from, address to, uint256 timestamp);\n\n// Function 1: Add New Evidence\n    function addEvidence(string memory _evidenceId, string memory _description) public { \n\n    // Check if evidence with this ID already exists, If yes, we block it so people don't overwrite records\n        require(evidences[_evidenceId].timestamp == 0, \"Evidence already exists\"); \n\n    // Create new evidenc\n        evidences[_evidenceId] = Evidence({\n            evidenceId: _evidenceId,\n            description: _description,\n            currentHolder: msg.sender,           // The creator becomes the first holder\n            timestamp: block.timestamp\n        });\n\n    // Store activity in log        \n        evidenceLog[_evidenceId].push(\n            string(\n                abi.encodePacked(\"Added by: \", toAsciiString(msg.sender), \" at \", uint2str(block.timestamp))\n            )\n        );\n\n        emit EvidenceAdded(_evidenceId, _description, msg.sender, block.timestamp);\n    }\n// Function 2: Transfer Evidence Custody (Only the current holder of the evidence can transfer)\n    function transferEvidence(string memory _evidenceId, address _newHolder) public {\n\n    // Ensure evidence exists    \n        require(evidences[_evidenceId].timestamp != 0, \"Evidence does not exist\");\n\n    // Ensure msg.sender is the current holder    \n        require(evidences[_evidenceId].currentHolder == msg.sender, \"You are not the current holder\");\n\n    // Store previous holder for logging\n        address prevHolder = evidences[_evidenceId].currentHolder;\n\n    // Update new evidence holder    \n        evidences[_evidenceId].currentHolder = _newHolder;\n\n    \n    // Add entry to the evidence activity log\n        evidenceLog[_evidenceId].push(\n            string(\n                abi.encodePacked(\"Transferred from: \", toAsciiString(prevHolder),\n                                 \" to: \", toAsciiString(_newHolder),\n                                 \" at \", uint2str(block.timestamp))\n            )\n        );\n\n        emit EvidenceTransferred(_evidenceId, prevHolder, _newHolder, block.timestamp);\n    }\n\n// Function 3: View Evidence Details\n    function getEvidence(string memory _evidenceId) \n        public \n        view \n        returns (string memory, string memory, address, uint256) \n    {\n        require(evidences[_evidenceId].timestamp != 0, \"Evidence not found\");\n\n        Evidence memory e = evidences[_evidenceId];\n        return (e.evidenceId, e.description, e.currentHolder, e.timestamp);\n    }\n\n// Function 4: View Evidence Activity Log\n    function getEvidenceLog(string memory _evidenceId) \n        public \n        view \n        returns (string[] memory) \n    {\n        return evidenceLog[_evidenceId];\n    }\n\n// Converts Ethereum address to ASCII hex string\n    function toAsciiString(address x) private pure returns (string memory) {\n        bytes memory s = new bytes(42);\n        s[0] = \"0\";\n        s[1] = \"x\";\n     \n    // This loop breaks the address into bytes and turns each byte into a readable hex character.\n        for (uint256 i = 0; i < 20; i++) {\n            bytes1 b = bytes1(uint8(uint(uint160(x)) / (2**(8*(19 - i)))));\n            bytes1 high = bytes1(uint8(b) / 16);\n            bytes1 low = bytes1(uint8(b) - 16 * uint8(high));\n            s[2 + 2*i] = char(high);\n            s[3 + 2*i] = char(low);\n        }\n        return string(s);\n    }\n\n// Converts a byte to a hex character\n    function char(bytes1 b) private pure returns (bytes1 c) {\n        if (uint8(b) < 10) return bytes1(uint8(b) + 0x30);\n        else return bytes1(uint8(b) + 0x57);\n    }\n\n// Convert uint → string (for timestamps)\n    function uint2str(uint256 _i) internal pure returns (string memory _uintAsString) {\n        if (_i == 0) return \"0\";\n        uint256 j = _i;\n        uint256 len;\n        \n    // Count how many digits the number has.\n        while (j != 0) {            \n            len++;  \n            j /= 10;\n        }\n    \n    // Fill bytes array with digits\n        bytes memory bstr = new bytes(len);\n        uint256 k = len;\n        while (_i != 0) {\n            k = k - 1;\n            uint8 temp = uint8(48 + (_i % 10));\n            bstr[k] = bytes1(temp);\n            _i /= 10;\n        }\n        return string(bstr);\n    }\n}",
  "sourcePath": "C:\\Users\\Student.LIBRARY-DH0GR14\\Downloads\\truffle-ganache-react-nometamask (1)\\truffle-ganache-react-nometamask\\contracts\\ChainOfCustody.sol",
  "compiler": {
    "name": "solc",
    "version": "0.8.19+commit.7dd6d404.Emscripten.clang"
  },
  "schemaVersion": "3.4.16",
  "updatedAt": "2025-12-13T04:42:45.419Z",
  "networkType": "ethereum",
  "devdoc": {
    "kind": "dev",
    "methods": {},
    "version": 1
  },
  "userdoc": {
    "kind": "user",
    "methods": {},
    "version": 1
  }
}